{
	"degreeVerification.sol": {
		"DegreeVerificationSystem": {
			"abi": [
				{
					"inputs": [],
					"stateMutability": "nonpayable",
					"type": "constructor"
				},
				{
					"anonymous": false,
					"inputs": [
						{
							"indexed": true,
							"internalType": "uint256",
							"name": "rollNumber",
							"type": "uint256"
						},
						{
							"indexed": false,
							"internalType": "string",
							"name": "name",
							"type": "string"
						}
					],
					"name": "DegreeAdded",
					"type": "event"
				},
				{
					"anonymous": false,
					"inputs": [
						{
							"indexed": true,
							"internalType": "uint256",
							"name": "rollNumber",
							"type": "uint256"
						},
						{
							"indexed": false,
							"internalType": "string",
							"name": "name",
							"type": "string"
						}
					],
					"name": "DegreeVerified",
					"type": "event"
				},
				{
					"inputs": [
						{
							"internalType": "string",
							"name": "_name",
							"type": "string"
						},
						{
							"internalType": "uint256",
							"name": "_rollNumber",
							"type": "uint256"
						}
					],
					"name": "addDegree",
					"outputs": [],
					"stateMutability": "nonpayable",
					"type": "function"
				},
				{
					"inputs": [],
					"name": "admin",
					"outputs": [
						{
							"internalType": "address",
							"name": "",
							"type": "address"
						}
					],
					"stateMutability": "view",
					"type": "function"
				},
				{
					"inputs": [
						{
							"internalType": "uint256",
							"name": "",
							"type": "uint256"
						}
					],
					"name": "degrees",
					"outputs": [
						{
							"internalType": "string",
							"name": "name",
							"type": "string"
						},
						{
							"internalType": "uint256",
							"name": "rollNumber",
							"type": "uint256"
						},
						{
							"internalType": "bool",
							"name": "isVerified",
							"type": "bool"
						}
					],
					"stateMutability": "view",
					"type": "function"
				},
				{
					"inputs": [
						{
							"internalType": "uint256",
							"name": "_rollNumber",
							"type": "uint256"
						}
					],
					"name": "markAsVerified",
					"outputs": [],
					"stateMutability": "nonpayable",
					"type": "function"
				},
				{
					"inputs": [
						{
							"internalType": "uint256",
							"name": "_rollNumber",
							"type": "uint256"
						}
					],
					"name": "verifyDegree",
					"outputs": [
						{
							"internalType": "string",
							"name": "name",
							"type": "string"
						},
						{
							"internalType": "bool",
							"name": "isVerified",
							"type": "bool"
						}
					],
					"stateMutability": "view",
					"type": "function"
				}
			],
			"devdoc": {
				"kind": "dev",
				"methods": {},
				"version": 1
			},
			"evm": {
				"assembly": "    /* \"degreeVerification.sol\":60:1852  contract DegreeVerificationSystem {... */\n  mstore(0x40, 0x80)\n    /* \"degreeVerification.sol\":556:607  constructor() {... */\n  callvalue\n  dup1\n  iszero\n  tag_1\n  jumpi\n  0x00\n  dup1\n  revert\ntag_1:\n  pop\n    /* \"degreeVerification.sol\":589:599  msg.sender */\n  caller\n    /* \"degreeVerification.sol\":581:586  admin */\n  0x00\n  dup1\n    /* \"degreeVerification.sol\":581:599  admin = msg.sender */\n  0x0100\n  exp\n  dup2\n  sload\n  dup2\n  0xffffffffffffffffffffffffffffffffffffffff\n  mul\n  not\n  and\n  swap1\n  dup4\n  0xffffffffffffffffffffffffffffffffffffffff\n  and\n  mul\n  or\n  swap1\n  sstore\n  pop\n    /* \"degreeVerification.sol\":60:1852  contract DegreeVerificationSystem {... */\n  dataSize(sub_0)\n  dup1\n  dataOffset(sub_0)\n  0x00\n  codecopy\n  0x00\n  return\nstop\n\nsub_0: assembly {\n        /* \"degreeVerification.sol\":60:1852  contract DegreeVerificationSystem {... */\n      mstore(0x40, 0x80)\n      callvalue\n      dup1\n      iszero\n      tag_1\n      jumpi\n      0x00\n      dup1\n      revert\n    tag_1:\n      pop\n      jumpi(tag_2, lt(calldatasize, 0x04))\n      shr(0xe0, calldataload(0x00))\n      dup1\n      0x067c453f\n      eq\n      tag_3\n      jumpi\n      dup1\n      0x20f722a3\n      eq\n      tag_4\n      jumpi\n      dup1\n      0x81f1c3bc\n      eq\n      tag_5\n      jumpi\n      dup1\n      0xaa5dc083\n      eq\n      tag_6\n      jumpi\n      dup1\n      0xf851a440\n      eq\n      tag_7\n      jumpi\n    tag_2:\n      0x00\n      dup1\n      revert\n        /* \"degreeVerification.sol\":615:1060  function addDegree(string memory _name, uint256 _rollNumber) public onlyAdmin {... */\n    tag_3:\n      tag_8\n      0x04\n      dup1\n      calldatasize\n      sub\n      dup2\n      add\n      swap1\n      tag_9\n      swap2\n      swap1\n      tag_10\n      jump\t// in\n    tag_9:\n      tag_11\n      jump\t// in\n    tag_8:\n      stop\n        /* \"degreeVerification.sol\":1068:1392  function verifyDegree(uint256 _rollNumber) public view returns (string memory name, bool isVerified) {... */\n    tag_4:\n      tag_12\n      0x04\n      dup1\n      calldatasize\n      sub\n      dup2\n      add\n      swap1\n      tag_13\n      swap2\n      swap1\n      tag_14\n      jump\t// in\n    tag_13:\n      tag_15\n      jump\t// in\n    tag_12:\n      mload(0x40)\n      tag_16\n      swap3\n      swap2\n      swap1\n      tag_17\n      jump\t// in\n    tag_16:\n      mload(0x40)\n      dup1\n      swap2\n      sub\n      swap1\n      return\n        /* \"degreeVerification.sol\":241:282  mapping(uint256 => Degree) public degrees */\n    tag_5:\n      tag_18\n      0x04\n      dup1\n      calldatasize\n      sub\n      dup2\n      add\n      swap1\n      tag_19\n      swap2\n      swap1\n      tag_14\n      jump\t// in\n    tag_19:\n      tag_20\n      jump\t// in\n    tag_18:\n      mload(0x40)\n      tag_21\n      swap4\n      swap3\n      swap2\n      swap1\n      tag_22\n      jump\t// in\n    tag_21:\n      mload(0x40)\n      dup1\n      swap2\n      sub\n      swap1\n      return\n        /* \"degreeVerification.sol\":1400:1849  function markAsVerified(uint256 _rollNumber) public onlyAdmin {... */\n    tag_6:\n      tag_23\n      0x04\n      dup1\n      calldatasize\n      sub\n      dup2\n      add\n      swap1\n      tag_24\n      swap2\n      swap1\n      tag_14\n      jump\t// in\n    tag_24:\n      tag_25\n      jump\t// in\n    tag_23:\n      stop\n        /* \"degreeVerification.sol\":101:121  address public admin */\n    tag_7:\n      tag_26\n      tag_27\n      jump\t// in\n    tag_26:\n      mload(0x40)\n      tag_28\n      swap2\n      swap1\n      tag_29\n      jump\t// in\n    tag_28:\n      mload(0x40)\n      dup1\n      swap2\n      sub\n      swap1\n      return\n        /* \"degreeVerification.sol\":615:1060  function addDegree(string memory _name, uint256 _rollNumber) public onlyAdmin {... */\n    tag_11:\n        /* \"degreeVerification.sol\":484:489  admin */\n      0x00\n      dup1\n      sload\n      swap1\n      0x0100\n      exp\n      swap1\n      div\n      0xffffffffffffffffffffffffffffffffffffffff\n      and\n        /* \"degreeVerification.sol\":470:489  msg.sender == admin */\n      0xffffffffffffffffffffffffffffffffffffffff\n      and\n        /* \"degreeVerification.sol\":470:480  msg.sender */\n      caller\n        /* \"degreeVerification.sol\":470:489  msg.sender == admin */\n      0xffffffffffffffffffffffffffffffffffffffff\n      and\n      eq\n        /* \"degreeVerification.sol\":462:528  require(msg.sender == admin, \"Only admin can perform this action\") */\n      tag_31\n      jumpi\n      mload(0x40)\n      0x08c379a000000000000000000000000000000000000000000000000000000000\n      dup2\n      mstore\n      0x04\n      add\n      tag_32\n      swap1\n      tag_33\n      jump\t// in\n    tag_32:\n      mload(0x40)\n      dup1\n      swap2\n      sub\n      swap1\n      revert\n    tag_31:\n        /* \"degreeVerification.sol\":726:727  0 */\n      0x00\n        /* \"degreeVerification.sol\":712:723  _rollNumber */\n      dup2\n        /* \"degreeVerification.sol\":712:727  _rollNumber > 0 */\n      gt\n        /* \"degreeVerification.sol\":704:766  require(_rollNumber > 0, \"Roll number must be greater than 0\") */\n      tag_35\n      jumpi\n      mload(0x40)\n      0x08c379a000000000000000000000000000000000000000000000000000000000\n      dup2\n      mstore\n      0x04\n      add\n      tag_36\n      swap1\n      tag_37\n      jump\t// in\n    tag_36:\n      mload(0x40)\n      dup1\n      swap2\n      sub\n      swap1\n      revert\n    tag_35:\n        /* \"degreeVerification.sol\":807:808  0 */\n      0x00\n        /* \"degreeVerification.sol\":791:796  _name */\n      dup3\n        /* \"degreeVerification.sol\":785:804  bytes(_name).length */\n      mload\n        /* \"degreeVerification.sol\":785:808  bytes(_name).length > 0 */\n      gt\n        /* \"degreeVerification.sol\":777:833  require(bytes(_name).length > 0, \"Name cannot be empty\") */\n      tag_38\n      jumpi\n      mload(0x40)\n      0x08c379a000000000000000000000000000000000000000000000000000000000\n      dup2\n      mstore\n      0x04\n      add\n      tag_39\n      swap1\n      tag_40\n      jump\t// in\n    tag_39:\n      mload(0x40)\n      dup1\n      swap2\n      sub\n      swap1\n      revert\n    tag_38:\n        /* \"degreeVerification.sol\":887:888  0 */\n      0x00\n        /* \"degreeVerification.sol\":852:859  degrees */\n      0x01\n        /* \"degreeVerification.sol\":852:872  degrees[_rollNumber] */\n      0x00\n        /* \"degreeVerification.sol\":860:871  _rollNumber */\n      dup4\n        /* \"degreeVerification.sol\":852:872  degrees[_rollNumber] */\n      dup2\n      mstore\n      0x20\n      add\n      swap1\n      dup2\n      mstore\n      0x20\n      add\n      0x00\n      keccak256\n        /* \"degreeVerification.sol\":852:883  degrees[_rollNumber].rollNumber */\n      0x01\n      add\n      sload\n        /* \"degreeVerification.sol\":852:888  degrees[_rollNumber].rollNumber == 0 */\n      eq\n        /* \"degreeVerification.sol\":844:936  require(degrees[_rollNumber].rollNumber == 0, \"Degree with this roll number already exists\") */\n      tag_41\n      jumpi\n      mload(0x40)\n      0x08c379a000000000000000000000000000000000000000000000000000000000\n      dup2\n      mstore\n      0x04\n      add\n      tag_42\n      swap1\n      tag_43\n      jump\t// in\n    tag_42:\n      mload(0x40)\n      dup1\n      swap2\n      sub\n      swap1\n      revert\n    tag_41:\n        /* \"degreeVerification.sol\":972:1005  Degree(_name, _rollNumber, false) */\n      mload(0x40)\n      dup1\n      0x60\n      add\n      0x40\n      mstore\n      dup1\n        /* \"degreeVerification.sol\":979:984  _name */\n      dup4\n        /* \"degreeVerification.sol\":972:1005  Degree(_name, _rollNumber, false) */\n      dup2\n      mstore\n      0x20\n      add\n        /* \"degreeVerification.sol\":986:997  _rollNumber */\n      dup3\n        /* \"degreeVerification.sol\":972:1005  Degree(_name, _rollNumber, false) */\n      dup2\n      mstore\n      0x20\n      add\n        /* \"degreeVerification.sol\":999:1004  false */\n      0x00\n        /* \"degreeVerification.sol\":972:1005  Degree(_name, _rollNumber, false) */\n      iszero\n      iszero\n      dup2\n      mstore\n      pop\n        /* \"degreeVerification.sol\":949:956  degrees */\n      0x01\n        /* \"degreeVerification.sol\":949:969  degrees[_rollNumber] */\n      0x00\n        /* \"degreeVerification.sol\":957:968  _rollNumber */\n      dup4\n        /* \"degreeVerification.sol\":949:969  degrees[_rollNumber] */\n      dup2\n      mstore\n      0x20\n      add\n      swap1\n      dup2\n      mstore\n      0x20\n      add\n      0x00\n      keccak256\n        /* \"degreeVerification.sol\":949:1005  degrees[_rollNumber] = Degree(_name, _rollNumber, false) */\n      0x00\n      dup3\n      add\n      mload\n      dup2\n      0x00\n      add\n      swap1\n      dup2\n      tag_44\n      swap2\n      swap1\n      tag_45\n      jump\t// in\n    tag_44:\n      pop\n      0x20\n      dup3\n      add\n      mload\n      dup2\n      0x01\n      add\n      sstore\n      0x40\n      dup3\n      add\n      mload\n      dup2\n      0x02\n      add\n      exp(0x0100, 0x00)\n      dup2\n      sload\n      dup2\n      0xff\n      mul\n      not\n      and\n      swap1\n      dup4\n      iszero\n      iszero\n      mul\n      or\n      swap1\n      sstore\n      pop\n      swap1\n      pop\n      pop\n        /* \"degreeVerification.sol\":1033:1044  _rollNumber */\n      dup1\n        /* \"degreeVerification.sol\":1021:1052  DegreeAdded(_rollNumber, _name) */\n      0xb91ab895bbcbd9b2fb90d1d65f6602da5d7a5da3fe95af5c112742c386fc03ff\n        /* \"degreeVerification.sol\":1046:1051  _name */\n      dup4\n        /* \"degreeVerification.sol\":1021:1052  DegreeAdded(_rollNumber, _name) */\n      mload(0x40)\n      tag_46\n      swap2\n      swap1\n      tag_47\n      jump\t// in\n    tag_46:\n      mload(0x40)\n      dup1\n      swap2\n      sub\n      swap1\n      log2\n        /* \"degreeVerification.sol\":615:1060  function addDegree(string memory _name, uint256 _rollNumber) public onlyAdmin {... */\n      pop\n      pop\n      jump\t// out\n        /* \"degreeVerification.sol\":1068:1392  function verifyDegree(uint256 _rollNumber) public view returns (string memory name, bool isVerified) {... */\n    tag_15:\n        /* \"degreeVerification.sol\":1132:1150  string memory name */\n      0x60\n        /* \"degreeVerification.sol\":1152:1167  bool isVerified */\n      0x00\n        /* \"degreeVerification.sol\":1180:1200  Degree memory degree */\n      dup1\n        /* \"degreeVerification.sol\":1203:1210  degrees */\n      0x01\n        /* \"degreeVerification.sol\":1203:1223  degrees[_rollNumber] */\n      0x00\n        /* \"degreeVerification.sol\":1211:1222  _rollNumber */\n      dup6\n        /* \"degreeVerification.sol\":1203:1223  degrees[_rollNumber] */\n      dup2\n      mstore\n      0x20\n      add\n      swap1\n      dup2\n      mstore\n      0x20\n      add\n      0x00\n      keccak256\n        /* \"degreeVerification.sol\":1180:1223  Degree memory degree = degrees[_rollNumber] */\n      mload(0x40)\n      dup1\n      0x60\n      add\n      0x40\n      mstore\n      swap1\n      dup2\n      0x00\n      dup3\n      add\n      dup1\n      sload\n      tag_49\n      swap1\n      tag_50\n      jump\t// in\n    tag_49:\n      dup1\n      0x1f\n      add\n      0x20\n      dup1\n      swap2\n      div\n      mul\n      0x20\n      add\n      mload(0x40)\n      swap1\n      dup2\n      add\n      0x40\n      mstore\n      dup1\n      swap3\n      swap2\n      swap1\n      dup2\n      dup2\n      mstore\n      0x20\n      add\n      dup3\n      dup1\n      sload\n      tag_51\n      swap1\n      tag_50\n      jump\t// in\n    tag_51:\n      dup1\n      iszero\n      tag_52\n      jumpi\n      dup1\n      0x1f\n      lt\n      tag_53\n      jumpi\n      0x0100\n      dup1\n      dup4\n      sload\n      div\n      mul\n      dup4\n      mstore\n      swap2\n      0x20\n      add\n      swap2\n      jump(tag_52)\n    tag_53:\n      dup3\n      add\n      swap2\n      swap1\n      0x00\n      mstore\n      keccak256(0x00, 0x20)\n      swap1\n    tag_54:\n      dup2\n      sload\n      dup2\n      mstore\n      swap1\n      0x01\n      add\n      swap1\n      0x20\n      add\n      dup1\n      dup4\n      gt\n      tag_54\n      jumpi\n      dup3\n      swap1\n      sub\n      0x1f\n      and\n      dup3\n      add\n      swap2\n    tag_52:\n      pop\n      pop\n      pop\n      pop\n      pop\n      dup2\n      mstore\n      0x20\n      add\n      0x01\n      dup3\n      add\n      sload\n      dup2\n      mstore\n      0x20\n      add\n      0x02\n      dup3\n      add\n      0x00\n      swap1\n      sload\n      swap1\n      0x0100\n      exp\n      swap1\n      div\n      0xff\n      and\n      iszero\n      iszero\n      iszero\n      iszero\n      dup2\n      mstore\n      pop\n      pop\n      swap1\n      pop\n        /* \"degreeVerification.sol\":1263:1264  0 */\n      0x00\n        /* \"degreeVerification.sol\":1242:1248  degree */\n      dup2\n        /* \"degreeVerification.sol\":1242:1259  degree.rollNumber */\n      0x20\n      add\n      mload\n        /* \"degreeVerification.sol\":1242:1264  degree.rollNumber != 0 */\n      sub\n        /* \"degreeVerification.sol\":1234:1312  require(degree.rollNumber != 0, \"Degree with this roll number does not exist\") */\n      tag_55\n      jumpi\n      mload(0x40)\n      0x08c379a000000000000000000000000000000000000000000000000000000000\n      dup2\n      mstore\n      0x04\n      add\n      tag_56\n      swap1\n      tag_57\n      jump\t// in\n    tag_56:\n      mload(0x40)\n      dup1\n      swap2\n      sub\n      swap1\n      revert\n    tag_55:\n        /* \"degreeVerification.sol\":1332:1338  degree */\n      dup1\n        /* \"degreeVerification.sol\":1332:1343  degree.name */\n      0x00\n      add\n      mload\n        /* \"degreeVerification.sol\":1325:1343  name = degree.name */\n      swap3\n      pop\n        /* \"degreeVerification.sol\":1367:1373  degree */\n      dup1\n        /* \"degreeVerification.sol\":1367:1384  degree.isVerified */\n      0x40\n      add\n      mload\n        /* \"degreeVerification.sol\":1354:1384  isVerified = degree.isVerified */\n      swap2\n      pop\n        /* \"degreeVerification.sol\":1169:1392  {... */\n      pop\n        /* \"degreeVerification.sol\":1068:1392  function verifyDegree(uint256 _rollNumber) public view returns (string memory name, bool isVerified) {... */\n      swap2\n      pop\n      swap2\n      jump\t// out\n        /* \"degreeVerification.sol\":241:282  mapping(uint256 => Degree) public degrees */\n    tag_20:\n      mstore(0x20, 0x01)\n      dup1\n      0x00\n      mstore\n      keccak256(0x00, 0x40)\n      0x00\n      swap2\n      pop\n      swap1\n      pop\n      dup1\n      0x00\n      add\n      dup1\n      sload\n      tag_58\n      swap1\n      tag_50\n      jump\t// in\n    tag_58:\n      dup1\n      0x1f\n      add\n      0x20\n      dup1\n      swap2\n      div\n      mul\n      0x20\n      add\n      mload(0x40)\n      swap1\n      dup2\n      add\n      0x40\n      mstore\n      dup1\n      swap3\n      swap2\n      swap1\n      dup2\n      dup2\n      mstore\n      0x20\n      add\n      dup3\n      dup1\n      sload\n      tag_59\n      swap1\n      tag_50\n      jump\t// in\n    tag_59:\n      dup1\n      iszero\n      tag_60\n      jumpi\n      dup1\n      0x1f\n      lt\n      tag_61\n      jumpi\n      0x0100\n      dup1\n      dup4\n      sload\n      div\n      mul\n      dup4\n      mstore\n      swap2\n      0x20\n      add\n      swap2\n      jump(tag_60)\n    tag_61:\n      dup3\n      add\n      swap2\n      swap1\n      0x00\n      mstore\n      keccak256(0x00, 0x20)\n      swap1\n    tag_62:\n      dup2\n      sload\n      dup2\n      mstore\n      swap1\n      0x01\n      add\n      swap1\n      0x20\n      add\n      dup1\n      dup4\n      gt\n      tag_62\n      jumpi\n      dup3\n      swap1\n      sub\n      0x1f\n      and\n      dup3\n      add\n      swap2\n    tag_60:\n      pop\n      pop\n      pop\n      pop\n      pop\n      swap1\n      dup1\n      0x01\n      add\n      sload\n      swap1\n      dup1\n      0x02\n      add\n      0x00\n      swap1\n      sload\n      swap1\n      0x0100\n      exp\n      swap1\n      div\n      0xff\n      and\n      swap1\n      pop\n      dup4\n      jump\t// out\n        /* \"degreeVerification.sol\":1400:1849  function markAsVerified(uint256 _rollNumber) public onlyAdmin {... */\n    tag_25:\n        /* \"degreeVerification.sol\":484:489  admin */\n      0x00\n      dup1\n      sload\n      swap1\n      0x0100\n      exp\n      swap1\n      div\n      0xffffffffffffffffffffffffffffffffffffffff\n      and\n        /* \"degreeVerification.sol\":470:489  msg.sender == admin */\n      0xffffffffffffffffffffffffffffffffffffffff\n      and\n        /* \"degreeVerification.sol\":470:480  msg.sender */\n      caller\n        /* \"degreeVerification.sol\":470:489  msg.sender == admin */\n      0xffffffffffffffffffffffffffffffffffffffff\n      and\n      eq\n        /* \"degreeVerification.sol\":462:528  require(msg.sender == admin, \"Only admin can perform this action\") */\n      tag_64\n      jumpi\n      mload(0x40)\n      0x08c379a000000000000000000000000000000000000000000000000000000000\n      dup2\n      mstore\n      0x04\n      add\n      tag_65\n      swap1\n      tag_33\n      jump\t// in\n    tag_65:\n      mload(0x40)\n      dup1\n      swap2\n      sub\n      swap1\n      revert\n    tag_64:\n        /* \"degreeVerification.sol\":1495:1496  0 */\n      0x00\n        /* \"degreeVerification.sol\":1481:1492  _rollNumber */\n      dup2\n        /* \"degreeVerification.sol\":1481:1496  _rollNumber > 0 */\n      gt\n        /* \"degreeVerification.sol\":1473:1535  require(_rollNumber > 0, \"Roll number must be greater than 0\") */\n      tag_67\n      jumpi\n      mload(0x40)\n      0x08c379a000000000000000000000000000000000000000000000000000000000\n      dup2\n      mstore\n      0x04\n      add\n      tag_68\n      swap1\n      tag_37\n      jump\t// in\n    tag_68:\n      mload(0x40)\n      dup1\n      swap2\n      sub\n      swap1\n      revert\n    tag_67:\n        /* \"degreeVerification.sol\":1589:1590  0 */\n      0x00\n        /* \"degreeVerification.sol\":1554:1561  degrees */\n      0x01\n        /* \"degreeVerification.sol\":1554:1574  degrees[_rollNumber] */\n      0x00\n        /* \"degreeVerification.sol\":1562:1573  _rollNumber */\n      dup4\n        /* \"degreeVerification.sol\":1554:1574  degrees[_rollNumber] */\n      dup2\n      mstore\n      0x20\n      add\n      swap1\n      dup2\n      mstore\n      0x20\n      add\n      0x00\n      keccak256\n        /* \"degreeVerification.sol\":1554:1585  degrees[_rollNumber].rollNumber */\n      0x01\n      add\n      sload\n        /* \"degreeVerification.sol\":1554:1590  degrees[_rollNumber].rollNumber != 0 */\n      sub\n        /* \"degreeVerification.sol\":1546:1638  require(degrees[_rollNumber].rollNumber != 0, \"Degree with this roll number does not exist\") */\n      tag_69\n      jumpi\n      mload(0x40)\n      0x08c379a000000000000000000000000000000000000000000000000000000000\n      dup2\n      mstore\n      0x04\n      add\n      tag_70\n      swap1\n      tag_57\n      jump\t// in\n    tag_70:\n      mload(0x40)\n      dup1\n      swap2\n      sub\n      swap1\n      revert\n    tag_69:\n        /* \"degreeVerification.sol\":1658:1665  degrees */\n      0x01\n        /* \"degreeVerification.sol\":1658:1678  degrees[_rollNumber] */\n      0x00\n        /* \"degreeVerification.sol\":1666:1677  _rollNumber */\n      dup3\n        /* \"degreeVerification.sol\":1658:1678  degrees[_rollNumber] */\n      dup2\n      mstore\n      0x20\n      add\n      swap1\n      dup2\n      mstore\n      0x20\n      add\n      0x00\n      keccak256\n        /* \"degreeVerification.sol\":1658:1689  degrees[_rollNumber].isVerified */\n      0x02\n      add\n      0x00\n      swap1\n      sload\n      swap1\n      0x0100\n      exp\n      swap1\n      div\n      0xff\n      and\n        /* \"degreeVerification.sol\":1657:1689  !degrees[_rollNumber].isVerified */\n      iszero\n        /* \"degreeVerification.sol\":1649:1720  require(!degrees[_rollNumber].isVerified, \"Degree is already verified\") */\n      tag_71\n      jumpi\n      mload(0x40)\n      0x08c379a000000000000000000000000000000000000000000000000000000000\n      dup2\n      mstore\n      0x04\n      add\n      tag_72\n      swap1\n      tag_73\n      jump\t// in\n    tag_72:\n      mload(0x40)\n      dup1\n      swap2\n      sub\n      swap1\n      revert\n    tag_71:\n        /* \"degreeVerification.sol\":1767:1771  true */\n      0x01\n        /* \"degreeVerification.sol\":1733:1740  degrees */\n      dup1\n        /* \"degreeVerification.sol\":1733:1753  degrees[_rollNumber] */\n      0x00\n        /* \"degreeVerification.sol\":1741:1752  _rollNumber */\n      dup4\n        /* \"degreeVerification.sol\":1733:1753  degrees[_rollNumber] */\n      dup2\n      mstore\n      0x20\n      add\n      swap1\n      dup2\n      mstore\n      0x20\n      add\n      0x00\n      keccak256\n        /* \"degreeVerification.sol\":1733:1764  degrees[_rollNumber].isVerified */\n      0x02\n      add\n      0x00\n        /* \"degreeVerification.sol\":1733:1771  degrees[_rollNumber].isVerified = true */\n      0x0100\n      exp\n      dup2\n      sload\n      dup2\n      0xff\n      mul\n      not\n      and\n      swap1\n      dup4\n      iszero\n      iszero\n      mul\n      or\n      swap1\n      sstore\n      pop\n        /* \"degreeVerification.sol\":1802:1813  _rollNumber */\n      dup1\n        /* \"degreeVerification.sol\":1787:1841  DegreeVerified(_rollNumber, degrees[_rollNumber].name) */\n      0x452d008f2dbbd109be138f448b8a8686b6aa40adb18e59b2d22adb7df6fdaf5c\n        /* \"degreeVerification.sol\":1815:1822  degrees */\n      0x01\n        /* \"degreeVerification.sol\":1815:1835  degrees[_rollNumber] */\n      0x00\n        /* \"degreeVerification.sol\":1823:1834  _rollNumber */\n      dup5\n        /* \"degreeVerification.sol\":1815:1835  degrees[_rollNumber] */\n      dup2\n      mstore\n      0x20\n      add\n      swap1\n      dup2\n      mstore\n      0x20\n      add\n      0x00\n      keccak256\n        /* \"degreeVerification.sol\":1815:1840  degrees[_rollNumber].name */\n      0x00\n      add\n        /* \"degreeVerification.sol\":1787:1841  DegreeVerified(_rollNumber, degrees[_rollNumber].name) */\n      mload(0x40)\n      tag_74\n      swap2\n      swap1\n      tag_75\n      jump\t// in\n    tag_74:\n      mload(0x40)\n      dup1\n      swap2\n      sub\n      swap1\n      log2\n        /* \"degreeVerification.sol\":1400:1849  function markAsVerified(uint256 _rollNumber) public onlyAdmin {... */\n      pop\n      jump\t// out\n        /* \"degreeVerification.sol\":101:121  address public admin */\n    tag_27:\n      0x00\n      dup1\n      sload\n      swap1\n      0x0100\n      exp\n      swap1\n      div\n      0xffffffffffffffffffffffffffffffffffffffff\n      and\n      dup2\n      jump\t// out\n        /* \"#utility.yul\":7:82   */\n    tag_76:\n        /* \"#utility.yul\":40:46   */\n      0x00\n        /* \"#utility.yul\":73:75   */\n      0x40\n        /* \"#utility.yul\":67:76   */\n      mload\n        /* \"#utility.yul\":57:76   */\n      swap1\n      pop\n        /* \"#utility.yul\":7:82   */\n      swap1\n      jump\t// out\n        /* \"#utility.yul\":88:205   */\n    tag_77:\n        /* \"#utility.yul\":197:198   */\n      0x00\n        /* \"#utility.yul\":194:195   */\n      dup1\n        /* \"#utility.yul\":187:199   */\n      revert\n        /* \"#utility.yul\":211:328   */\n    tag_78:\n        /* \"#utility.yul\":320:321   */\n      0x00\n        /* \"#utility.yul\":317:318   */\n      dup1\n        /* \"#utility.yul\":310:322   */\n      revert\n        /* \"#utility.yul\":334:451   */\n    tag_79:\n        /* \"#utility.yul\":443:444   */\n      0x00\n        /* \"#utility.yul\":440:441   */\n      dup1\n        /* \"#utility.yul\":433:445   */\n      revert\n        /* \"#utility.yul\":457:574   */\n    tag_80:\n        /* \"#utility.yul\":566:567   */\n      0x00\n        /* \"#utility.yul\":563:564   */\n      dup1\n        /* \"#utility.yul\":556:568   */\n      revert\n        /* \"#utility.yul\":580:682   */\n    tag_81:\n        /* \"#utility.yul\":621:627   */\n      0x00\n        /* \"#utility.yul\":672:674   */\n      0x1f\n        /* \"#utility.yul\":668:675   */\n      not\n        /* \"#utility.yul\":663:665   */\n      0x1f\n        /* \"#utility.yul\":656:661   */\n      dup4\n        /* \"#utility.yul\":652:666   */\n      add\n        /* \"#utility.yul\":648:676   */\n      and\n        /* \"#utility.yul\":638:676   */\n      swap1\n      pop\n        /* \"#utility.yul\":580:682   */\n      swap2\n      swap1\n      pop\n      jump\t// out\n        /* \"#utility.yul\":688:868   */\n    tag_82:\n        /* \"#utility.yul\":736:813   */\n      0x4e487b7100000000000000000000000000000000000000000000000000000000\n        /* \"#utility.yul\":733:734   */\n      0x00\n        /* \"#utility.yul\":726:814   */\n      mstore\n        /* \"#utility.yul\":833:837   */\n      0x41\n        /* \"#utility.yul\":830:831   */\n      0x04\n        /* \"#utility.yul\":823:838   */\n      mstore\n        /* \"#utility.yul\":857:861   */\n      0x24\n        /* \"#utility.yul\":854:855   */\n      0x00\n        /* \"#utility.yul\":847:862   */\n      revert\n        /* \"#utility.yul\":874:1155   */\n    tag_83:\n        /* \"#utility.yul\":957:984   */\n      tag_140\n        /* \"#utility.yul\":979:983   */\n      dup3\n        /* \"#utility.yul\":957:984   */\n      tag_81\n      jump\t// in\n    tag_140:\n        /* \"#utility.yul\":949:955   */\n      dup2\n        /* \"#utility.yul\":945:985   */\n      add\n        /* \"#utility.yul\":1087:1093   */\n      dup2\n        /* \"#utility.yul\":1075:1085   */\n      dup2\n        /* \"#utility.yul\":1072:1094   */\n      lt\n        /* \"#utility.yul\":1051:1069   */\n      0xffffffffffffffff\n        /* \"#utility.yul\":1039:1049   */\n      dup3\n        /* \"#utility.yul\":1036:1070   */\n      gt\n        /* \"#utility.yul\":1033:1095   */\n      or\n        /* \"#utility.yul\":1030:1118   */\n      iszero\n      tag_141\n      jumpi\n        /* \"#utility.yul\":1098:1116   */\n      tag_142\n      tag_82\n      jump\t// in\n    tag_142:\n        /* \"#utility.yul\":1030:1118   */\n    tag_141:\n        /* \"#utility.yul\":1138:1148   */\n      dup1\n        /* \"#utility.yul\":1134:1136   */\n      0x40\n        /* \"#utility.yul\":1127:1149   */\n      mstore\n        /* \"#utility.yul\":917:1155   */\n      pop\n        /* \"#utility.yul\":874:1155   */\n      pop\n      pop\n      jump\t// out\n        /* \"#utility.yul\":1161:1290   */\n    tag_84:\n        /* \"#utility.yul\":1195:1201   */\n      0x00\n        /* \"#utility.yul\":1222:1242   */\n      tag_144\n      tag_76\n      jump\t// in\n    tag_144:\n        /* \"#utility.yul\":1212:1242   */\n      swap1\n      pop\n        /* \"#utility.yul\":1251:1284   */\n      tag_145\n        /* \"#utility.yul\":1279:1283   */\n      dup3\n        /* \"#utility.yul\":1271:1277   */\n      dup3\n        /* \"#utility.yul\":1251:1284   */\n      tag_83\n      jump\t// in\n    tag_145:\n        /* \"#utility.yul\":1161:1290   */\n      swap2\n      swap1\n      pop\n      jump\t// out\n        /* \"#utility.yul\":1296:1604   */\n    tag_85:\n        /* \"#utility.yul\":1358:1362   */\n      0x00\n        /* \"#utility.yul\":1448:1466   */\n      0xffffffffffffffff\n        /* \"#utility.yul\":1440:1446   */\n      dup3\n        /* \"#utility.yul\":1437:1467   */\n      gt\n        /* \"#utility.yul\":1434:1490   */\n      iszero\n      tag_147\n      jumpi\n        /* \"#utility.yul\":1470:1488   */\n      tag_148\n      tag_82\n      jump\t// in\n    tag_148:\n        /* \"#utility.yul\":1434:1490   */\n    tag_147:\n        /* \"#utility.yul\":1508:1537   */\n      tag_149\n        /* \"#utility.yul\":1530:1536   */\n      dup3\n        /* \"#utility.yul\":1508:1537   */\n      tag_81\n      jump\t// in\n    tag_149:\n        /* \"#utility.yul\":1500:1537   */\n      swap1\n      pop\n        /* \"#utility.yul\":1592:1596   */\n      0x20\n        /* \"#utility.yul\":1586:1590   */\n      dup2\n        /* \"#utility.yul\":1582:1597   */\n      add\n        /* \"#utility.yul\":1574:1597   */\n      swap1\n      pop\n        /* \"#utility.yul\":1296:1604   */\n      swap2\n      swap1\n      pop\n      jump\t// out\n        /* \"#utility.yul\":1610:1756   */\n    tag_86:\n        /* \"#utility.yul\":1707:1713   */\n      dup3\n        /* \"#utility.yul\":1702:1705   */\n      dup2\n        /* \"#utility.yul\":1697:1700   */\n      dup4\n        /* \"#utility.yul\":1684:1714   */\n      calldatacopy\n        /* \"#utility.yul\":1748:1749   */\n      0x00\n        /* \"#utility.yul\":1739:1745   */\n      dup4\n        /* \"#utility.yul\":1734:1737   */\n      dup4\n        /* \"#utility.yul\":1730:1746   */\n      add\n        /* \"#utility.yul\":1723:1750   */\n      mstore\n        /* \"#utility.yul\":1610:1756   */\n      pop\n      pop\n      pop\n      jump\t// out\n        /* \"#utility.yul\":1762:2187   */\n    tag_87:\n        /* \"#utility.yul\":1840:1845   */\n      0x00\n        /* \"#utility.yul\":1865:1931   */\n      tag_152\n        /* \"#utility.yul\":1881:1930   */\n      tag_153\n        /* \"#utility.yul\":1923:1929   */\n      dup5\n        /* \"#utility.yul\":1881:1930   */\n      tag_85\n      jump\t// in\n    tag_153:\n        /* \"#utility.yul\":1865:1931   */\n      tag_84\n      jump\t// in\n    tag_152:\n        /* \"#utility.yul\":1856:1931   */\n      swap1\n      pop\n        /* \"#utility.yul\":1954:1960   */\n      dup3\n        /* \"#utility.yul\":1947:1952   */\n      dup2\n        /* \"#utility.yul\":1940:1961   */\n      mstore\n        /* \"#utility.yul\":1992:1996   */\n      0x20\n        /* \"#utility.yul\":1985:1990   */\n      dup2\n        /* \"#utility.yul\":1981:1997   */\n      add\n        /* \"#utility.yul\":2030:2033   */\n      dup5\n        /* \"#utility.yul\":2021:2027   */\n      dup5\n        /* \"#utility.yul\":2016:2019   */\n      dup5\n        /* \"#utility.yul\":2012:2028   */\n      add\n        /* \"#utility.yul\":2009:2034   */\n      gt\n        /* \"#utility.yul\":2006:2118   */\n      iszero\n      tag_154\n      jumpi\n        /* \"#utility.yul\":2037:2116   */\n      tag_155\n      tag_80\n      jump\t// in\n    tag_155:\n        /* \"#utility.yul\":2006:2118   */\n    tag_154:\n        /* \"#utility.yul\":2127:2181   */\n      tag_156\n        /* \"#utility.yul\":2174:2180   */\n      dup5\n        /* \"#utility.yul\":2169:2172   */\n      dup3\n        /* \"#utility.yul\":2164:2167   */\n      dup6\n        /* \"#utility.yul\":2127:2181   */\n      tag_86\n      jump\t// in\n    tag_156:\n        /* \"#utility.yul\":1846:2187   */\n      pop\n        /* \"#utility.yul\":1762:2187   */\n      swap4\n      swap3\n      pop\n      pop\n      pop\n      jump\t// out\n        /* \"#utility.yul\":2207:2547   */\n    tag_88:\n        /* \"#utility.yul\":2263:2268   */\n      0x00\n        /* \"#utility.yul\":2312:2315   */\n      dup3\n        /* \"#utility.yul\":2305:2309   */\n      0x1f\n        /* \"#utility.yul\":2297:2303   */\n      dup4\n        /* \"#utility.yul\":2293:2310   */\n      add\n        /* \"#utility.yul\":2289:2316   */\n      slt\n        /* \"#utility.yul\":2279:2401   */\n      tag_158\n      jumpi\n        /* \"#utility.yul\":2320:2399   */\n      tag_159\n      tag_79\n      jump\t// in\n    tag_159:\n        /* \"#utility.yul\":2279:2401   */\n    tag_158:\n        /* \"#utility.yul\":2437:2443   */\n      dup2\n        /* \"#utility.yul\":2424:2444   */\n      calldataload\n        /* \"#utility.yul\":2462:2541   */\n      tag_160\n        /* \"#utility.yul\":2537:2540   */\n      dup5\n        /* \"#utility.yul\":2529:2535   */\n      dup3\n        /* \"#utility.yul\":2522:2526   */\n      0x20\n        /* \"#utility.yul\":2514:2520   */\n      dup7\n        /* \"#utility.yul\":2510:2527   */\n      add\n        /* \"#utility.yul\":2462:2541   */\n      tag_87\n      jump\t// in\n    tag_160:\n        /* \"#utility.yul\":2453:2541   */\n      swap2\n      pop\n        /* \"#utility.yul\":2269:2547   */\n      pop\n        /* \"#utility.yul\":2207:2547   */\n      swap3\n      swap2\n      pop\n      pop\n      jump\t// out\n        /* \"#utility.yul\":2553:2630   */\n    tag_89:\n        /* \"#utility.yul\":2590:2597   */\n      0x00\n        /* \"#utility.yul\":2619:2624   */\n      dup2\n        /* \"#utility.yul\":2608:2624   */\n      swap1\n      pop\n        /* \"#utility.yul\":2553:2630   */\n      swap2\n      swap1\n      pop\n      jump\t// out\n        /* \"#utility.yul\":2636:2758   */\n    tag_90:\n        /* \"#utility.yul\":2709:2733   */\n      tag_163\n        /* \"#utility.yul\":2727:2732   */\n      dup2\n        /* \"#utility.yul\":2709:2733   */\n      tag_89\n      jump\t// in\n    tag_163:\n        /* \"#utility.yul\":2702:2707   */\n      dup2\n        /* \"#utility.yul\":2699:2734   */\n      eq\n        /* \"#utility.yul\":2689:2752   */\n      tag_164\n      jumpi\n        /* \"#utility.yul\":2748:2749   */\n      0x00\n        /* \"#utility.yul\":2745:2746   */\n      dup1\n        /* \"#utility.yul\":2738:2750   */\n      revert\n        /* \"#utility.yul\":2689:2752   */\n    tag_164:\n        /* \"#utility.yul\":2636:2758   */\n      pop\n      jump\t// out\n        /* \"#utility.yul\":2764:2903   */\n    tag_91:\n        /* \"#utility.yul\":2810:2815   */\n      0x00\n        /* \"#utility.yul\":2848:2854   */\n      dup2\n        /* \"#utility.yul\":2835:2855   */\n      calldataload\n        /* \"#utility.yul\":2826:2855   */\n      swap1\n      pop\n        /* \"#utility.yul\":2864:2897   */\n      tag_166\n        /* \"#utility.yul\":2891:2896   */\n      dup2\n        /* \"#utility.yul\":2864:2897   */\n      tag_90\n      jump\t// in\n    tag_166:\n        /* \"#utility.yul\":2764:2903   */\n      swap3\n      swap2\n      pop\n      pop\n      jump\t// out\n        /* \"#utility.yul\":2909:3563   */\n    tag_10:\n        /* \"#utility.yul\":2987:2993   */\n      0x00\n        /* \"#utility.yul\":2995:3001   */\n      dup1\n        /* \"#utility.yul\":3044:3046   */\n      0x40\n        /* \"#utility.yul\":3032:3041   */\n      dup4\n        /* \"#utility.yul\":3023:3030   */\n      dup6\n        /* \"#utility.yul\":3019:3042   */\n      sub\n        /* \"#utility.yul\":3015:3047   */\n      slt\n        /* \"#utility.yul\":3012:3131   */\n      iszero\n      tag_168\n      jumpi\n        /* \"#utility.yul\":3050:3129   */\n      tag_169\n      tag_77\n      jump\t// in\n    tag_169:\n        /* \"#utility.yul\":3012:3131   */\n    tag_168:\n        /* \"#utility.yul\":3198:3199   */\n      0x00\n        /* \"#utility.yul\":3187:3196   */\n      dup4\n        /* \"#utility.yul\":3183:3200   */\n      add\n        /* \"#utility.yul\":3170:3201   */\n      calldataload\n        /* \"#utility.yul\":3228:3246   */\n      0xffffffffffffffff\n        /* \"#utility.yul\":3220:3226   */\n      dup2\n        /* \"#utility.yul\":3217:3247   */\n      gt\n        /* \"#utility.yul\":3214:3331   */\n      iszero\n      tag_170\n      jumpi\n        /* \"#utility.yul\":3250:3329   */\n      tag_171\n      tag_78\n      jump\t// in\n    tag_171:\n        /* \"#utility.yul\":3214:3331   */\n    tag_170:\n        /* \"#utility.yul\":3355:3418   */\n      tag_172\n        /* \"#utility.yul\":3410:3417   */\n      dup6\n        /* \"#utility.yul\":3401:3407   */\n      dup3\n        /* \"#utility.yul\":3390:3399   */\n      dup7\n        /* \"#utility.yul\":3386:3408   */\n      add\n        /* \"#utility.yul\":3355:3418   */\n      tag_88\n      jump\t// in\n    tag_172:\n        /* \"#utility.yul\":3345:3418   */\n      swap3\n      pop\n        /* \"#utility.yul\":3141:3428   */\n      pop\n        /* \"#utility.yul\":3467:3469   */\n      0x20\n        /* \"#utility.yul\":3493:3546   */\n      tag_173\n        /* \"#utility.yul\":3538:3545   */\n      dup6\n        /* \"#utility.yul\":3529:3535   */\n      dup3\n        /* \"#utility.yul\":3518:3527   */\n      dup7\n        /* \"#utility.yul\":3514:3536   */\n      add\n        /* \"#utility.yul\":3493:3546   */\n      tag_91\n      jump\t// in\n    tag_173:\n        /* \"#utility.yul\":3483:3546   */\n      swap2\n      pop\n        /* \"#utility.yul\":3438:3556   */\n      pop\n        /* \"#utility.yul\":2909:3563   */\n      swap3\n      pop\n      swap3\n      swap1\n      pop\n      jump\t// out\n        /* \"#utility.yul\":3569:3898   */\n    tag_14:\n        /* \"#utility.yul\":3628:3634   */\n      0x00\n        /* \"#utility.yul\":3677:3679   */\n      0x20\n        /* \"#utility.yul\":3665:3674   */\n      dup3\n        /* \"#utility.yul\":3656:3663   */\n      dup5\n        /* \"#utility.yul\":3652:3675   */\n      sub\n        /* \"#utility.yul\":3648:3680   */\n      slt\n        /* \"#utility.yul\":3645:3764   */\n      iszero\n      tag_175\n      jumpi\n        /* \"#utility.yul\":3683:3762   */\n      tag_176\n      tag_77\n      jump\t// in\n    tag_176:\n        /* \"#utility.yul\":3645:3764   */\n    tag_175:\n        /* \"#utility.yul\":3803:3804   */\n      0x00\n        /* \"#utility.yul\":3828:3881   */\n      tag_177\n        /* \"#utility.yul\":3873:3880   */\n      dup5\n        /* \"#utility.yul\":3864:3870   */\n      dup3\n        /* \"#utility.yul\":3853:3862   */\n      dup6\n        /* \"#utility.yul\":3849:3871   */\n      add\n        /* \"#utility.yul\":3828:3881   */\n      tag_91\n      jump\t// in\n    tag_177:\n        /* \"#utility.yul\":3818:3881   */\n      swap2\n      pop\n        /* \"#utility.yul\":3774:3891   */\n      pop\n        /* \"#utility.yul\":3569:3898   */\n      swap3\n      swap2\n      pop\n      pop\n      jump\t// out\n        /* \"#utility.yul\":3904:4003   */\n    tag_92:\n        /* \"#utility.yul\":3956:3962   */\n      0x00\n        /* \"#utility.yul\":3990:3995   */\n      dup2\n        /* \"#utility.yul\":3984:3996   */\n      mload\n        /* \"#utility.yul\":3974:3996   */\n      swap1\n      pop\n        /* \"#utility.yul\":3904:4003   */\n      swap2\n      swap1\n      pop\n      jump\t// out\n        /* \"#utility.yul\":4009:4178   */\n    tag_93:\n        /* \"#utility.yul\":4093:4104   */\n      0x00\n        /* \"#utility.yul\":4127:4133   */\n      dup3\n        /* \"#utility.yul\":4122:4125   */\n      dup3\n        /* \"#utility.yul\":4115:4134   */\n      mstore\n        /* \"#utility.yul\":4167:4171   */\n      0x20\n        /* \"#utility.yul\":4162:4165   */\n      dup3\n        /* \"#utility.yul\":4158:4172   */\n      add\n        /* \"#utility.yul\":4143:4172   */\n      swap1\n      pop\n        /* \"#utility.yul\":4009:4178   */\n      swap3\n      swap2\n      pop\n      pop\n      jump\t// out\n        /* \"#utility.yul\":4184:4430   */\n    tag_94:\n        /* \"#utility.yul\":4265:4266   */\n      0x00\n        /* \"#utility.yul\":4275:4388   */\n    tag_181:\n        /* \"#utility.yul\":4289:4295   */\n      dup4\n        /* \"#utility.yul\":4286:4287   */\n      dup2\n        /* \"#utility.yul\":4283:4296   */\n      lt\n        /* \"#utility.yul\":4275:4388   */\n      iszero\n      tag_183\n      jumpi\n        /* \"#utility.yul\":4374:4375   */\n      dup1\n        /* \"#utility.yul\":4369:4372   */\n      dup3\n        /* \"#utility.yul\":4365:4376   */\n      add\n        /* \"#utility.yul\":4359:4377   */\n      mload\n        /* \"#utility.yul\":4355:4356   */\n      dup2\n        /* \"#utility.yul\":4350:4353   */\n      dup5\n        /* \"#utility.yul\":4346:4357   */\n      add\n        /* \"#utility.yul\":4339:4378   */\n      mstore\n        /* \"#utility.yul\":4311:4313   */\n      0x20\n        /* \"#utility.yul\":4308:4309   */\n      dup2\n        /* \"#utility.yul\":4304:4314   */\n      add\n        /* \"#utility.yul\":4299:4314   */\n      swap1\n      pop\n        /* \"#utility.yul\":4275:4388   */\n      jump(tag_181)\n    tag_183:\n        /* \"#utility.yul\":4422:4423   */\n      0x00\n        /* \"#utility.yul\":4413:4419   */\n      dup5\n        /* \"#utility.yul\":4408:4411   */\n      dup5\n        /* \"#utility.yul\":4404:4420   */\n      add\n        /* \"#utility.yul\":4397:4424   */\n      mstore\n        /* \"#utility.yul\":4246:4430   */\n      pop\n        /* \"#utility.yul\":4184:4430   */\n      pop\n      pop\n      pop\n      jump\t// out\n        /* \"#utility.yul\":4436:4813   */\n    tag_95:\n        /* \"#utility.yul\":4524:4527   */\n      0x00\n        /* \"#utility.yul\":4552:4591   */\n      tag_185\n        /* \"#utility.yul\":4585:4590   */\n      dup3\n        /* \"#utility.yul\":4552:4591   */\n      tag_92\n      jump\t// in\n    tag_185:\n        /* \"#utility.yul\":4607:4678   */\n      tag_186\n        /* \"#utility.yul\":4671:4677   */\n      dup2\n        /* \"#utility.yul\":4666:4669   */\n      dup6\n        /* \"#utility.yul\":4607:4678   */\n      tag_93\n      jump\t// in\n    tag_186:\n        /* \"#utility.yul\":4600:4678   */\n      swap4\n      pop\n        /* \"#utility.yul\":4687:4752   */\n      tag_187\n        /* \"#utility.yul\":4745:4751   */\n      dup2\n        /* \"#utility.yul\":4740:4743   */\n      dup6\n        /* \"#utility.yul\":4733:4737   */\n      0x20\n        /* \"#utility.yul\":4726:4731   */\n      dup7\n        /* \"#utility.yul\":4722:4738   */\n      add\n        /* \"#utility.yul\":4687:4752   */\n      tag_94\n      jump\t// in\n    tag_187:\n        /* \"#utility.yul\":4777:4806   */\n      tag_188\n        /* \"#utility.yul\":4799:4805   */\n      dup2\n        /* \"#utility.yul\":4777:4806   */\n      tag_81\n      jump\t// in\n    tag_188:\n        /* \"#utility.yul\":4772:4775   */\n      dup5\n        /* \"#utility.yul\":4768:4807   */\n      add\n        /* \"#utility.yul\":4761:4807   */\n      swap2\n      pop\n        /* \"#utility.yul\":4528:4813   */\n      pop\n        /* \"#utility.yul\":4436:4813   */\n      swap3\n      swap2\n      pop\n      pop\n      jump\t// out\n        /* \"#utility.yul\":4819:4909   */\n    tag_96:\n        /* \"#utility.yul\":4853:4860   */\n      0x00\n        /* \"#utility.yul\":4896:4901   */\n      dup2\n        /* \"#utility.yul\":4889:4902   */\n      iszero\n        /* \"#utility.yul\":4882:4903   */\n      iszero\n        /* \"#utility.yul\":4871:4903   */\n      swap1\n      pop\n        /* \"#utility.yul\":4819:4909   */\n      swap2\n      swap1\n      pop\n      jump\t// out\n        /* \"#utility.yul\":4915:5024   */\n    tag_97:\n        /* \"#utility.yul\":4996:5017   */\n      tag_191\n        /* \"#utility.yul\":5011:5016   */\n      dup2\n        /* \"#utility.yul\":4996:5017   */\n      tag_96\n      jump\t// in\n    tag_191:\n        /* \"#utility.yul\":4991:4994   */\n      dup3\n        /* \"#utility.yul\":4984:5018   */\n      mstore\n        /* \"#utility.yul\":4915:5024   */\n      pop\n      pop\n      jump\t// out\n        /* \"#utility.yul\":5030:5441   */\n    tag_17:\n        /* \"#utility.yul\":5165:5169   */\n      0x00\n        /* \"#utility.yul\":5203:5205   */\n      0x40\n        /* \"#utility.yul\":5192:5201   */\n      dup3\n        /* \"#utility.yul\":5188:5206   */\n      add\n        /* \"#utility.yul\":5180:5206   */\n      swap1\n      pop\n        /* \"#utility.yul\":5252:5261   */\n      dup2\n        /* \"#utility.yul\":5246:5250   */\n      dup2\n        /* \"#utility.yul\":5242:5262   */\n      sub\n        /* \"#utility.yul\":5238:5239   */\n      0x00\n        /* \"#utility.yul\":5227:5236   */\n      dup4\n        /* \"#utility.yul\":5223:5240   */\n      add\n        /* \"#utility.yul\":5216:5263   */\n      mstore\n        /* \"#utility.yul\":5280:5358   */\n      tag_193\n        /* \"#utility.yul\":5353:5357   */\n      dup2\n        /* \"#utility.yul\":5344:5350   */\n      dup6\n        /* \"#utility.yul\":5280:5358   */\n      tag_95\n      jump\t// in\n    tag_193:\n        /* \"#utility.yul\":5272:5358   */\n      swap1\n      pop\n        /* \"#utility.yul\":5368:5434   */\n      tag_194\n        /* \"#utility.yul\":5430:5432   */\n      0x20\n        /* \"#utility.yul\":5419:5428   */\n      dup4\n        /* \"#utility.yul\":5415:5433   */\n      add\n        /* \"#utility.yul\":5406:5412   */\n      dup5\n        /* \"#utility.yul\":5368:5434   */\n      tag_97\n      jump\t// in\n    tag_194:\n        /* \"#utility.yul\":5030:5441   */\n      swap4\n      swap3\n      pop\n      pop\n      pop\n      jump\t// out\n        /* \"#utility.yul\":5447:5565   */\n    tag_98:\n        /* \"#utility.yul\":5534:5558   */\n      tag_196\n        /* \"#utility.yul\":5552:5557   */\n      dup2\n        /* \"#utility.yul\":5534:5558   */\n      tag_89\n      jump\t// in\n    tag_196:\n        /* \"#utility.yul\":5529:5532   */\n      dup3\n        /* \"#utility.yul\":5522:5559   */\n      mstore\n        /* \"#utility.yul\":5447:5565   */\n      pop\n      pop\n      jump\t// out\n        /* \"#utility.yul\":5571:6092   */\n    tag_22:\n        /* \"#utility.yul\":5734:5738   */\n      0x00\n        /* \"#utility.yul\":5772:5774   */\n      0x60\n        /* \"#utility.yul\":5761:5770   */\n      dup3\n        /* \"#utility.yul\":5757:5775   */\n      add\n        /* \"#utility.yul\":5749:5775   */\n      swap1\n      pop\n        /* \"#utility.yul\":5821:5830   */\n      dup2\n        /* \"#utility.yul\":5815:5819   */\n      dup2\n        /* \"#utility.yul\":5811:5831   */\n      sub\n        /* \"#utility.yul\":5807:5808   */\n      0x00\n        /* \"#utility.yul\":5796:5805   */\n      dup4\n        /* \"#utility.yul\":5792:5809   */\n      add\n        /* \"#utility.yul\":5785:5832   */\n      mstore\n        /* \"#utility.yul\":5849:5927   */\n      tag_198\n        /* \"#utility.yul\":5922:5926   */\n      dup2\n        /* \"#utility.yul\":5913:5919   */\n      dup7\n        /* \"#utility.yul\":5849:5927   */\n      tag_95\n      jump\t// in\n    tag_198:\n        /* \"#utility.yul\":5841:5927   */\n      swap1\n      pop\n        /* \"#utility.yul\":5937:6009   */\n      tag_199\n        /* \"#utility.yul\":6005:6007   */\n      0x20\n        /* \"#utility.yul\":5994:6003   */\n      dup4\n        /* \"#utility.yul\":5990:6008   */\n      add\n        /* \"#utility.yul\":5981:5987   */\n      dup6\n        /* \"#utility.yul\":5937:6009   */\n      tag_98\n      jump\t// in\n    tag_199:\n        /* \"#utility.yul\":6019:6085   */\n      tag_200\n        /* \"#utility.yul\":6081:6083   */\n      0x40\n        /* \"#utility.yul\":6070:6079   */\n      dup4\n        /* \"#utility.yul\":6066:6084   */\n      add\n        /* \"#utility.yul\":6057:6063   */\n      dup5\n        /* \"#utility.yul\":6019:6085   */\n      tag_97\n      jump\t// in\n    tag_200:\n        /* \"#utility.yul\":5571:6092   */\n      swap5\n      swap4\n      pop\n      pop\n      pop\n      pop\n      jump\t// out\n        /* \"#utility.yul\":6098:6224   */\n    tag_99:\n        /* \"#utility.yul\":6135:6142   */\n      0x00\n        /* \"#utility.yul\":6175:6217   */\n      0xffffffffffffffffffffffffffffffffffffffff\n        /* \"#utility.yul\":6168:6173   */\n      dup3\n        /* \"#utility.yul\":6164:6218   */\n      and\n        /* \"#utility.yul\":6153:6218   */\n      swap1\n      pop\n        /* \"#utility.yul\":6098:6224   */\n      swap2\n      swap1\n      pop\n      jump\t// out\n        /* \"#utility.yul\":6230:6326   */\n    tag_100:\n        /* \"#utility.yul\":6267:6274   */\n      0x00\n        /* \"#utility.yul\":6296:6320   */\n      tag_203\n        /* \"#utility.yul\":6314:6319   */\n      dup3\n        /* \"#utility.yul\":6296:6320   */\n      tag_99\n      jump\t// in\n    tag_203:\n        /* \"#utility.yul\":6285:6320   */\n      swap1\n      pop\n        /* \"#utility.yul\":6230:6326   */\n      swap2\n      swap1\n      pop\n      jump\t// out\n        /* \"#utility.yul\":6332:6450   */\n    tag_101:\n        /* \"#utility.yul\":6419:6443   */\n      tag_205\n        /* \"#utility.yul\":6437:6442   */\n      dup2\n        /* \"#utility.yul\":6419:6443   */\n      tag_100\n      jump\t// in\n    tag_205:\n        /* \"#utility.yul\":6414:6417   */\n      dup3\n        /* \"#utility.yul\":6407:6444   */\n      mstore\n        /* \"#utility.yul\":6332:6450   */\n      pop\n      pop\n      jump\t// out\n        /* \"#utility.yul\":6456:6678   */\n    tag_29:\n        /* \"#utility.yul\":6549:6553   */\n      0x00\n        /* \"#utility.yul\":6587:6589   */\n      0x20\n        /* \"#utility.yul\":6576:6585   */\n      dup3\n        /* \"#utility.yul\":6572:6590   */\n      add\n        /* \"#utility.yul\":6564:6590   */\n      swap1\n      pop\n        /* \"#utility.yul\":6600:6671   */\n      tag_207\n        /* \"#utility.yul\":6668:6669   */\n      0x00\n        /* \"#utility.yul\":6657:6666   */\n      dup4\n        /* \"#utility.yul\":6653:6670   */\n      add\n        /* \"#utility.yul\":6644:6650   */\n      dup5\n        /* \"#utility.yul\":6600:6671   */\n      tag_101\n      jump\t// in\n    tag_207:\n        /* \"#utility.yul\":6456:6678   */\n      swap3\n      swap2\n      pop\n      pop\n      jump\t// out\n        /* \"#utility.yul\":6684:6905   */\n    tag_102:\n        /* \"#utility.yul\":6824:6858   */\n      0x4f6e6c792061646d696e2063616e20706572666f726d20746869732061637469\n        /* \"#utility.yul\":6820:6821   */\n      0x00\n        /* \"#utility.yul\":6812:6818   */\n      dup3\n        /* \"#utility.yul\":6808:6822   */\n      add\n        /* \"#utility.yul\":6801:6859   */\n      mstore\n        /* \"#utility.yul\":6893:6897   */\n      0x6f6e000000000000000000000000000000000000000000000000000000000000\n        /* \"#utility.yul\":6888:6890   */\n      0x20\n        /* \"#utility.yul\":6880:6886   */\n      dup3\n        /* \"#utility.yul\":6876:6891   */\n      add\n        /* \"#utility.yul\":6869:6898   */\n      mstore\n        /* \"#utility.yul\":6684:6905   */\n      pop\n      jump\t// out\n        /* \"#utility.yul\":6911:7277   */\n    tag_103:\n        /* \"#utility.yul\":7053:7056   */\n      0x00\n        /* \"#utility.yul\":7074:7141   */\n      tag_210\n        /* \"#utility.yul\":7138:7140   */\n      0x22\n        /* \"#utility.yul\":7133:7136   */\n      dup4\n        /* \"#utility.yul\":7074:7141   */\n      tag_93\n      jump\t// in\n    tag_210:\n        /* \"#utility.yul\":7067:7141   */\n      swap2\n      pop\n        /* \"#utility.yul\":7150:7243   */\n      tag_211\n        /* \"#utility.yul\":7239:7242   */\n      dup3\n        /* \"#utility.yul\":7150:7243   */\n      tag_102\n      jump\t// in\n    tag_211:\n        /* \"#utility.yul\":7268:7270   */\n      0x40\n        /* \"#utility.yul\":7263:7266   */\n      dup3\n        /* \"#utility.yul\":7259:7271   */\n      add\n        /* \"#utility.yul\":7252:7271   */\n      swap1\n      pop\n        /* \"#utility.yul\":6911:7277   */\n      swap2\n      swap1\n      pop\n      jump\t// out\n        /* \"#utility.yul\":7283:7702   */\n    tag_33:\n        /* \"#utility.yul\":7449:7453   */\n      0x00\n        /* \"#utility.yul\":7487:7489   */\n      0x20\n        /* \"#utility.yul\":7476:7485   */\n      dup3\n        /* \"#utility.yul\":7472:7490   */\n      add\n        /* \"#utility.yul\":7464:7490   */\n      swap1\n      pop\n        /* \"#utility.yul\":7536:7545   */\n      dup2\n        /* \"#utility.yul\":7530:7534   */\n      dup2\n        /* \"#utility.yul\":7526:7546   */\n      sub\n        /* \"#utility.yul\":7522:7523   */\n      0x00\n        /* \"#utility.yul\":7511:7520   */\n      dup4\n        /* \"#utility.yul\":7507:7524   */\n      add\n        /* \"#utility.yul\":7500:7547   */\n      mstore\n        /* \"#utility.yul\":7564:7695   */\n      tag_213\n        /* \"#utility.yul\":7690:7694   */\n      dup2\n        /* \"#utility.yul\":7564:7695   */\n      tag_103\n      jump\t// in\n    tag_213:\n        /* \"#utility.yul\":7556:7695   */\n      swap1\n      pop\n        /* \"#utility.yul\":7283:7702   */\n      swap2\n      swap1\n      pop\n      jump\t// out\n        /* \"#utility.yul\":7708:7929   */\n    tag_104:\n        /* \"#utility.yul\":7848:7882   */\n      0x526f6c6c206e756d626572206d7573742062652067726561746572207468616e\n        /* \"#utility.yul\":7844:7845   */\n      0x00\n        /* \"#utility.yul\":7836:7842   */\n      dup3\n        /* \"#utility.yul\":7832:7846   */\n      add\n        /* \"#utility.yul\":7825:7883   */\n      mstore\n        /* \"#utility.yul\":7917:7921   */\n      0x2030000000000000000000000000000000000000000000000000000000000000\n        /* \"#utility.yul\":7912:7914   */\n      0x20\n        /* \"#utility.yul\":7904:7910   */\n      dup3\n        /* \"#utility.yul\":7900:7915   */\n      add\n        /* \"#utility.yul\":7893:7922   */\n      mstore\n        /* \"#utility.yul\":7708:7929   */\n      pop\n      jump\t// out\n        /* \"#utility.yul\":7935:8301   */\n    tag_105:\n        /* \"#utility.yul\":8077:8080   */\n      0x00\n        /* \"#utility.yul\":8098:8165   */\n      tag_216\n        /* \"#utility.yul\":8162:8164   */\n      0x22\n        /* \"#utility.yul\":8157:8160   */\n      dup4\n        /* \"#utility.yul\":8098:8165   */\n      tag_93\n      jump\t// in\n    tag_216:\n        /* \"#utility.yul\":8091:8165   */\n      swap2\n      pop\n        /* \"#utility.yul\":8174:8267   */\n      tag_217\n        /* \"#utility.yul\":8263:8266   */\n      dup3\n        /* \"#utility.yul\":8174:8267   */\n      tag_104\n      jump\t// in\n    tag_217:\n        /* \"#utility.yul\":8292:8294   */\n      0x40\n        /* \"#utility.yul\":8287:8290   */\n      dup3\n        /* \"#utility.yul\":8283:8295   */\n      add\n        /* \"#utility.yul\":8276:8295   */\n      swap1\n      pop\n        /* \"#utility.yul\":7935:8301   */\n      swap2\n      swap1\n      pop\n      jump\t// out\n        /* \"#utility.yul\":8307:8726   */\n    tag_37:\n        /* \"#utility.yul\":8473:8477   */\n      0x00\n        /* \"#utility.yul\":8511:8513   */\n      0x20\n        /* \"#utility.yul\":8500:8509   */\n      dup3\n        /* \"#utility.yul\":8496:8514   */\n      add\n        /* \"#utility.yul\":8488:8514   */\n      swap1\n      pop\n        /* \"#utility.yul\":8560:8569   */\n      dup2\n        /* \"#utility.yul\":8554:8558   */\n      dup2\n        /* \"#utility.yul\":8550:8570   */\n      sub\n        /* \"#utility.yul\":8546:8547   */\n      0x00\n        /* \"#utility.yul\":8535:8544   */\n      dup4\n        /* \"#utility.yul\":8531:8548   */\n      add\n        /* \"#utility.yul\":8524:8571   */\n      mstore\n        /* \"#utility.yul\":8588:8719   */\n      tag_219\n        /* \"#utility.yul\":8714:8718   */\n      dup2\n        /* \"#utility.yul\":8588:8719   */\n      tag_105\n      jump\t// in\n    tag_219:\n        /* \"#utility.yul\":8580:8719   */\n      swap1\n      pop\n        /* \"#utility.yul\":8307:8726   */\n      swap2\n      swap1\n      pop\n      jump\t// out\n        /* \"#utility.yul\":8732:8902   */\n    tag_106:\n        /* \"#utility.yul\":8872:8894   */\n      0x4e616d652063616e6e6f7420626520656d707479000000000000000000000000\n        /* \"#utility.yul\":8868:8869   */\n      0x00\n        /* \"#utility.yul\":8860:8866   */\n      dup3\n        /* \"#utility.yul\":8856:8870   */\n      add\n        /* \"#utility.yul\":8849:8895   */\n      mstore\n        /* \"#utility.yul\":8732:8902   */\n      pop\n      jump\t// out\n        /* \"#utility.yul\":8908:9274   */\n    tag_107:\n        /* \"#utility.yul\":9050:9053   */\n      0x00\n        /* \"#utility.yul\":9071:9138   */\n      tag_222\n        /* \"#utility.yul\":9135:9137   */\n      0x14\n        /* \"#utility.yul\":9130:9133   */\n      dup4\n        /* \"#utility.yul\":9071:9138   */\n      tag_93\n      jump\t// in\n    tag_222:\n        /* \"#utility.yul\":9064:9138   */\n      swap2\n      pop\n        /* \"#utility.yul\":9147:9240   */\n      tag_223\n        /* \"#utility.yul\":9236:9239   */\n      dup3\n        /* \"#utility.yul\":9147:9240   */\n      tag_106\n      jump\t// in\n    tag_223:\n        /* \"#utility.yul\":9265:9267   */\n      0x20\n        /* \"#utility.yul\":9260:9263   */\n      dup3\n        /* \"#utility.yul\":9256:9268   */\n      add\n        /* \"#utility.yul\":9249:9268   */\n      swap1\n      pop\n        /* \"#utility.yul\":8908:9274   */\n      swap2\n      swap1\n      pop\n      jump\t// out\n        /* \"#utility.yul\":9280:9699   */\n    tag_40:\n        /* \"#utility.yul\":9446:9450   */\n      0x00\n        /* \"#utility.yul\":9484:9486   */\n      0x20\n        /* \"#utility.yul\":9473:9482   */\n      dup3\n        /* \"#utility.yul\":9469:9487   */\n      add\n        /* \"#utility.yul\":9461:9487   */\n      swap1\n      pop\n        /* \"#utility.yul\":9533:9542   */\n      dup2\n        /* \"#utility.yul\":9527:9531   */\n      dup2\n        /* \"#utility.yul\":9523:9543   */\n      sub\n        /* \"#utility.yul\":9519:9520   */\n      0x00\n        /* \"#utility.yul\":9508:9517   */\n      dup4\n        /* \"#utility.yul\":9504:9521   */\n      add\n        /* \"#utility.yul\":9497:9544   */\n      mstore\n        /* \"#utility.yul\":9561:9692   */\n      tag_225\n        /* \"#utility.yul\":9687:9691   */\n      dup2\n        /* \"#utility.yul\":9561:9692   */\n      tag_107\n      jump\t// in\n    tag_225:\n        /* \"#utility.yul\":9553:9692   */\n      swap1\n      pop\n        /* \"#utility.yul\":9280:9699   */\n      swap2\n      swap1\n      pop\n      jump\t// out\n        /* \"#utility.yul\":9705:9935   */\n    tag_108:\n        /* \"#utility.yul\":9845:9879   */\n      0x4465677265652077697468207468697320726f6c6c206e756d62657220616c72\n        /* \"#utility.yul\":9841:9842   */\n      0x00\n        /* \"#utility.yul\":9833:9839   */\n      dup3\n        /* \"#utility.yul\":9829:9843   */\n      add\n        /* \"#utility.yul\":9822:9880   */\n      mstore\n        /* \"#utility.yul\":9914:9927   */\n      0x6561647920657869737473000000000000000000000000000000000000000000\n        /* \"#utility.yul\":9909:9911   */\n      0x20\n        /* \"#utility.yul\":9901:9907   */\n      dup3\n        /* \"#utility.yul\":9897:9912   */\n      add\n        /* \"#utility.yul\":9890:9928   */\n      mstore\n        /* \"#utility.yul\":9705:9935   */\n      pop\n      jump\t// out\n        /* \"#utility.yul\":9941:10307   */\n    tag_109:\n        /* \"#utility.yul\":10083:10086   */\n      0x00\n        /* \"#utility.yul\":10104:10171   */\n      tag_228\n        /* \"#utility.yul\":10168:10170   */\n      0x2b\n        /* \"#utility.yul\":10163:10166   */\n      dup4\n        /* \"#utility.yul\":10104:10171   */\n      tag_93\n      jump\t// in\n    tag_228:\n        /* \"#utility.yul\":10097:10171   */\n      swap2\n      pop\n        /* \"#utility.yul\":10180:10273   */\n      tag_229\n        /* \"#utility.yul\":10269:10272   */\n      dup3\n        /* \"#utility.yul\":10180:10273   */\n      tag_108\n      jump\t// in\n    tag_229:\n        /* \"#utility.yul\":10298:10300   */\n      0x40\n        /* \"#utility.yul\":10293:10296   */\n      dup3\n        /* \"#utility.yul\":10289:10301   */\n      add\n        /* \"#utility.yul\":10282:10301   */\n      swap1\n      pop\n        /* \"#utility.yul\":9941:10307   */\n      swap2\n      swap1\n      pop\n      jump\t// out\n        /* \"#utility.yul\":10313:10732   */\n    tag_43:\n        /* \"#utility.yul\":10479:10483   */\n      0x00\n        /* \"#utility.yul\":10517:10519   */\n      0x20\n        /* \"#utility.yul\":10506:10515   */\n      dup3\n        /* \"#utility.yul\":10502:10520   */\n      add\n        /* \"#utility.yul\":10494:10520   */\n      swap1\n      pop\n        /* \"#utility.yul\":10566:10575   */\n      dup2\n        /* \"#utility.yul\":10560:10564   */\n      dup2\n        /* \"#utility.yul\":10556:10576   */\n      sub\n        /* \"#utility.yul\":10552:10553   */\n      0x00\n        /* \"#utility.yul\":10541:10550   */\n      dup4\n        /* \"#utility.yul\":10537:10554   */\n      add\n        /* \"#utility.yul\":10530:10577   */\n      mstore\n        /* \"#utility.yul\":10594:10725   */\n      tag_231\n        /* \"#utility.yul\":10720:10724   */\n      dup2\n        /* \"#utility.yul\":10594:10725   */\n      tag_109\n      jump\t// in\n    tag_231:\n        /* \"#utility.yul\":10586:10725   */\n      swap1\n      pop\n        /* \"#utility.yul\":10313:10732   */\n      swap2\n      swap1\n      pop\n      jump\t// out\n        /* \"#utility.yul\":10738:10918   */\n    tag_110:\n        /* \"#utility.yul\":10786:10863   */\n      0x4e487b7100000000000000000000000000000000000000000000000000000000\n        /* \"#utility.yul\":10783:10784   */\n      0x00\n        /* \"#utility.yul\":10776:10864   */\n      mstore\n        /* \"#utility.yul\":10883:10887   */\n      0x22\n        /* \"#utility.yul\":10880:10881   */\n      0x04\n        /* \"#utility.yul\":10873:10888   */\n      mstore\n        /* \"#utility.yul\":10907:10911   */\n      0x24\n        /* \"#utility.yul\":10904:10905   */\n      0x00\n        /* \"#utility.yul\":10897:10912   */\n      revert\n        /* \"#utility.yul\":10924:11244   */\n    tag_50:\n        /* \"#utility.yul\":10968:10974   */\n      0x00\n        /* \"#utility.yul\":11005:11006   */\n      0x02\n        /* \"#utility.yul\":10999:11003   */\n      dup3\n        /* \"#utility.yul\":10995:11007   */\n      div\n        /* \"#utility.yul\":10985:11007   */\n      swap1\n      pop\n        /* \"#utility.yul\":11052:11053   */\n      0x01\n        /* \"#utility.yul\":11046:11050   */\n      dup3\n        /* \"#utility.yul\":11042:11054   */\n      and\n        /* \"#utility.yul\":11073:11091   */\n      dup1\n        /* \"#utility.yul\":11063:11144   */\n      tag_234\n      jumpi\n        /* \"#utility.yul\":11129:11133   */\n      0x7f\n        /* \"#utility.yul\":11121:11127   */\n      dup3\n        /* \"#utility.yul\":11117:11134   */\n      and\n        /* \"#utility.yul\":11107:11134   */\n      swap2\n      pop\n        /* \"#utility.yul\":11063:11144   */\n    tag_234:\n        /* \"#utility.yul\":11191:11193   */\n      0x20\n        /* \"#utility.yul\":11183:11189   */\n      dup3\n        /* \"#utility.yul\":11180:11194   */\n      lt\n        /* \"#utility.yul\":11160:11178   */\n      dup2\n        /* \"#utility.yul\":11157:11195   */\n      sub\n        /* \"#utility.yul\":11154:11238   */\n      tag_235\n      jumpi\n        /* \"#utility.yul\":11210:11228   */\n      tag_236\n      tag_110\n      jump\t// in\n    tag_236:\n        /* \"#utility.yul\":11154:11238   */\n    tag_235:\n        /* \"#utility.yul\":10975:11244   */\n      pop\n        /* \"#utility.yul\":10924:11244   */\n      swap2\n      swap1\n      pop\n      jump\t// out\n        /* \"#utility.yul\":11250:11391   */\n    tag_111:\n        /* \"#utility.yul\":11299:11303   */\n      0x00\n        /* \"#utility.yul\":11322:11325   */\n      dup2\n        /* \"#utility.yul\":11314:11325   */\n      swap1\n      pop\n        /* \"#utility.yul\":11345:11348   */\n      dup2\n        /* \"#utility.yul\":11342:11343   */\n      0x00\n        /* \"#utility.yul\":11335:11349   */\n      mstore\n        /* \"#utility.yul\":11379:11383   */\n      0x20\n        /* \"#utility.yul\":11376:11377   */\n      0x00\n        /* \"#utility.yul\":11366:11384   */\n      keccak256\n        /* \"#utility.yul\":11358:11384   */\n      swap1\n      pop\n        /* \"#utility.yul\":11250:11391   */\n      swap2\n      swap1\n      pop\n      jump\t// out\n        /* \"#utility.yul\":11397:11490   */\n    tag_112:\n        /* \"#utility.yul\":11434:11440   */\n      0x00\n        /* \"#utility.yul\":11481:11483   */\n      0x20\n        /* \"#utility.yul\":11476:11478   */\n      0x1f\n        /* \"#utility.yul\":11469:11474   */\n      dup4\n        /* \"#utility.yul\":11465:11479   */\n      add\n        /* \"#utility.yul\":11461:11484   */\n      div\n        /* \"#utility.yul\":11451:11484   */\n      swap1\n      pop\n        /* \"#utility.yul\":11397:11490   */\n      swap2\n      swap1\n      pop\n      jump\t// out\n        /* \"#utility.yul\":11496:11603   */\n    tag_113:\n        /* \"#utility.yul\":11540:11548   */\n      0x00\n        /* \"#utility.yul\":11590:11595   */\n      dup3\n        /* \"#utility.yul\":11584:11588   */\n      dup3\n        /* \"#utility.yul\":11580:11596   */\n      shl\n        /* \"#utility.yul\":11559:11596   */\n      swap1\n      pop\n        /* \"#utility.yul\":11496:11603   */\n      swap3\n      swap2\n      pop\n      pop\n      jump\t// out\n        /* \"#utility.yul\":11609:12002   */\n    tag_114:\n        /* \"#utility.yul\":11678:11684   */\n      0x00\n        /* \"#utility.yul\":11728:11729   */\n      0x08\n        /* \"#utility.yul\":11716:11726   */\n      dup4\n        /* \"#utility.yul\":11712:11730   */\n      mul\n        /* \"#utility.yul\":11751:11848   */\n      tag_241\n        /* \"#utility.yul\":11781:11847   */\n      0xffffffffffffffffffffffffffffffffffffffffffffffffffffffffffffffff\n        /* \"#utility.yul\":11770:11779   */\n      dup3\n        /* \"#utility.yul\":11751:11848   */\n      tag_113\n      jump\t// in\n    tag_241:\n        /* \"#utility.yul\":11869:11908   */\n      tag_242\n        /* \"#utility.yul\":11899:11907   */\n      dup7\n        /* \"#utility.yul\":11888:11897   */\n      dup4\n        /* \"#utility.yul\":11869:11908   */\n      tag_113\n      jump\t// in\n    tag_242:\n        /* \"#utility.yul\":11857:11908   */\n      swap6\n      pop\n        /* \"#utility.yul\":11941:11945   */\n      dup1\n        /* \"#utility.yul\":11937:11946   */\n      not\n        /* \"#utility.yul\":11930:11935   */\n      dup5\n        /* \"#utility.yul\":11926:11947   */\n      and\n        /* \"#utility.yul\":11917:11947   */\n      swap4\n      pop\n        /* \"#utility.yul\":11990:11994   */\n      dup1\n        /* \"#utility.yul\":11980:11988   */\n      dup7\n        /* \"#utility.yul\":11976:11995   */\n      and\n        /* \"#utility.yul\":11969:11974   */\n      dup5\n        /* \"#utility.yul\":11966:11996   */\n      or\n        /* \"#utility.yul\":11956:11996   */\n      swap3\n      pop\n        /* \"#utility.yul\":11685:12002   */\n      pop\n      pop\n        /* \"#utility.yul\":11609:12002   */\n      swap4\n      swap3\n      pop\n      pop\n      pop\n      jump\t// out\n        /* \"#utility.yul\":12008:12068   */\n    tag_115:\n        /* \"#utility.yul\":12036:12039   */\n      0x00\n        /* \"#utility.yul\":12057:12062   */\n      dup2\n        /* \"#utility.yul\":12050:12062   */\n      swap1\n      pop\n        /* \"#utility.yul\":12008:12068   */\n      swap2\n      swap1\n      pop\n      jump\t// out\n        /* \"#utility.yul\":12074:12216   */\n    tag_116:\n        /* \"#utility.yul\":12124:12133   */\n      0x00\n        /* \"#utility.yul\":12157:12210   */\n      tag_245\n        /* \"#utility.yul\":12175:12209   */\n      tag_246\n        /* \"#utility.yul\":12184:12208   */\n      tag_247\n        /* \"#utility.yul\":12202:12207   */\n      dup5\n        /* \"#utility.yul\":12184:12208   */\n      tag_89\n      jump\t// in\n    tag_247:\n        /* \"#utility.yul\":12175:12209   */\n      tag_115\n      jump\t// in\n    tag_246:\n        /* \"#utility.yul\":12157:12210   */\n      tag_89\n      jump\t// in\n    tag_245:\n        /* \"#utility.yul\":12144:12210   */\n      swap1\n      pop\n        /* \"#utility.yul\":12074:12216   */\n      swap2\n      swap1\n      pop\n      jump\t// out\n        /* \"#utility.yul\":12222:12297   */\n    tag_117:\n        /* \"#utility.yul\":12265:12268   */\n      0x00\n        /* \"#utility.yul\":12286:12291   */\n      dup2\n        /* \"#utility.yul\":12279:12291   */\n      swap1\n      pop\n        /* \"#utility.yul\":12222:12297   */\n      swap2\n      swap1\n      pop\n      jump\t// out\n        /* \"#utility.yul\":12303:12572   */\n    tag_118:\n        /* \"#utility.yul\":12413:12452   */\n      tag_250\n        /* \"#utility.yul\":12444:12451   */\n      dup4\n        /* \"#utility.yul\":12413:12452   */\n      tag_116\n      jump\t// in\n    tag_250:\n        /* \"#utility.yul\":12474:12565   */\n      tag_251\n        /* \"#utility.yul\":12523:12564   */\n      tag_252\n        /* \"#utility.yul\":12547:12563   */\n      dup3\n        /* \"#utility.yul\":12523:12564   */\n      tag_117\n      jump\t// in\n    tag_252:\n        /* \"#utility.yul\":12515:12521   */\n      dup5\n        /* \"#utility.yul\":12508:12512   */\n      dup5\n        /* \"#utility.yul\":12502:12513   */\n      sload\n        /* \"#utility.yul\":12474:12565   */\n      tag_114\n      jump\t// in\n    tag_251:\n        /* \"#utility.yul\":12468:12472   */\n      dup3\n        /* \"#utility.yul\":12461:12566   */\n      sstore\n        /* \"#utility.yul\":12379:12572   */\n      pop\n        /* \"#utility.yul\":12303:12572   */\n      pop\n      pop\n      pop\n      jump\t// out\n        /* \"#utility.yul\":12578:12651   */\n    tag_119:\n        /* \"#utility.yul\":12623:12626   */\n      0x00\n        /* \"#utility.yul\":12578:12651   */\n      swap1\n      jump\t// out\n        /* \"#utility.yul\":12657:12846   */\n    tag_120:\n        /* \"#utility.yul\":12734:12766   */\n      tag_255\n      tag_119\n      jump\t// in\n    tag_255:\n        /* \"#utility.yul\":12775:12840   */\n      tag_256\n        /* \"#utility.yul\":12833:12839   */\n      dup2\n        /* \"#utility.yul\":12825:12831   */\n      dup5\n        /* \"#utility.yul\":12819:12823   */\n      dup5\n        /* \"#utility.yul\":12775:12840   */\n      tag_118\n      jump\t// in\n    tag_256:\n        /* \"#utility.yul\":12710:12846   */\n      pop\n        /* \"#utility.yul\":12657:12846   */\n      pop\n      pop\n      jump\t// out\n        /* \"#utility.yul\":12852:13038   */\n    tag_121:\n        /* \"#utility.yul\":12912:13032   */\n    tag_258:\n        /* \"#utility.yul\":12929:12932   */\n      dup2\n        /* \"#utility.yul\":12922:12927   */\n      dup2\n        /* \"#utility.yul\":12919:12933   */\n      lt\n        /* \"#utility.yul\":12912:13032   */\n      iszero\n      tag_260\n      jumpi\n        /* \"#utility.yul\":12983:13022   */\n      tag_261\n        /* \"#utility.yul\":13020:13021   */\n      0x00\n        /* \"#utility.yul\":13013:13018   */\n      dup3\n        /* \"#utility.yul\":12983:13022   */\n      tag_120\n      jump\t// in\n    tag_261:\n        /* \"#utility.yul\":12956:12957   */\n      0x01\n        /* \"#utility.yul\":12949:12954   */\n      dup2\n        /* \"#utility.yul\":12945:12958   */\n      add\n        /* \"#utility.yul\":12936:12958   */\n      swap1\n      pop\n        /* \"#utility.yul\":12912:13032   */\n      jump(tag_258)\n    tag_260:\n        /* \"#utility.yul\":12852:13038   */\n      pop\n      pop\n      jump\t// out\n        /* \"#utility.yul\":13044:13587   */\n    tag_122:\n        /* \"#utility.yul\":13145:13147   */\n      0x1f\n        /* \"#utility.yul\":13140:13143   */\n      dup3\n        /* \"#utility.yul\":13137:13148   */\n      gt\n        /* \"#utility.yul\":13134:13580   */\n      iszero\n      tag_263\n      jumpi\n        /* \"#utility.yul\":13179:13217   */\n      tag_264\n        /* \"#utility.yul\":13211:13216   */\n      dup2\n        /* \"#utility.yul\":13179:13217   */\n      tag_111\n      jump\t// in\n    tag_264:\n        /* \"#utility.yul\":13263:13292   */\n      tag_265\n        /* \"#utility.yul\":13281:13291   */\n      dup5\n        /* \"#utility.yul\":13263:13292   */\n      tag_112\n      jump\t// in\n    tag_265:\n        /* \"#utility.yul\":13253:13261   */\n      dup2\n        /* \"#utility.yul\":13249:13293   */\n      add\n        /* \"#utility.yul\":13446:13448   */\n      0x20\n        /* \"#utility.yul\":13434:13444   */\n      dup6\n        /* \"#utility.yul\":13431:13449   */\n      lt\n        /* \"#utility.yul\":13428:13477   */\n      iszero\n      tag_266\n      jumpi\n        /* \"#utility.yul\":13467:13475   */\n      dup2\n        /* \"#utility.yul\":13452:13475   */\n      swap1\n      pop\n        /* \"#utility.yul\":13428:13477   */\n    tag_266:\n        /* \"#utility.yul\":13490:13570   */\n      tag_267\n        /* \"#utility.yul\":13546:13568   */\n      tag_268\n        /* \"#utility.yul\":13564:13567   */\n      dup6\n        /* \"#utility.yul\":13546:13568   */\n      tag_112\n      jump\t// in\n    tag_268:\n        /* \"#utility.yul\":13536:13544   */\n      dup4\n        /* \"#utility.yul\":13532:13569   */\n      add\n        /* \"#utility.yul\":13519:13530   */\n      dup3\n        /* \"#utility.yul\":13490:13570   */\n      tag_121\n      jump\t// in\n    tag_267:\n        /* \"#utility.yul\":13149:13580   */\n      pop\n      pop\n        /* \"#utility.yul\":13134:13580   */\n    tag_263:\n        /* \"#utility.yul\":13044:13587   */\n      pop\n      pop\n      pop\n      jump\t// out\n        /* \"#utility.yul\":13593:13710   */\n    tag_123:\n        /* \"#utility.yul\":13647:13655   */\n      0x00\n        /* \"#utility.yul\":13697:13702   */\n      dup3\n        /* \"#utility.yul\":13691:13695   */\n      dup3\n        /* \"#utility.yul\":13687:13703   */\n      shr\n        /* \"#utility.yul\":13666:13703   */\n      swap1\n      pop\n        /* \"#utility.yul\":13593:13710   */\n      swap3\n      swap2\n      pop\n      pop\n      jump\t// out\n        /* \"#utility.yul\":13716:13885   */\n    tag_124:\n        /* \"#utility.yul\":13760:13766   */\n      0x00\n        /* \"#utility.yul\":13793:13844   */\n      tag_271\n        /* \"#utility.yul\":13841:13842   */\n      0x00\n        /* \"#utility.yul\":13837:13843   */\n      not\n        /* \"#utility.yul\":13829:13834   */\n      dup5\n        /* \"#utility.yul\":13826:13827   */\n      0x08\n        /* \"#utility.yul\":13822:13835   */\n      mul\n        /* \"#utility.yul\":13793:13844   */\n      tag_123\n      jump\t// in\n    tag_271:\n        /* \"#utility.yul\":13789:13845   */\n      not\n        /* \"#utility.yul\":13874:13878   */\n      dup1\n        /* \"#utility.yul\":13868:13872   */\n      dup4\n        /* \"#utility.yul\":13864:13879   */\n      and\n        /* \"#utility.yul\":13854:13879   */\n      swap2\n      pop\n        /* \"#utility.yul\":13767:13885   */\n      pop\n        /* \"#utility.yul\":13716:13885   */\n      swap3\n      swap2\n      pop\n      pop\n      jump\t// out\n        /* \"#utility.yul\":13890:14185   */\n    tag_125:\n        /* \"#utility.yul\":13966:13970   */\n      0x00\n        /* \"#utility.yul\":14112:14141   */\n      tag_273\n        /* \"#utility.yul\":14137:14140   */\n      dup4\n        /* \"#utility.yul\":14131:14135   */\n      dup4\n        /* \"#utility.yul\":14112:14141   */\n      tag_124\n      jump\t// in\n    tag_273:\n        /* \"#utility.yul\":14104:14141   */\n      swap2\n      pop\n        /* \"#utility.yul\":14174:14177   */\n      dup3\n        /* \"#utility.yul\":14171:14172   */\n      0x02\n        /* \"#utility.yul\":14167:14178   */\n      mul\n        /* \"#utility.yul\":14161:14165   */\n      dup3\n        /* \"#utility.yul\":14158:14179   */\n      or\n        /* \"#utility.yul\":14150:14179   */\n      swap1\n      pop\n        /* \"#utility.yul\":13890:14185   */\n      swap3\n      swap2\n      pop\n      pop\n      jump\t// out\n        /* \"#utility.yul\":14190:15585   */\n    tag_45:\n        /* \"#utility.yul\":14307:14344   */\n      tag_275\n        /* \"#utility.yul\":14340:14343   */\n      dup3\n        /* \"#utility.yul\":14307:14344   */\n      tag_92\n      jump\t// in\n    tag_275:\n        /* \"#utility.yul\":14409:14427   */\n      0xffffffffffffffff\n        /* \"#utility.yul\":14401:14407   */\n      dup2\n        /* \"#utility.yul\":14398:14428   */\n      gt\n        /* \"#utility.yul\":14395:14451   */\n      iszero\n      tag_276\n      jumpi\n        /* \"#utility.yul\":14431:14449   */\n      tag_277\n      tag_82\n      jump\t// in\n    tag_277:\n        /* \"#utility.yul\":14395:14451   */\n    tag_276:\n        /* \"#utility.yul\":14475:14513   */\n      tag_278\n        /* \"#utility.yul\":14507:14511   */\n      dup3\n        /* \"#utility.yul\":14501:14512   */\n      sload\n        /* \"#utility.yul\":14475:14513   */\n      tag_50\n      jump\t// in\n    tag_278:\n        /* \"#utility.yul\":14560:14627   */\n      tag_279\n        /* \"#utility.yul\":14620:14626   */\n      dup3\n        /* \"#utility.yul\":14612:14618   */\n      dup3\n        /* \"#utility.yul\":14606:14610   */\n      dup6\n        /* \"#utility.yul\":14560:14627   */\n      tag_122\n      jump\t// in\n    tag_279:\n        /* \"#utility.yul\":14654:14655   */\n      0x00\n        /* \"#utility.yul\":14678:14682   */\n      0x20\n        /* \"#utility.yul\":14665:14682   */\n      swap1\n      pop\n        /* \"#utility.yul\":14710:14712   */\n      0x1f\n        /* \"#utility.yul\":14702:14708   */\n      dup4\n        /* \"#utility.yul\":14699:14713   */\n      gt\n        /* \"#utility.yul\":14727:14728   */\n      0x01\n        /* \"#utility.yul\":14722:15340   */\n      dup2\n      eq\n      tag_281\n      jumpi\n        /* \"#utility.yul\":15384:15385   */\n      0x00\n        /* \"#utility.yul\":15401:15407   */\n      dup5\n        /* \"#utility.yul\":15398:15475   */\n      iszero\n      tag_282\n      jumpi\n        /* \"#utility.yul\":15450:15459   */\n      dup3\n        /* \"#utility.yul\":15445:15448   */\n      dup8\n        /* \"#utility.yul\":15441:15460   */\n      add\n        /* \"#utility.yul\":15435:15461   */\n      mload\n        /* \"#utility.yul\":15426:15461   */\n      swap1\n      pop\n        /* \"#utility.yul\":15398:15475   */\n    tag_282:\n        /* \"#utility.yul\":15501:15568   */\n      tag_283\n        /* \"#utility.yul\":15561:15567   */\n      dup6\n        /* \"#utility.yul\":15554:15559   */\n      dup3\n        /* \"#utility.yul\":15501:15568   */\n      tag_125\n      jump\t// in\n    tag_283:\n        /* \"#utility.yul\":15495:15499   */\n      dup7\n        /* \"#utility.yul\":15488:15569   */\n      sstore\n        /* \"#utility.yul\":15357:15579   */\n      pop\n        /* \"#utility.yul\":14692:15579   */\n      jump(tag_280)\n        /* \"#utility.yul\":14722:15340   */\n    tag_281:\n        /* \"#utility.yul\":14774:14778   */\n      0x1f\n        /* \"#utility.yul\":14770:14779   */\n      not\n        /* \"#utility.yul\":14762:14768   */\n      dup5\n        /* \"#utility.yul\":14758:14780   */\n      and\n        /* \"#utility.yul\":14808:14845   */\n      tag_284\n        /* \"#utility.yul\":14840:14844   */\n      dup7\n        /* \"#utility.yul\":14808:14845   */\n      tag_111\n      jump\t// in\n    tag_284:\n        /* \"#utility.yul\":14867:14868   */\n      0x00\n        /* \"#utility.yul\":14881:15089   */\n    tag_285:\n        /* \"#utility.yul\":14895:14902   */\n      dup3\n        /* \"#utility.yul\":14892:14893   */\n      dup2\n        /* \"#utility.yul\":14889:14903   */\n      lt\n        /* \"#utility.yul\":14881:15089   */\n      iszero\n      tag_287\n      jumpi\n        /* \"#utility.yul\":14974:14983   */\n      dup5\n        /* \"#utility.yul\":14969:14972   */\n      dup10\n        /* \"#utility.yul\":14965:14984   */\n      add\n        /* \"#utility.yul\":14959:14985   */\n      mload\n        /* \"#utility.yul\":14951:14957   */\n      dup3\n        /* \"#utility.yul\":14944:14986   */\n      sstore\n        /* \"#utility.yul\":15025:15026   */\n      0x01\n        /* \"#utility.yul\":15017:15023   */\n      dup3\n        /* \"#utility.yul\":15013:15027   */\n      add\n        /* \"#utility.yul\":15003:15027   */\n      swap2\n      pop\n        /* \"#utility.yul\":15072:15074   */\n      0x20\n        /* \"#utility.yul\":15061:15070   */\n      dup6\n        /* \"#utility.yul\":15057:15075   */\n      add\n        /* \"#utility.yul\":15044:15075   */\n      swap5\n      pop\n        /* \"#utility.yul\":14918:14922   */\n      0x20\n        /* \"#utility.yul\":14915:14916   */\n      dup2\n        /* \"#utility.yul\":14911:14923   */\n      add\n        /* \"#utility.yul\":14906:14923   */\n      swap1\n      pop\n        /* \"#utility.yul\":14881:15089   */\n      jump(tag_285)\n    tag_287:\n        /* \"#utility.yul\":15117:15123   */\n      dup7\n        /* \"#utility.yul\":15108:15115   */\n      dup4\n        /* \"#utility.yul\":15105:15124   */\n      lt\n        /* \"#utility.yul\":15102:15281   */\n      iszero\n      tag_288\n      jumpi\n        /* \"#utility.yul\":15175:15184   */\n      dup5\n        /* \"#utility.yul\":15170:15173   */\n      dup10\n        /* \"#utility.yul\":15166:15185   */\n      add\n        /* \"#utility.yul\":15160:15186   */\n      mload\n        /* \"#utility.yul\":15218:15266   */\n      tag_289\n        /* \"#utility.yul\":15260:15264   */\n      0x1f\n        /* \"#utility.yul\":15252:15258   */\n      dup10\n        /* \"#utility.yul\":15248:15265   */\n      and\n        /* \"#utility.yul\":15237:15246   */\n      dup3\n        /* \"#utility.yul\":15218:15266   */\n      tag_124\n      jump\t// in\n    tag_289:\n        /* \"#utility.yul\":15210:15216   */\n      dup4\n        /* \"#utility.yul\":15203:15267   */\n      sstore\n        /* \"#utility.yul\":15125:15281   */\n      pop\n        /* \"#utility.yul\":15102:15281   */\n    tag_288:\n        /* \"#utility.yul\":15327:15328   */\n      0x01\n        /* \"#utility.yul\":15323:15324   */\n      0x02\n        /* \"#utility.yul\":15315:15321   */\n      dup9\n        /* \"#utility.yul\":15311:15325   */\n      mul\n        /* \"#utility.yul\":15307:15329   */\n      add\n        /* \"#utility.yul\":15301:15305   */\n      dup9\n        /* \"#utility.yul\":15294:15330   */\n      sstore\n        /* \"#utility.yul\":14729:15340   */\n      pop\n      pop\n      pop\n        /* \"#utility.yul\":14692:15579   */\n    tag_280:\n      pop\n        /* \"#utility.yul\":14282:15585   */\n      pop\n      pop\n      pop\n        /* \"#utility.yul\":14190:15585   */\n      pop\n      pop\n      jump\t// out\n        /* \"#utility.yul\":15591:15904   */\n    tag_47:\n        /* \"#utility.yul\":15704:15708   */\n      0x00\n        /* \"#utility.yul\":15742:15744   */\n      0x20\n        /* \"#utility.yul\":15731:15740   */\n      dup3\n        /* \"#utility.yul\":15727:15745   */\n      add\n        /* \"#utility.yul\":15719:15745   */\n      swap1\n      pop\n        /* \"#utility.yul\":15791:15800   */\n      dup2\n        /* \"#utility.yul\":15785:15789   */\n      dup2\n        /* \"#utility.yul\":15781:15801   */\n      sub\n        /* \"#utility.yul\":15777:15778   */\n      0x00\n        /* \"#utility.yul\":15766:15775   */\n      dup4\n        /* \"#utility.yul\":15762:15779   */\n      add\n        /* \"#utility.yul\":15755:15802   */\n      mstore\n        /* \"#utility.yul\":15819:15897   */\n      tag_291\n        /* \"#utility.yul\":15892:15896   */\n      dup2\n        /* \"#utility.yul\":15883:15889   */\n      dup5\n        /* \"#utility.yul\":15819:15897   */\n      tag_95\n      jump\t// in\n    tag_291:\n        /* \"#utility.yul\":15811:15897   */\n      swap1\n      pop\n        /* \"#utility.yul\":15591:15904   */\n      swap3\n      swap2\n      pop\n      pop\n      jump\t// out\n        /* \"#utility.yul\":15910:16140   */\n    tag_126:\n        /* \"#utility.yul\":16050:16084   */\n      0x4465677265652077697468207468697320726f6c6c206e756d62657220646f65\n        /* \"#utility.yul\":16046:16047   */\n      0x00\n        /* \"#utility.yul\":16038:16044   */\n      dup3\n        /* \"#utility.yul\":16034:16048   */\n      add\n        /* \"#utility.yul\":16027:16085   */\n      mstore\n        /* \"#utility.yul\":16119:16132   */\n      0x73206e6f74206578697374000000000000000000000000000000000000000000\n        /* \"#utility.yul\":16114:16116   */\n      0x20\n        /* \"#utility.yul\":16106:16112   */\n      dup3\n        /* \"#utility.yul\":16102:16117   */\n      add\n        /* \"#utility.yul\":16095:16133   */\n      mstore\n        /* \"#utility.yul\":15910:16140   */\n      pop\n      jump\t// out\n        /* \"#utility.yul\":16146:16512   */\n    tag_127:\n        /* \"#utility.yul\":16288:16291   */\n      0x00\n        /* \"#utility.yul\":16309:16376   */\n      tag_294\n        /* \"#utility.yul\":16373:16375   */\n      0x2b\n        /* \"#utility.yul\":16368:16371   */\n      dup4\n        /* \"#utility.yul\":16309:16376   */\n      tag_93\n      jump\t// in\n    tag_294:\n        /* \"#utility.yul\":16302:16376   */\n      swap2\n      pop\n        /* \"#utility.yul\":16385:16478   */\n      tag_295\n        /* \"#utility.yul\":16474:16477   */\n      dup3\n        /* \"#utility.yul\":16385:16478   */\n      tag_126\n      jump\t// in\n    tag_295:\n        /* \"#utility.yul\":16503:16505   */\n      0x40\n        /* \"#utility.yul\":16498:16501   */\n      dup3\n        /* \"#utility.yul\":16494:16506   */\n      add\n        /* \"#utility.yul\":16487:16506   */\n      swap1\n      pop\n        /* \"#utility.yul\":16146:16512   */\n      swap2\n      swap1\n      pop\n      jump\t// out\n        /* \"#utility.yul\":16518:16937   */\n    tag_57:\n        /* \"#utility.yul\":16684:16688   */\n      0x00\n        /* \"#utility.yul\":16722:16724   */\n      0x20\n        /* \"#utility.yul\":16711:16720   */\n      dup3\n        /* \"#utility.yul\":16707:16725   */\n      add\n        /* \"#utility.yul\":16699:16725   */\n      swap1\n      pop\n        /* \"#utility.yul\":16771:16780   */\n      dup2\n        /* \"#utility.yul\":16765:16769   */\n      dup2\n        /* \"#utility.yul\":16761:16781   */\n      sub\n        /* \"#utility.yul\":16757:16758   */\n      0x00\n        /* \"#utility.yul\":16746:16755   */\n      dup4\n        /* \"#utility.yul\":16742:16759   */\n      add\n        /* \"#utility.yul\":16735:16782   */\n      mstore\n        /* \"#utility.yul\":16799:16930   */\n      tag_297\n        /* \"#utility.yul\":16925:16929   */\n      dup2\n        /* \"#utility.yul\":16799:16930   */\n      tag_127\n      jump\t// in\n    tag_297:\n        /* \"#utility.yul\":16791:16930   */\n      swap1\n      pop\n        /* \"#utility.yul\":16518:16937   */\n      swap2\n      swap1\n      pop\n      jump\t// out\n        /* \"#utility.yul\":16943:17119   */\n    tag_128:\n        /* \"#utility.yul\":17083:17111   */\n      0x44656772656520697320616c7265616479207665726966696564000000000000\n        /* \"#utility.yul\":17079:17080   */\n      0x00\n        /* \"#utility.yul\":17071:17077   */\n      dup3\n        /* \"#utility.yul\":17067:17081   */\n      add\n        /* \"#utility.yul\":17060:17112   */\n      mstore\n        /* \"#utility.yul\":16943:17119   */\n      pop\n      jump\t// out\n        /* \"#utility.yul\":17125:17491   */\n    tag_129:\n        /* \"#utility.yul\":17267:17270   */\n      0x00\n        /* \"#utility.yul\":17288:17355   */\n      tag_300\n        /* \"#utility.yul\":17352:17354   */\n      0x1a\n        /* \"#utility.yul\":17347:17350   */\n      dup4\n        /* \"#utility.yul\":17288:17355   */\n      tag_93\n      jump\t// in\n    tag_300:\n        /* \"#utility.yul\":17281:17355   */\n      swap2\n      pop\n        /* \"#utility.yul\":17364:17457   */\n      tag_301\n        /* \"#utility.yul\":17453:17456   */\n      dup3\n        /* \"#utility.yul\":17364:17457   */\n      tag_128\n      jump\t// in\n    tag_301:\n        /* \"#utility.yul\":17482:17484   */\n      0x20\n        /* \"#utility.yul\":17477:17480   */\n      dup3\n        /* \"#utility.yul\":17473:17485   */\n      add\n        /* \"#utility.yul\":17466:17485   */\n      swap1\n      pop\n        /* \"#utility.yul\":17125:17491   */\n      swap2\n      swap1\n      pop\n      jump\t// out\n        /* \"#utility.yul\":17497:17916   */\n    tag_73:\n        /* \"#utility.yul\":17663:17667   */\n      0x00\n        /* \"#utility.yul\":17701:17703   */\n      0x20\n        /* \"#utility.yul\":17690:17699   */\n      dup3\n        /* \"#utility.yul\":17686:17704   */\n      add\n        /* \"#utility.yul\":17678:17704   */\n      swap1\n      pop\n        /* \"#utility.yul\":17750:17759   */\n      dup2\n        /* \"#utility.yul\":17744:17748   */\n      dup2\n        /* \"#utility.yul\":17740:17760   */\n      sub\n        /* \"#utility.yul\":17736:17737   */\n      0x00\n        /* \"#utility.yul\":17725:17734   */\n      dup4\n        /* \"#utility.yul\":17721:17738   */\n      add\n        /* \"#utility.yul\":17714:17761   */\n      mstore\n        /* \"#utility.yul\":17778:17909   */\n      tag_303\n        /* \"#utility.yul\":17904:17908   */\n      dup2\n        /* \"#utility.yul\":17778:17909   */\n      tag_129\n      jump\t// in\n    tag_303:\n        /* \"#utility.yul\":17770:17909   */\n      swap1\n      pop\n        /* \"#utility.yul\":17497:17916   */\n      swap2\n      swap1\n      pop\n      jump\t// out\n        /* \"#utility.yul\":17946:18777   */\n    tag_130:\n        /* \"#utility.yul\":18031:18034   */\n      0x00\n        /* \"#utility.yul\":18068:18073   */\n      dup2\n        /* \"#utility.yul\":18062:18074   */\n      sload\n        /* \"#utility.yul\":18097:18133   */\n      tag_305\n        /* \"#utility.yul\":18123:18132   */\n      dup2\n        /* \"#utility.yul\":18097:18133   */\n      tag_50\n      jump\t// in\n    tag_305:\n        /* \"#utility.yul\":18149:18220   */\n      tag_306\n        /* \"#utility.yul\":18213:18219   */\n      dup2\n        /* \"#utility.yul\":18208:18211   */\n      dup7\n        /* \"#utility.yul\":18149:18220   */\n      tag_93\n      jump\t// in\n    tag_306:\n        /* \"#utility.yul\":18142:18220   */\n      swap5\n      pop\n        /* \"#utility.yul\":18251:18252   */\n      0x01\n        /* \"#utility.yul\":18240:18249   */\n      dup3\n        /* \"#utility.yul\":18236:18253   */\n      and\n        /* \"#utility.yul\":18267:18268   */\n      0x00\n        /* \"#utility.yul\":18262:18426   */\n      dup2\n      eq\n      tag_308\n      jumpi\n        /* \"#utility.yul\":18440:18441   */\n      0x01\n        /* \"#utility.yul\":18435:18771   */\n      dup2\n      eq\n      tag_309\n      jumpi\n        /* \"#utility.yul\":18229:18771   */\n      jump(tag_307)\n        /* \"#utility.yul\":18262:18426   */\n    tag_308:\n        /* \"#utility.yul\":18346:18350   */\n      0xff\n        /* \"#utility.yul\":18342:18351   */\n      not\n        /* \"#utility.yul\":18331:18340   */\n      dup4\n        /* \"#utility.yul\":18327:18352   */\n      and\n        /* \"#utility.yul\":18322:18325   */\n      dup7\n        /* \"#utility.yul\":18315:18353   */\n      mstore\n        /* \"#utility.yul\":18406:18412   */\n      dup2\n        /* \"#utility.yul\":18399:18413   */\n      iszero\n        /* \"#utility.yul\":18392:18414   */\n      iszero\n        /* \"#utility.yul\":18386:18390   */\n      0x20\n        /* \"#utility.yul\":18382:18415   */\n      mul\n        /* \"#utility.yul\":18377:18380   */\n      dup7\n        /* \"#utility.yul\":18373:18416   */\n      add\n        /* \"#utility.yul\":18366:18416   */\n      swap4\n      pop\n        /* \"#utility.yul\":18262:18426   */\n      jump(tag_307)\n        /* \"#utility.yul\":18435:18771   */\n    tag_309:\n        /* \"#utility.yul\":18502:18540   */\n      tag_310\n        /* \"#utility.yul\":18534:18539   */\n      dup6\n        /* \"#utility.yul\":18502:18540   */\n      tag_111\n      jump\t// in\n    tag_310:\n        /* \"#utility.yul\":18562:18563   */\n      0x00\n        /* \"#utility.yul\":18576:18730   */\n    tag_311:\n        /* \"#utility.yul\":18590:18596   */\n      dup4\n        /* \"#utility.yul\":18587:18588   */\n      dup2\n        /* \"#utility.yul\":18584:18597   */\n      lt\n        /* \"#utility.yul\":18576:18730   */\n      iszero\n      tag_313\n      jumpi\n        /* \"#utility.yul\":18664:18671   */\n      dup2\n        /* \"#utility.yul\":18658:18672   */\n      sload\n        /* \"#utility.yul\":18654:18655   */\n      dup2\n        /* \"#utility.yul\":18649:18652   */\n      dup10\n        /* \"#utility.yul\":18645:18656   */\n      add\n        /* \"#utility.yul\":18638:18673   */\n      mstore\n        /* \"#utility.yul\":18714:18715   */\n      0x01\n        /* \"#utility.yul\":18705:18712   */\n      dup3\n        /* \"#utility.yul\":18701:18716   */\n      add\n        /* \"#utility.yul\":18690:18716   */\n      swap2\n      pop\n        /* \"#utility.yul\":18612:18616   */\n      0x20\n        /* \"#utility.yul\":18609:18610   */\n      dup2\n        /* \"#utility.yul\":18605:18617   */\n      add\n        /* \"#utility.yul\":18600:18617   */\n      swap1\n      pop\n        /* \"#utility.yul\":18576:18730   */\n      jump(tag_311)\n    tag_313:\n        /* \"#utility.yul\":18759:18760   */\n      dup1\n        /* \"#utility.yul\":18754:18757   */\n      dup9\n        /* \"#utility.yul\":18750:18761   */\n      add\n        /* \"#utility.yul\":18743:18761   */\n      swap6\n      pop\n        /* \"#utility.yul\":18442:18771   */\n      pop\n      pop\n        /* \"#utility.yul\":18229:18771   */\n    tag_307:\n      pop\n        /* \"#utility.yul\":18035:18777   */\n      pop\n      pop\n        /* \"#utility.yul\":17946:18777   */\n      swap3\n      swap2\n      pop\n      pop\n      jump\t// out\n        /* \"#utility.yul\":18783:19090   */\n    tag_75:\n        /* \"#utility.yul\":18893:18897   */\n      0x00\n        /* \"#utility.yul\":18931:18933   */\n      0x20\n        /* \"#utility.yul\":18920:18929   */\n      dup3\n        /* \"#utility.yul\":18916:18934   */\n      add\n        /* \"#utility.yul\":18908:18934   */\n      swap1\n      pop\n        /* \"#utility.yul\":18980:18989   */\n      dup2\n        /* \"#utility.yul\":18974:18978   */\n      dup2\n        /* \"#utility.yul\":18970:18990   */\n      sub\n        /* \"#utility.yul\":18966:18967   */\n      0x00\n        /* \"#utility.yul\":18955:18964   */\n      dup4\n        /* \"#utility.yul\":18951:18968   */\n      add\n        /* \"#utility.yul\":18944:18991   */\n      mstore\n        /* \"#utility.yul\":19008:19083   */\n      tag_315\n        /* \"#utility.yul\":19078:19082   */\n      dup2\n        /* \"#utility.yul\":19069:19075   */\n      dup5\n        /* \"#utility.yul\":19008:19083   */\n      tag_130\n      jump\t// in\n    tag_315:\n        /* \"#utility.yul\":19000:19083   */\n      swap1\n      pop\n        /* \"#utility.yul\":18783:19090   */\n      swap3\n      swap2\n      pop\n      pop\n      jump\t// out\n\n    auxdata: 0xa2646970667358221220fd915a79480564cb4f59f30844a69d6127b31851842c93a30d39acc3b9a5b54b64736f6c63430008160033\n}\n",
				"bytecode": {
					"linkReferences": {},
					"object": "608060405234801561000f575f80fd5b50335f806101000a81548173ffffffffffffffffffffffffffffffffffffffff021916908373ffffffffffffffffffffffffffffffffffffffff16021790555061115d8061005c5f395ff3fe608060405234801561000f575f80fd5b5060043610610055575f3560e01c8063067c453f1461005957806320f722a31461007557806381f1c3bc146100a6578063aa5dc083146100d8578063f851a440146100f4575b5f80fd5b610073600480360381019061006e91906108ab565b610112565b005b61008f600480360381019061008a9190610905565b610324565b60405161009d9291906109c4565b60405180910390f35b6100c060048036038101906100bb9190610905565b610452565b6040516100cf93929190610a01565b60405180910390f35b6100f260048036038101906100ed9190610905565b61050a565b005b6100fc610708565b6040516101099190610a7c565b60405180910390f35b5f8054906101000a900473ffffffffffffffffffffffffffffffffffffffff1673ffffffffffffffffffffffffffffffffffffffff163373ffffffffffffffffffffffffffffffffffffffff161461019f576040517f08c379a000000000000000000000000000000000000000000000000000000000815260040161019690610b05565b60405180910390fd5b5f81116101e1576040517f08c379a00000000000000000000000000000000000000000000000000000000081526004016101d890610b93565b60405180910390fd5b5f825111610224576040517f08c379a000000000000000000000000000000000000000000000000000000000815260040161021b90610bfb565b60405180910390fd5b5f60015f8381526020019081526020015f20600101541461027a576040517f08c379a000000000000000000000000000000000000000000000000000000000815260040161027190610c89565b60405180910390fd5b60405180606001604052808381526020018281526020015f151581525060015f8381526020019081526020015f205f820151815f0190816102bb9190610ea1565b50602082015181600101556040820151816002015f6101000a81548160ff021916908315150217905550905050807fb91ab895bbcbd9b2fb90d1d65f6602da5d7a5da3fe95af5c112742c386fc03ff836040516103189190610f70565b60405180910390a25050565b60605f8060015f8581526020019081526020015f206040518060600160405290815f8201805461035390610cd4565b80601f016020809104026020016040519081016040528092919081815260200182805461037f90610cd4565b80156103ca5780601f106103a1576101008083540402835291602001916103ca565b820191905f5260205f20905b8154815290600101906020018083116103ad57829003601f168201915b5050505050815260200160018201548152602001600282015f9054906101000a900460ff16151515158152505090505f81602001510361043f576040517f08c379a000000000000000000000000000000000000000000000000000000000815260040161043690611000565b60405180910390fd5b805f015192508060400151915050915091565b6001602052805f5260405f205f91509050805f01805461047190610cd4565b80601f016020809104026020016040519081016040528092919081815260200182805461049d90610cd4565b80156104e85780601f106104bf576101008083540402835291602001916104e8565b820191905f5260205f20905b8154815290600101906020018083116104cb57829003601f168201915b505050505090806001015490806002015f9054906101000a900460ff16905083565b5f8054906101000a900473ffffffffffffffffffffffffffffffffffffffff1673ffffffffffffffffffffffffffffffffffffffff163373ffffffffffffffffffffffffffffffffffffffff1614610597576040517f08c379a000000000000000000000000000000000000000000000000000000000815260040161058e90610b05565b60405180910390fd5b5f81116105d9576040517f08c379a00000000000000000000000000000000000000000000000000000000081526004016105d090610b93565b60405180910390fd5b5f60015f8381526020019081526020015f20600101540361062f576040517f08c379a000000000000000000000000000000000000000000000000000000000815260040161062690611000565b60405180910390fd5b60015f8281526020019081526020015f206002015f9054906101000a900460ff1615610690576040517f08c379a000000000000000000000000000000000000000000000000000000000815260040161068790611068565b60405180910390fd5b6001805f8381526020019081526020015f206002015f6101000a81548160ff021916908315150217905550807f452d008f2dbbd109be138f448b8a8686b6aa40adb18e59b2d22adb7df6fdaf5c60015f8481526020019081526020015f205f016040516106fd9190611107565b60405180910390a250565b5f8054906101000a900473ffffffffffffffffffffffffffffffffffffffff1681565b5f604051905090565b5f80fd5b5f80fd5b5f80fd5b5f80fd5b5f601f19601f8301169050919050565b7f4e487b71000000000000000000000000000000000000000000000000000000005f52604160045260245ffd5b61078a82610744565b810181811067ffffffffffffffff821117156107a9576107a8610754565b5b80604052505050565b5f6107bb61072b565b90506107c78282610781565b919050565b5f67ffffffffffffffff8211156107e6576107e5610754565b5b6107ef82610744565b9050602081019050919050565b828183375f83830152505050565b5f61081c610817846107cc565b6107b2565b90508281526020810184848401111561083857610837610740565b5b6108438482856107fc565b509392505050565b5f82601f83011261085f5761085e61073c565b5b813561086f84826020860161080a565b91505092915050565b5f819050919050565b61088a81610878565b8114610894575f80fd5b50565b5f813590506108a581610881565b92915050565b5f80604083850312156108c1576108c0610734565b5b5f83013567ffffffffffffffff8111156108de576108dd610738565b5b6108ea8582860161084b565b92505060206108fb85828601610897565b9150509250929050565b5f6020828403121561091a57610919610734565b5b5f61092784828501610897565b91505092915050565b5f81519050919050565b5f82825260208201905092915050565b5f5b8381101561096757808201518184015260208101905061094c565b5f8484015250505050565b5f61097c82610930565b610986818561093a565b935061099681856020860161094a565b61099f81610744565b840191505092915050565b5f8115159050919050565b6109be816109aa565b82525050565b5f6040820190508181035f8301526109dc8185610972565b90506109eb60208301846109b5565b9392505050565b6109fb81610878565b82525050565b5f6060820190508181035f830152610a198186610972565b9050610a2860208301856109f2565b610a3560408301846109b5565b949350505050565b5f73ffffffffffffffffffffffffffffffffffffffff82169050919050565b5f610a6682610a3d565b9050919050565b610a7681610a5c565b82525050565b5f602082019050610a8f5f830184610a6d565b92915050565b7f4f6e6c792061646d696e2063616e20706572666f726d207468697320616374695f8201527f6f6e000000000000000000000000000000000000000000000000000000000000602082015250565b5f610aef60228361093a565b9150610afa82610a95565b604082019050919050565b5f6020820190508181035f830152610b1c81610ae3565b9050919050565b7f526f6c6c206e756d626572206d7573742062652067726561746572207468616e5f8201527f2030000000000000000000000000000000000000000000000000000000000000602082015250565b5f610b7d60228361093a565b9150610b8882610b23565b604082019050919050565b5f6020820190508181035f830152610baa81610b71565b9050919050565b7f4e616d652063616e6e6f7420626520656d7074790000000000000000000000005f82015250565b5f610be560148361093a565b9150610bf082610bb1565b602082019050919050565b5f6020820190508181035f830152610c1281610bd9565b9050919050565b7f4465677265652077697468207468697320726f6c6c206e756d62657220616c725f8201527f6561647920657869737473000000000000000000000000000000000000000000602082015250565b5f610c73602b8361093a565b9150610c7e82610c19565b604082019050919050565b5f6020820190508181035f830152610ca081610c67565b9050919050565b7f4e487b71000000000000000000000000000000000000000000000000000000005f52602260045260245ffd5b5f6002820490506001821680610ceb57607f821691505b602082108103610cfe57610cfd610ca7565b5b50919050565b5f819050815f5260205f209050919050565b5f6020601f8301049050919050565b5f82821b905092915050565b5f60088302610d607fffffffffffffffffffffffffffffffffffffffffffffffffffffffffffffffff82610d25565b610d6a8683610d25565b95508019841693508086168417925050509392505050565b5f819050919050565b5f610da5610da0610d9b84610878565b610d82565b610878565b9050919050565b5f819050919050565b610dbe83610d8b565b610dd2610dca82610dac565b848454610d31565b825550505050565b5f90565b610de6610dda565b610df1818484610db5565b505050565b5b81811015610e1457610e095f82610dde565b600181019050610df7565b5050565b601f821115610e5957610e2a81610d04565b610e3384610d16565b81016020851015610e42578190505b610e56610e4e85610d16565b830182610df6565b50505b505050565b5f82821c905092915050565b5f610e795f1984600802610e5e565b1980831691505092915050565b5f610e918383610e6a565b9150826002028217905092915050565b610eaa82610930565b67ffffffffffffffff811115610ec357610ec2610754565b5b610ecd8254610cd4565b610ed8828285610e18565b5f60209050601f831160018114610f09575f8415610ef7578287015190505b610f018582610e86565b865550610f68565b601f198416610f1786610d04565b5f5b82811015610f3e57848901518255600182019150602085019450602081019050610f19565b86831015610f5b5784890151610f57601f891682610e6a565b8355505b6001600288020188555050505b505050505050565b5f6020820190508181035f830152610f888184610972565b905092915050565b7f4465677265652077697468207468697320726f6c6c206e756d62657220646f655f8201527f73206e6f74206578697374000000000000000000000000000000000000000000602082015250565b5f610fea602b8361093a565b9150610ff582610f90565b604082019050919050565b5f6020820190508181035f83015261101781610fde565b9050919050565b7f44656772656520697320616c72656164792076657269666965640000000000005f82015250565b5f611052601a8361093a565b915061105d8261101e565b602082019050919050565b5f6020820190508181035f83015261107f81611046565b9050919050565b5f815461109281610cd4565b61109c818661093a565b9450600182165f81146110b657600181146110cc576110fe565b60ff1983168652811515602002860193506110fe565b6110d585610d04565b5f5b838110156110f6578154818901526001820191506020810190506110d7565b808801955050505b50505092915050565b5f6020820190508181035f83015261111f8184611086565b90509291505056fea2646970667358221220fd915a79480564cb4f59f30844a69d6127b31851842c93a30d39acc3b9a5b54b64736f6c63430008160033",
					"opcodes": "PUSH1 0x80 PUSH1 0x40 MSTORE CALLVALUE DUP1 ISZERO PUSH2 0xF JUMPI PUSH0 DUP1 REVERT JUMPDEST POP CALLER PUSH0 DUP1 PUSH2 0x100 EXP DUP2 SLOAD DUP2 PUSH20 0xFFFFFFFFFFFFFFFFFFFFFFFFFFFFFFFFFFFFFFFF MUL NOT AND SWAP1 DUP4 PUSH20 0xFFFFFFFFFFFFFFFFFFFFFFFFFFFFFFFFFFFFFFFF AND MUL OR SWAP1 SSTORE POP PUSH2 0x115D DUP1 PUSH2 0x5C PUSH0 CODECOPY PUSH0 RETURN INVALID PUSH1 0x80 PUSH1 0x40 MSTORE CALLVALUE DUP1 ISZERO PUSH2 0xF JUMPI PUSH0 DUP1 REVERT JUMPDEST POP PUSH1 0x4 CALLDATASIZE LT PUSH2 0x55 JUMPI PUSH0 CALLDATALOAD PUSH1 0xE0 SHR DUP1 PUSH4 0x67C453F EQ PUSH2 0x59 JUMPI DUP1 PUSH4 0x20F722A3 EQ PUSH2 0x75 JUMPI DUP1 PUSH4 0x81F1C3BC EQ PUSH2 0xA6 JUMPI DUP1 PUSH4 0xAA5DC083 EQ PUSH2 0xD8 JUMPI DUP1 PUSH4 0xF851A440 EQ PUSH2 0xF4 JUMPI JUMPDEST PUSH0 DUP1 REVERT JUMPDEST PUSH2 0x73 PUSH1 0x4 DUP1 CALLDATASIZE SUB DUP2 ADD SWAP1 PUSH2 0x6E SWAP2 SWAP1 PUSH2 0x8AB JUMP JUMPDEST PUSH2 0x112 JUMP JUMPDEST STOP JUMPDEST PUSH2 0x8F PUSH1 0x4 DUP1 CALLDATASIZE SUB DUP2 ADD SWAP1 PUSH2 0x8A SWAP2 SWAP1 PUSH2 0x905 JUMP JUMPDEST PUSH2 0x324 JUMP JUMPDEST PUSH1 0x40 MLOAD PUSH2 0x9D SWAP3 SWAP2 SWAP1 PUSH2 0x9C4 JUMP JUMPDEST PUSH1 0x40 MLOAD DUP1 SWAP2 SUB SWAP1 RETURN JUMPDEST PUSH2 0xC0 PUSH1 0x4 DUP1 CALLDATASIZE SUB DUP2 ADD SWAP1 PUSH2 0xBB SWAP2 SWAP1 PUSH2 0x905 JUMP JUMPDEST PUSH2 0x452 JUMP JUMPDEST PUSH1 0x40 MLOAD PUSH2 0xCF SWAP4 SWAP3 SWAP2 SWAP1 PUSH2 0xA01 JUMP JUMPDEST PUSH1 0x40 MLOAD DUP1 SWAP2 SUB SWAP1 RETURN JUMPDEST PUSH2 0xF2 PUSH1 0x4 DUP1 CALLDATASIZE SUB DUP2 ADD SWAP1 PUSH2 0xED SWAP2 SWAP1 PUSH2 0x905 JUMP JUMPDEST PUSH2 0x50A JUMP JUMPDEST STOP JUMPDEST PUSH2 0xFC PUSH2 0x708 JUMP JUMPDEST PUSH1 0x40 MLOAD PUSH2 0x109 SWAP2 SWAP1 PUSH2 0xA7C JUMP JUMPDEST PUSH1 0x40 MLOAD DUP1 SWAP2 SUB SWAP1 RETURN JUMPDEST PUSH0 DUP1 SLOAD SWAP1 PUSH2 0x100 EXP SWAP1 DIV PUSH20 0xFFFFFFFFFFFFFFFFFFFFFFFFFFFFFFFFFFFFFFFF AND PUSH20 0xFFFFFFFFFFFFFFFFFFFFFFFFFFFFFFFFFFFFFFFF AND CALLER PUSH20 0xFFFFFFFFFFFFFFFFFFFFFFFFFFFFFFFFFFFFFFFF AND EQ PUSH2 0x19F JUMPI PUSH1 0x40 MLOAD PUSH32 0x8C379A000000000000000000000000000000000000000000000000000000000 DUP2 MSTORE PUSH1 0x4 ADD PUSH2 0x196 SWAP1 PUSH2 0xB05 JUMP JUMPDEST PUSH1 0x40 MLOAD DUP1 SWAP2 SUB SWAP1 REVERT JUMPDEST PUSH0 DUP2 GT PUSH2 0x1E1 JUMPI PUSH1 0x40 MLOAD PUSH32 0x8C379A000000000000000000000000000000000000000000000000000000000 DUP2 MSTORE PUSH1 0x4 ADD PUSH2 0x1D8 SWAP1 PUSH2 0xB93 JUMP JUMPDEST PUSH1 0x40 MLOAD DUP1 SWAP2 SUB SWAP1 REVERT JUMPDEST PUSH0 DUP3 MLOAD GT PUSH2 0x224 JUMPI PUSH1 0x40 MLOAD PUSH32 0x8C379A000000000000000000000000000000000000000000000000000000000 DUP2 MSTORE PUSH1 0x4 ADD PUSH2 0x21B SWAP1 PUSH2 0xBFB JUMP JUMPDEST PUSH1 0x40 MLOAD DUP1 SWAP2 SUB SWAP1 REVERT JUMPDEST PUSH0 PUSH1 0x1 PUSH0 DUP4 DUP2 MSTORE PUSH1 0x20 ADD SWAP1 DUP2 MSTORE PUSH1 0x20 ADD PUSH0 KECCAK256 PUSH1 0x1 ADD SLOAD EQ PUSH2 0x27A JUMPI PUSH1 0x40 MLOAD PUSH32 0x8C379A000000000000000000000000000000000000000000000000000000000 DUP2 MSTORE PUSH1 0x4 ADD PUSH2 0x271 SWAP1 PUSH2 0xC89 JUMP JUMPDEST PUSH1 0x40 MLOAD DUP1 SWAP2 SUB SWAP1 REVERT JUMPDEST PUSH1 0x40 MLOAD DUP1 PUSH1 0x60 ADD PUSH1 0x40 MSTORE DUP1 DUP4 DUP2 MSTORE PUSH1 0x20 ADD DUP3 DUP2 MSTORE PUSH1 0x20 ADD PUSH0 ISZERO ISZERO DUP2 MSTORE POP PUSH1 0x1 PUSH0 DUP4 DUP2 MSTORE PUSH1 0x20 ADD SWAP1 DUP2 MSTORE PUSH1 0x20 ADD PUSH0 KECCAK256 PUSH0 DUP3 ADD MLOAD DUP2 PUSH0 ADD SWAP1 DUP2 PUSH2 0x2BB SWAP2 SWAP1 PUSH2 0xEA1 JUMP JUMPDEST POP PUSH1 0x20 DUP3 ADD MLOAD DUP2 PUSH1 0x1 ADD SSTORE PUSH1 0x40 DUP3 ADD MLOAD DUP2 PUSH1 0x2 ADD PUSH0 PUSH2 0x100 EXP DUP2 SLOAD DUP2 PUSH1 0xFF MUL NOT AND SWAP1 DUP4 ISZERO ISZERO MUL OR SWAP1 SSTORE POP SWAP1 POP POP DUP1 PUSH32 0xB91AB895BBCBD9B2FB90D1D65F6602DA5D7A5DA3FE95AF5C112742C386FC03FF DUP4 PUSH1 0x40 MLOAD PUSH2 0x318 SWAP2 SWAP1 PUSH2 0xF70 JUMP JUMPDEST PUSH1 0x40 MLOAD DUP1 SWAP2 SUB SWAP1 LOG2 POP POP JUMP JUMPDEST PUSH1 0x60 PUSH0 DUP1 PUSH1 0x1 PUSH0 DUP6 DUP2 MSTORE PUSH1 0x20 ADD SWAP1 DUP2 MSTORE PUSH1 0x20 ADD PUSH0 KECCAK256 PUSH1 0x40 MLOAD DUP1 PUSH1 0x60 ADD PUSH1 0x40 MSTORE SWAP1 DUP2 PUSH0 DUP3 ADD DUP1 SLOAD PUSH2 0x353 SWAP1 PUSH2 0xCD4 JUMP JUMPDEST DUP1 PUSH1 0x1F ADD PUSH1 0x20 DUP1 SWAP2 DIV MUL PUSH1 0x20 ADD PUSH1 0x40 MLOAD SWAP1 DUP2 ADD PUSH1 0x40 MSTORE DUP1 SWAP3 SWAP2 SWAP1 DUP2 DUP2 MSTORE PUSH1 0x20 ADD DUP3 DUP1 SLOAD PUSH2 0x37F SWAP1 PUSH2 0xCD4 JUMP JUMPDEST DUP1 ISZERO PUSH2 0x3CA JUMPI DUP1 PUSH1 0x1F LT PUSH2 0x3A1 JUMPI PUSH2 0x100 DUP1 DUP4 SLOAD DIV MUL DUP4 MSTORE SWAP2 PUSH1 0x20 ADD SWAP2 PUSH2 0x3CA JUMP JUMPDEST DUP3 ADD SWAP2 SWAP1 PUSH0 MSTORE PUSH1 0x20 PUSH0 KECCAK256 SWAP1 JUMPDEST DUP2 SLOAD DUP2 MSTORE SWAP1 PUSH1 0x1 ADD SWAP1 PUSH1 0x20 ADD DUP1 DUP4 GT PUSH2 0x3AD JUMPI DUP3 SWAP1 SUB PUSH1 0x1F AND DUP3 ADD SWAP2 JUMPDEST POP POP POP POP POP DUP2 MSTORE PUSH1 0x20 ADD PUSH1 0x1 DUP3 ADD SLOAD DUP2 MSTORE PUSH1 0x20 ADD PUSH1 0x2 DUP3 ADD PUSH0 SWAP1 SLOAD SWAP1 PUSH2 0x100 EXP SWAP1 DIV PUSH1 0xFF AND ISZERO ISZERO ISZERO ISZERO DUP2 MSTORE POP POP SWAP1 POP PUSH0 DUP2 PUSH1 0x20 ADD MLOAD SUB PUSH2 0x43F JUMPI PUSH1 0x40 MLOAD PUSH32 0x8C379A000000000000000000000000000000000000000000000000000000000 DUP2 MSTORE PUSH1 0x4 ADD PUSH2 0x436 SWAP1 PUSH2 0x1000 JUMP JUMPDEST PUSH1 0x40 MLOAD DUP1 SWAP2 SUB SWAP1 REVERT JUMPDEST DUP1 PUSH0 ADD MLOAD SWAP3 POP DUP1 PUSH1 0x40 ADD MLOAD SWAP2 POP POP SWAP2 POP SWAP2 JUMP JUMPDEST PUSH1 0x1 PUSH1 0x20 MSTORE DUP1 PUSH0 MSTORE PUSH1 0x40 PUSH0 KECCAK256 PUSH0 SWAP2 POP SWAP1 POP DUP1 PUSH0 ADD DUP1 SLOAD PUSH2 0x471 SWAP1 PUSH2 0xCD4 JUMP JUMPDEST DUP1 PUSH1 0x1F ADD PUSH1 0x20 DUP1 SWAP2 DIV MUL PUSH1 0x20 ADD PUSH1 0x40 MLOAD SWAP1 DUP2 ADD PUSH1 0x40 MSTORE DUP1 SWAP3 SWAP2 SWAP1 DUP2 DUP2 MSTORE PUSH1 0x20 ADD DUP3 DUP1 SLOAD PUSH2 0x49D SWAP1 PUSH2 0xCD4 JUMP JUMPDEST DUP1 ISZERO PUSH2 0x4E8 JUMPI DUP1 PUSH1 0x1F LT PUSH2 0x4BF JUMPI PUSH2 0x100 DUP1 DUP4 SLOAD DIV MUL DUP4 MSTORE SWAP2 PUSH1 0x20 ADD SWAP2 PUSH2 0x4E8 JUMP JUMPDEST DUP3 ADD SWAP2 SWAP1 PUSH0 MSTORE PUSH1 0x20 PUSH0 KECCAK256 SWAP1 JUMPDEST DUP2 SLOAD DUP2 MSTORE SWAP1 PUSH1 0x1 ADD SWAP1 PUSH1 0x20 ADD DUP1 DUP4 GT PUSH2 0x4CB JUMPI DUP3 SWAP1 SUB PUSH1 0x1F AND DUP3 ADD SWAP2 JUMPDEST POP POP POP POP POP SWAP1 DUP1 PUSH1 0x1 ADD SLOAD SWAP1 DUP1 PUSH1 0x2 ADD PUSH0 SWAP1 SLOAD SWAP1 PUSH2 0x100 EXP SWAP1 DIV PUSH1 0xFF AND SWAP1 POP DUP4 JUMP JUMPDEST PUSH0 DUP1 SLOAD SWAP1 PUSH2 0x100 EXP SWAP1 DIV PUSH20 0xFFFFFFFFFFFFFFFFFFFFFFFFFFFFFFFFFFFFFFFF AND PUSH20 0xFFFFFFFFFFFFFFFFFFFFFFFFFFFFFFFFFFFFFFFF AND CALLER PUSH20 0xFFFFFFFFFFFFFFFFFFFFFFFFFFFFFFFFFFFFFFFF AND EQ PUSH2 0x597 JUMPI PUSH1 0x40 MLOAD PUSH32 0x8C379A000000000000000000000000000000000000000000000000000000000 DUP2 MSTORE PUSH1 0x4 ADD PUSH2 0x58E SWAP1 PUSH2 0xB05 JUMP JUMPDEST PUSH1 0x40 MLOAD DUP1 SWAP2 SUB SWAP1 REVERT JUMPDEST PUSH0 DUP2 GT PUSH2 0x5D9 JUMPI PUSH1 0x40 MLOAD PUSH32 0x8C379A000000000000000000000000000000000000000000000000000000000 DUP2 MSTORE PUSH1 0x4 ADD PUSH2 0x5D0 SWAP1 PUSH2 0xB93 JUMP JUMPDEST PUSH1 0x40 MLOAD DUP1 SWAP2 SUB SWAP1 REVERT JUMPDEST PUSH0 PUSH1 0x1 PUSH0 DUP4 DUP2 MSTORE PUSH1 0x20 ADD SWAP1 DUP2 MSTORE PUSH1 0x20 ADD PUSH0 KECCAK256 PUSH1 0x1 ADD SLOAD SUB PUSH2 0x62F JUMPI PUSH1 0x40 MLOAD PUSH32 0x8C379A000000000000000000000000000000000000000000000000000000000 DUP2 MSTORE PUSH1 0x4 ADD PUSH2 0x626 SWAP1 PUSH2 0x1000 JUMP JUMPDEST PUSH1 0x40 MLOAD DUP1 SWAP2 SUB SWAP1 REVERT JUMPDEST PUSH1 0x1 PUSH0 DUP3 DUP2 MSTORE PUSH1 0x20 ADD SWAP1 DUP2 MSTORE PUSH1 0x20 ADD PUSH0 KECCAK256 PUSH1 0x2 ADD PUSH0 SWAP1 SLOAD SWAP1 PUSH2 0x100 EXP SWAP1 DIV PUSH1 0xFF AND ISZERO PUSH2 0x690 JUMPI PUSH1 0x40 MLOAD PUSH32 0x8C379A000000000000000000000000000000000000000000000000000000000 DUP2 MSTORE PUSH1 0x4 ADD PUSH2 0x687 SWAP1 PUSH2 0x1068 JUMP JUMPDEST PUSH1 0x40 MLOAD DUP1 SWAP2 SUB SWAP1 REVERT JUMPDEST PUSH1 0x1 DUP1 PUSH0 DUP4 DUP2 MSTORE PUSH1 0x20 ADD SWAP1 DUP2 MSTORE PUSH1 0x20 ADD PUSH0 KECCAK256 PUSH1 0x2 ADD PUSH0 PUSH2 0x100 EXP DUP2 SLOAD DUP2 PUSH1 0xFF MUL NOT AND SWAP1 DUP4 ISZERO ISZERO MUL OR SWAP1 SSTORE POP DUP1 PUSH32 0x452D008F2DBBD109BE138F448B8A8686B6AA40ADB18E59B2D22ADB7DF6FDAF5C PUSH1 0x1 PUSH0 DUP5 DUP2 MSTORE PUSH1 0x20 ADD SWAP1 DUP2 MSTORE PUSH1 0x20 ADD PUSH0 KECCAK256 PUSH0 ADD PUSH1 0x40 MLOAD PUSH2 0x6FD SWAP2 SWAP1 PUSH2 0x1107 JUMP JUMPDEST PUSH1 0x40 MLOAD DUP1 SWAP2 SUB SWAP1 LOG2 POP JUMP JUMPDEST PUSH0 DUP1 SLOAD SWAP1 PUSH2 0x100 EXP SWAP1 DIV PUSH20 0xFFFFFFFFFFFFFFFFFFFFFFFFFFFFFFFFFFFFFFFF AND DUP2 JUMP JUMPDEST PUSH0 PUSH1 0x40 MLOAD SWAP1 POP SWAP1 JUMP JUMPDEST PUSH0 DUP1 REVERT JUMPDEST PUSH0 DUP1 REVERT JUMPDEST PUSH0 DUP1 REVERT JUMPDEST PUSH0 DUP1 REVERT JUMPDEST PUSH0 PUSH1 0x1F NOT PUSH1 0x1F DUP4 ADD AND SWAP1 POP SWAP2 SWAP1 POP JUMP JUMPDEST PUSH32 0x4E487B7100000000000000000000000000000000000000000000000000000000 PUSH0 MSTORE PUSH1 0x41 PUSH1 0x4 MSTORE PUSH1 0x24 PUSH0 REVERT JUMPDEST PUSH2 0x78A DUP3 PUSH2 0x744 JUMP JUMPDEST DUP2 ADD DUP2 DUP2 LT PUSH8 0xFFFFFFFFFFFFFFFF DUP3 GT OR ISZERO PUSH2 0x7A9 JUMPI PUSH2 0x7A8 PUSH2 0x754 JUMP JUMPDEST JUMPDEST DUP1 PUSH1 0x40 MSTORE POP POP POP JUMP JUMPDEST PUSH0 PUSH2 0x7BB PUSH2 0x72B JUMP JUMPDEST SWAP1 POP PUSH2 0x7C7 DUP3 DUP3 PUSH2 0x781 JUMP JUMPDEST SWAP2 SWAP1 POP JUMP JUMPDEST PUSH0 PUSH8 0xFFFFFFFFFFFFFFFF DUP3 GT ISZERO PUSH2 0x7E6 JUMPI PUSH2 0x7E5 PUSH2 0x754 JUMP JUMPDEST JUMPDEST PUSH2 0x7EF DUP3 PUSH2 0x744 JUMP JUMPDEST SWAP1 POP PUSH1 0x20 DUP2 ADD SWAP1 POP SWAP2 SWAP1 POP JUMP JUMPDEST DUP3 DUP2 DUP4 CALLDATACOPY PUSH0 DUP4 DUP4 ADD MSTORE POP POP POP JUMP JUMPDEST PUSH0 PUSH2 0x81C PUSH2 0x817 DUP5 PUSH2 0x7CC JUMP JUMPDEST PUSH2 0x7B2 JUMP JUMPDEST SWAP1 POP DUP3 DUP2 MSTORE PUSH1 0x20 DUP2 ADD DUP5 DUP5 DUP5 ADD GT ISZERO PUSH2 0x838 JUMPI PUSH2 0x837 PUSH2 0x740 JUMP JUMPDEST JUMPDEST PUSH2 0x843 DUP5 DUP3 DUP6 PUSH2 0x7FC JUMP JUMPDEST POP SWAP4 SWAP3 POP POP POP JUMP JUMPDEST PUSH0 DUP3 PUSH1 0x1F DUP4 ADD SLT PUSH2 0x85F JUMPI PUSH2 0x85E PUSH2 0x73C JUMP JUMPDEST JUMPDEST DUP2 CALLDATALOAD PUSH2 0x86F DUP5 DUP3 PUSH1 0x20 DUP7 ADD PUSH2 0x80A JUMP JUMPDEST SWAP2 POP POP SWAP3 SWAP2 POP POP JUMP JUMPDEST PUSH0 DUP2 SWAP1 POP SWAP2 SWAP1 POP JUMP JUMPDEST PUSH2 0x88A DUP2 PUSH2 0x878 JUMP JUMPDEST DUP2 EQ PUSH2 0x894 JUMPI PUSH0 DUP1 REVERT JUMPDEST POP JUMP JUMPDEST PUSH0 DUP2 CALLDATALOAD SWAP1 POP PUSH2 0x8A5 DUP2 PUSH2 0x881 JUMP JUMPDEST SWAP3 SWAP2 POP POP JUMP JUMPDEST PUSH0 DUP1 PUSH1 0x40 DUP4 DUP6 SUB SLT ISZERO PUSH2 0x8C1 JUMPI PUSH2 0x8C0 PUSH2 0x734 JUMP JUMPDEST JUMPDEST PUSH0 DUP4 ADD CALLDATALOAD PUSH8 0xFFFFFFFFFFFFFFFF DUP2 GT ISZERO PUSH2 0x8DE JUMPI PUSH2 0x8DD PUSH2 0x738 JUMP JUMPDEST JUMPDEST PUSH2 0x8EA DUP6 DUP3 DUP7 ADD PUSH2 0x84B JUMP JUMPDEST SWAP3 POP POP PUSH1 0x20 PUSH2 0x8FB DUP6 DUP3 DUP7 ADD PUSH2 0x897 JUMP JUMPDEST SWAP2 POP POP SWAP3 POP SWAP3 SWAP1 POP JUMP JUMPDEST PUSH0 PUSH1 0x20 DUP3 DUP5 SUB SLT ISZERO PUSH2 0x91A JUMPI PUSH2 0x919 PUSH2 0x734 JUMP JUMPDEST JUMPDEST PUSH0 PUSH2 0x927 DUP5 DUP3 DUP6 ADD PUSH2 0x897 JUMP JUMPDEST SWAP2 POP POP SWAP3 SWAP2 POP POP JUMP JUMPDEST PUSH0 DUP2 MLOAD SWAP1 POP SWAP2 SWAP1 POP JUMP JUMPDEST PUSH0 DUP3 DUP3 MSTORE PUSH1 0x20 DUP3 ADD SWAP1 POP SWAP3 SWAP2 POP POP JUMP JUMPDEST PUSH0 JUMPDEST DUP4 DUP2 LT ISZERO PUSH2 0x967 JUMPI DUP1 DUP3 ADD MLOAD DUP2 DUP5 ADD MSTORE PUSH1 0x20 DUP2 ADD SWAP1 POP PUSH2 0x94C JUMP JUMPDEST PUSH0 DUP5 DUP5 ADD MSTORE POP POP POP POP JUMP JUMPDEST PUSH0 PUSH2 0x97C DUP3 PUSH2 0x930 JUMP JUMPDEST PUSH2 0x986 DUP2 DUP6 PUSH2 0x93A JUMP JUMPDEST SWAP4 POP PUSH2 0x996 DUP2 DUP6 PUSH1 0x20 DUP7 ADD PUSH2 0x94A JUMP JUMPDEST PUSH2 0x99F DUP2 PUSH2 0x744 JUMP JUMPDEST DUP5 ADD SWAP2 POP POP SWAP3 SWAP2 POP POP JUMP JUMPDEST PUSH0 DUP2 ISZERO ISZERO SWAP1 POP SWAP2 SWAP1 POP JUMP JUMPDEST PUSH2 0x9BE DUP2 PUSH2 0x9AA JUMP JUMPDEST DUP3 MSTORE POP POP JUMP JUMPDEST PUSH0 PUSH1 0x40 DUP3 ADD SWAP1 POP DUP2 DUP2 SUB PUSH0 DUP4 ADD MSTORE PUSH2 0x9DC DUP2 DUP6 PUSH2 0x972 JUMP JUMPDEST SWAP1 POP PUSH2 0x9EB PUSH1 0x20 DUP4 ADD DUP5 PUSH2 0x9B5 JUMP JUMPDEST SWAP4 SWAP3 POP POP POP JUMP JUMPDEST PUSH2 0x9FB DUP2 PUSH2 0x878 JUMP JUMPDEST DUP3 MSTORE POP POP JUMP JUMPDEST PUSH0 PUSH1 0x60 DUP3 ADD SWAP1 POP DUP2 DUP2 SUB PUSH0 DUP4 ADD MSTORE PUSH2 0xA19 DUP2 DUP7 PUSH2 0x972 JUMP JUMPDEST SWAP1 POP PUSH2 0xA28 PUSH1 0x20 DUP4 ADD DUP6 PUSH2 0x9F2 JUMP JUMPDEST PUSH2 0xA35 PUSH1 0x40 DUP4 ADD DUP5 PUSH2 0x9B5 JUMP JUMPDEST SWAP5 SWAP4 POP POP POP POP JUMP JUMPDEST PUSH0 PUSH20 0xFFFFFFFFFFFFFFFFFFFFFFFFFFFFFFFFFFFFFFFF DUP3 AND SWAP1 POP SWAP2 SWAP1 POP JUMP JUMPDEST PUSH0 PUSH2 0xA66 DUP3 PUSH2 0xA3D JUMP JUMPDEST SWAP1 POP SWAP2 SWAP1 POP JUMP JUMPDEST PUSH2 0xA76 DUP2 PUSH2 0xA5C JUMP JUMPDEST DUP3 MSTORE POP POP JUMP JUMPDEST PUSH0 PUSH1 0x20 DUP3 ADD SWAP1 POP PUSH2 0xA8F PUSH0 DUP4 ADD DUP5 PUSH2 0xA6D JUMP JUMPDEST SWAP3 SWAP2 POP POP JUMP JUMPDEST PUSH32 0x4F6E6C792061646D696E2063616E20706572666F726D20746869732061637469 PUSH0 DUP3 ADD MSTORE PUSH32 0x6F6E000000000000000000000000000000000000000000000000000000000000 PUSH1 0x20 DUP3 ADD MSTORE POP JUMP JUMPDEST PUSH0 PUSH2 0xAEF PUSH1 0x22 DUP4 PUSH2 0x93A JUMP JUMPDEST SWAP2 POP PUSH2 0xAFA DUP3 PUSH2 0xA95 JUMP JUMPDEST PUSH1 0x40 DUP3 ADD SWAP1 POP SWAP2 SWAP1 POP JUMP JUMPDEST PUSH0 PUSH1 0x20 DUP3 ADD SWAP1 POP DUP2 DUP2 SUB PUSH0 DUP4 ADD MSTORE PUSH2 0xB1C DUP2 PUSH2 0xAE3 JUMP JUMPDEST SWAP1 POP SWAP2 SWAP1 POP JUMP JUMPDEST PUSH32 0x526F6C6C206E756D626572206D7573742062652067726561746572207468616E PUSH0 DUP3 ADD MSTORE PUSH32 0x2030000000000000000000000000000000000000000000000000000000000000 PUSH1 0x20 DUP3 ADD MSTORE POP JUMP JUMPDEST PUSH0 PUSH2 0xB7D PUSH1 0x22 DUP4 PUSH2 0x93A JUMP JUMPDEST SWAP2 POP PUSH2 0xB88 DUP3 PUSH2 0xB23 JUMP JUMPDEST PUSH1 0x40 DUP3 ADD SWAP1 POP SWAP2 SWAP1 POP JUMP JUMPDEST PUSH0 PUSH1 0x20 DUP3 ADD SWAP1 POP DUP2 DUP2 SUB PUSH0 DUP4 ADD MSTORE PUSH2 0xBAA DUP2 PUSH2 0xB71 JUMP JUMPDEST SWAP1 POP SWAP2 SWAP1 POP JUMP JUMPDEST PUSH32 0x4E616D652063616E6E6F7420626520656D707479000000000000000000000000 PUSH0 DUP3 ADD MSTORE POP JUMP JUMPDEST PUSH0 PUSH2 0xBE5 PUSH1 0x14 DUP4 PUSH2 0x93A JUMP JUMPDEST SWAP2 POP PUSH2 0xBF0 DUP3 PUSH2 0xBB1 JUMP JUMPDEST PUSH1 0x20 DUP3 ADD SWAP1 POP SWAP2 SWAP1 POP JUMP JUMPDEST PUSH0 PUSH1 0x20 DUP3 ADD SWAP1 POP DUP2 DUP2 SUB PUSH0 DUP4 ADD MSTORE PUSH2 0xC12 DUP2 PUSH2 0xBD9 JUMP JUMPDEST SWAP1 POP SWAP2 SWAP1 POP JUMP JUMPDEST PUSH32 0x4465677265652077697468207468697320726F6C6C206E756D62657220616C72 PUSH0 DUP3 ADD MSTORE PUSH32 0x6561647920657869737473000000000000000000000000000000000000000000 PUSH1 0x20 DUP3 ADD MSTORE POP JUMP JUMPDEST PUSH0 PUSH2 0xC73 PUSH1 0x2B DUP4 PUSH2 0x93A JUMP JUMPDEST SWAP2 POP PUSH2 0xC7E DUP3 PUSH2 0xC19 JUMP JUMPDEST PUSH1 0x40 DUP3 ADD SWAP1 POP SWAP2 SWAP1 POP JUMP JUMPDEST PUSH0 PUSH1 0x20 DUP3 ADD SWAP1 POP DUP2 DUP2 SUB PUSH0 DUP4 ADD MSTORE PUSH2 0xCA0 DUP2 PUSH2 0xC67 JUMP JUMPDEST SWAP1 POP SWAP2 SWAP1 POP JUMP JUMPDEST PUSH32 0x4E487B7100000000000000000000000000000000000000000000000000000000 PUSH0 MSTORE PUSH1 0x22 PUSH1 0x4 MSTORE PUSH1 0x24 PUSH0 REVERT JUMPDEST PUSH0 PUSH1 0x2 DUP3 DIV SWAP1 POP PUSH1 0x1 DUP3 AND DUP1 PUSH2 0xCEB JUMPI PUSH1 0x7F DUP3 AND SWAP2 POP JUMPDEST PUSH1 0x20 DUP3 LT DUP2 SUB PUSH2 0xCFE JUMPI PUSH2 0xCFD PUSH2 0xCA7 JUMP JUMPDEST JUMPDEST POP SWAP2 SWAP1 POP JUMP JUMPDEST PUSH0 DUP2 SWAP1 POP DUP2 PUSH0 MSTORE PUSH1 0x20 PUSH0 KECCAK256 SWAP1 POP SWAP2 SWAP1 POP JUMP JUMPDEST PUSH0 PUSH1 0x20 PUSH1 0x1F DUP4 ADD DIV SWAP1 POP SWAP2 SWAP1 POP JUMP JUMPDEST PUSH0 DUP3 DUP3 SHL SWAP1 POP SWAP3 SWAP2 POP POP JUMP JUMPDEST PUSH0 PUSH1 0x8 DUP4 MUL PUSH2 0xD60 PUSH32 0xFFFFFFFFFFFFFFFFFFFFFFFFFFFFFFFFFFFFFFFFFFFFFFFFFFFFFFFFFFFFFFFF DUP3 PUSH2 0xD25 JUMP JUMPDEST PUSH2 0xD6A DUP7 DUP4 PUSH2 0xD25 JUMP JUMPDEST SWAP6 POP DUP1 NOT DUP5 AND SWAP4 POP DUP1 DUP7 AND DUP5 OR SWAP3 POP POP POP SWAP4 SWAP3 POP POP POP JUMP JUMPDEST PUSH0 DUP2 SWAP1 POP SWAP2 SWAP1 POP JUMP JUMPDEST PUSH0 PUSH2 0xDA5 PUSH2 0xDA0 PUSH2 0xD9B DUP5 PUSH2 0x878 JUMP JUMPDEST PUSH2 0xD82 JUMP JUMPDEST PUSH2 0x878 JUMP JUMPDEST SWAP1 POP SWAP2 SWAP1 POP JUMP JUMPDEST PUSH0 DUP2 SWAP1 POP SWAP2 SWAP1 POP JUMP JUMPDEST PUSH2 0xDBE DUP4 PUSH2 0xD8B JUMP JUMPDEST PUSH2 0xDD2 PUSH2 0xDCA DUP3 PUSH2 0xDAC JUMP JUMPDEST DUP5 DUP5 SLOAD PUSH2 0xD31 JUMP JUMPDEST DUP3 SSTORE POP POP POP POP JUMP JUMPDEST PUSH0 SWAP1 JUMP JUMPDEST PUSH2 0xDE6 PUSH2 0xDDA JUMP JUMPDEST PUSH2 0xDF1 DUP2 DUP5 DUP5 PUSH2 0xDB5 JUMP JUMPDEST POP POP POP JUMP JUMPDEST JUMPDEST DUP2 DUP2 LT ISZERO PUSH2 0xE14 JUMPI PUSH2 0xE09 PUSH0 DUP3 PUSH2 0xDDE JUMP JUMPDEST PUSH1 0x1 DUP2 ADD SWAP1 POP PUSH2 0xDF7 JUMP JUMPDEST POP POP JUMP JUMPDEST PUSH1 0x1F DUP3 GT ISZERO PUSH2 0xE59 JUMPI PUSH2 0xE2A DUP2 PUSH2 0xD04 JUMP JUMPDEST PUSH2 0xE33 DUP5 PUSH2 0xD16 JUMP JUMPDEST DUP2 ADD PUSH1 0x20 DUP6 LT ISZERO PUSH2 0xE42 JUMPI DUP2 SWAP1 POP JUMPDEST PUSH2 0xE56 PUSH2 0xE4E DUP6 PUSH2 0xD16 JUMP JUMPDEST DUP4 ADD DUP3 PUSH2 0xDF6 JUMP JUMPDEST POP POP JUMPDEST POP POP POP JUMP JUMPDEST PUSH0 DUP3 DUP3 SHR SWAP1 POP SWAP3 SWAP2 POP POP JUMP JUMPDEST PUSH0 PUSH2 0xE79 PUSH0 NOT DUP5 PUSH1 0x8 MUL PUSH2 0xE5E JUMP JUMPDEST NOT DUP1 DUP4 AND SWAP2 POP POP SWAP3 SWAP2 POP POP JUMP JUMPDEST PUSH0 PUSH2 0xE91 DUP4 DUP4 PUSH2 0xE6A JUMP JUMPDEST SWAP2 POP DUP3 PUSH1 0x2 MUL DUP3 OR SWAP1 POP SWAP3 SWAP2 POP POP JUMP JUMPDEST PUSH2 0xEAA DUP3 PUSH2 0x930 JUMP JUMPDEST PUSH8 0xFFFFFFFFFFFFFFFF DUP2 GT ISZERO PUSH2 0xEC3 JUMPI PUSH2 0xEC2 PUSH2 0x754 JUMP JUMPDEST JUMPDEST PUSH2 0xECD DUP3 SLOAD PUSH2 0xCD4 JUMP JUMPDEST PUSH2 0xED8 DUP3 DUP3 DUP6 PUSH2 0xE18 JUMP JUMPDEST PUSH0 PUSH1 0x20 SWAP1 POP PUSH1 0x1F DUP4 GT PUSH1 0x1 DUP2 EQ PUSH2 0xF09 JUMPI PUSH0 DUP5 ISZERO PUSH2 0xEF7 JUMPI DUP3 DUP8 ADD MLOAD SWAP1 POP JUMPDEST PUSH2 0xF01 DUP6 DUP3 PUSH2 0xE86 JUMP JUMPDEST DUP7 SSTORE POP PUSH2 0xF68 JUMP JUMPDEST PUSH1 0x1F NOT DUP5 AND PUSH2 0xF17 DUP7 PUSH2 0xD04 JUMP JUMPDEST PUSH0 JUMPDEST DUP3 DUP2 LT ISZERO PUSH2 0xF3E JUMPI DUP5 DUP10 ADD MLOAD DUP3 SSTORE PUSH1 0x1 DUP3 ADD SWAP2 POP PUSH1 0x20 DUP6 ADD SWAP5 POP PUSH1 0x20 DUP2 ADD SWAP1 POP PUSH2 0xF19 JUMP JUMPDEST DUP7 DUP4 LT ISZERO PUSH2 0xF5B JUMPI DUP5 DUP10 ADD MLOAD PUSH2 0xF57 PUSH1 0x1F DUP10 AND DUP3 PUSH2 0xE6A JUMP JUMPDEST DUP4 SSTORE POP JUMPDEST PUSH1 0x1 PUSH1 0x2 DUP9 MUL ADD DUP9 SSTORE POP POP POP JUMPDEST POP POP POP POP POP POP JUMP JUMPDEST PUSH0 PUSH1 0x20 DUP3 ADD SWAP1 POP DUP2 DUP2 SUB PUSH0 DUP4 ADD MSTORE PUSH2 0xF88 DUP2 DUP5 PUSH2 0x972 JUMP JUMPDEST SWAP1 POP SWAP3 SWAP2 POP POP JUMP JUMPDEST PUSH32 0x4465677265652077697468207468697320726F6C6C206E756D62657220646F65 PUSH0 DUP3 ADD MSTORE PUSH32 0x73206E6F74206578697374000000000000000000000000000000000000000000 PUSH1 0x20 DUP3 ADD MSTORE POP JUMP JUMPDEST PUSH0 PUSH2 0xFEA PUSH1 0x2B DUP4 PUSH2 0x93A JUMP JUMPDEST SWAP2 POP PUSH2 0xFF5 DUP3 PUSH2 0xF90 JUMP JUMPDEST PUSH1 0x40 DUP3 ADD SWAP1 POP SWAP2 SWAP1 POP JUMP JUMPDEST PUSH0 PUSH1 0x20 DUP3 ADD SWAP1 POP DUP2 DUP2 SUB PUSH0 DUP4 ADD MSTORE PUSH2 0x1017 DUP2 PUSH2 0xFDE JUMP JUMPDEST SWAP1 POP SWAP2 SWAP1 POP JUMP JUMPDEST PUSH32 0x44656772656520697320616C7265616479207665726966696564000000000000 PUSH0 DUP3 ADD MSTORE POP JUMP JUMPDEST PUSH0 PUSH2 0x1052 PUSH1 0x1A DUP4 PUSH2 0x93A JUMP JUMPDEST SWAP2 POP PUSH2 0x105D DUP3 PUSH2 0x101E JUMP JUMPDEST PUSH1 0x20 DUP3 ADD SWAP1 POP SWAP2 SWAP1 POP JUMP JUMPDEST PUSH0 PUSH1 0x20 DUP3 ADD SWAP1 POP DUP2 DUP2 SUB PUSH0 DUP4 ADD MSTORE PUSH2 0x107F DUP2 PUSH2 0x1046 JUMP JUMPDEST SWAP1 POP SWAP2 SWAP1 POP JUMP JUMPDEST PUSH0 DUP2 SLOAD PUSH2 0x1092 DUP2 PUSH2 0xCD4 JUMP JUMPDEST PUSH2 0x109C DUP2 DUP7 PUSH2 0x93A JUMP JUMPDEST SWAP5 POP PUSH1 0x1 DUP3 AND PUSH0 DUP2 EQ PUSH2 0x10B6 JUMPI PUSH1 0x1 DUP2 EQ PUSH2 0x10CC JUMPI PUSH2 0x10FE JUMP JUMPDEST PUSH1 0xFF NOT DUP4 AND DUP7 MSTORE DUP2 ISZERO ISZERO PUSH1 0x20 MUL DUP7 ADD SWAP4 POP PUSH2 0x10FE JUMP JUMPDEST PUSH2 0x10D5 DUP6 PUSH2 0xD04 JUMP JUMPDEST PUSH0 JUMPDEST DUP4 DUP2 LT ISZERO PUSH2 0x10F6 JUMPI DUP2 SLOAD DUP2 DUP10 ADD MSTORE PUSH1 0x1 DUP3 ADD SWAP2 POP PUSH1 0x20 DUP2 ADD SWAP1 POP PUSH2 0x10D7 JUMP JUMPDEST DUP1 DUP9 ADD SWAP6 POP POP POP JUMPDEST POP POP POP SWAP3 SWAP2 POP POP JUMP JUMPDEST PUSH0 PUSH1 0x20 DUP3 ADD SWAP1 POP DUP2 DUP2 SUB PUSH0 DUP4 ADD MSTORE PUSH2 0x111F DUP2 DUP5 PUSH2 0x1086 JUMP JUMPDEST SWAP1 POP SWAP3 SWAP2 POP POP JUMP INVALID LOG2 PUSH5 0x6970667358 0x22 SLT KECCAK256 REVERT SWAP2 GAS PUSH26 0x480564CB4F59F30844A69D6127B31851842C93A30D39ACC3B9A5 0xB5 0x4B PUSH5 0x736F6C6343 STOP ADDMOD AND STOP CALLER "
				},
				"gasEstimates": {
					"creation": {
						"codeDepositCost": "889000",
						"executionCost": "25185",
						"totalCost": "914185"
					},
					"external": {
						"addDegree(string,uint256)": "infinite",
						"admin()": "2571",
						"degrees(uint256)": "infinite",
						"markAsVerified(uint256)": "infinite",
						"verifyDegree(uint256)": "infinite"
					}
				},
				"methodIdentifiers": {
					"addDegree(string,uint256)": "067c453f",
					"admin()": "f851a440",
					"degrees(uint256)": "81f1c3bc",
					"markAsVerified(uint256)": "aa5dc083",
					"verifyDegree(uint256)": "20f722a3"
				}
			},
			"storageLayout": {
				"storage": [
					{
						"astId": 3,
						"contract": "degreeVerification.sol:DegreeVerificationSystem",
						"label": "admin",
						"offset": 0,
						"slot": "0",
						"type": "t_address"
					},
					{
						"astId": 15,
						"contract": "degreeVerification.sol:DegreeVerificationSystem",
						"label": "degrees",
						"offset": 0,
						"slot": "1",
						"type": "t_mapping(t_uint256,t_struct(Degree)10_storage)"
					}
				],
				"types": {
					"t_address": {
						"encoding": "inplace",
						"label": "address",
						"numberOfBytes": "20"
					},
					"t_bool": {
						"encoding": "inplace",
						"label": "bool",
						"numberOfBytes": "1"
					},
					"t_mapping(t_uint256,t_struct(Degree)10_storage)": {
						"encoding": "mapping",
						"key": "t_uint256",
						"label": "mapping(uint256 => struct DegreeVerificationSystem.Degree)",
						"numberOfBytes": "32",
						"value": "t_struct(Degree)10_storage"
					},
					"t_string_storage": {
						"encoding": "bytes",
						"label": "string",
						"numberOfBytes": "32"
					},
					"t_struct(Degree)10_storage": {
						"encoding": "inplace",
						"label": "struct DegreeVerificationSystem.Degree",
						"members": [
							{
								"astId": 5,
								"contract": "degreeVerification.sol:DegreeVerificationSystem",
								"label": "name",
								"offset": 0,
								"slot": "0",
								"type": "t_string_storage"
							},
							{
								"astId": 7,
								"contract": "degreeVerification.sol:DegreeVerificationSystem",
								"label": "rollNumber",
								"offset": 0,
								"slot": "1",
								"type": "t_uint256"
							},
							{
								"astId": 9,
								"contract": "degreeVerification.sol:DegreeVerificationSystem",
								"label": "isVerified",
								"offset": 0,
								"slot": "2",
								"type": "t_bool"
							}
						],
						"numberOfBytes": "96"
					},
					"t_uint256": {
						"encoding": "inplace",
						"label": "uint256",
						"numberOfBytes": "32"
					}
				}
			},
			"userdoc": {
				"kind": "user",
				"methods": {},
				"version": 1
			}
		}
	}
}