{
	"contracts/StorageFactory.sol": {
		"SimpleStorage": {
			"abi": [
				{
					"inputs": [
						{
							"internalType": "uint256",
							"name": "_rollNumber",
							"type": "uint256"
						},
						{
							"internalType": "string",
							"name": "_name",
							"type": "string"
						}
					],
					"name": "addStudents",
					"outputs": [],
					"stateMutability": "nonpayable",
					"type": "function"
				},
				{
					"inputs": [],
					"name": "fullName",
					"outputs": [
						{
							"internalType": "string",
							"name": "",
							"type": "string"
						}
					],
					"stateMutability": "view",
					"type": "function"
				},
				{
					"inputs": [
						{
							"internalType": "uint256",
							"name": "",
							"type": "uint256"
						}
					],
					"name": "people",
					"outputs": [
						{
							"internalType": "uint256",
							"name": "rollNumber",
							"type": "uint256"
						},
						{
							"internalType": "string",
							"name": "fullName",
							"type": "string"
						}
					],
					"stateMutability": "view",
					"type": "function"
				},
				{
					"inputs": [],
					"name": "retrive",
					"outputs": [
						{
							"internalType": "uint256",
							"name": "",
							"type": "uint256"
						},
						{
							"internalType": "string",
							"name": "",
							"type": "string"
						}
					],
					"stateMutability": "view",
					"type": "function"
				},
				{
					"inputs": [],
					"name": "rollNumber",
					"outputs": [
						{
							"internalType": "uint256",
							"name": "",
							"type": "uint256"
						}
					],
					"stateMutability": "view",
					"type": "function"
				},
				{
					"inputs": [
						{
							"internalType": "uint256",
							"name": "",
							"type": "uint256"
						}
					],
					"name": "searchByRollNumber",
					"outputs": [
						{
							"internalType": "string",
							"name": "",
							"type": "string"
						}
					],
					"stateMutability": "view",
					"type": "function"
				}
			],
			"devdoc": {
				"kind": "dev",
				"methods": {},
				"version": 1
			},
			"evm": {
				"assembly": "    /* \"contracts/StorageFactory.sol\":66:1220  contract SimpleStorage {... */\n  mstore(0x40, 0x80)\n  callvalue\n  dup1\n  iszero\n  tag_1\n  jumpi\n  0x00\n  dup1\n  revert\ntag_1:\n  pop\n  dataSize(sub_0)\n  dup1\n  dataOffset(sub_0)\n  0x00\n  codecopy\n  0x00\n  return\nstop\n\nsub_0: assembly {\n        /* \"contracts/StorageFactory.sol\":66:1220  contract SimpleStorage {... */\n      mstore(0x40, 0x80)\n      callvalue\n      dup1\n      iszero\n      tag_1\n      jumpi\n      0x00\n      dup1\n      revert\n    tag_1:\n      pop\n      jumpi(tag_2, lt(calldatasize, 0x04))\n      shr(0xe0, calldataload(0x00))\n      dup1\n      0x7ac8224c\n      eq\n      tag_3\n      jumpi\n      dup1\n      0x89b7ddf2\n      eq\n      tag_4\n      jumpi\n      dup1\n      0x9e7a13ad\n      eq\n      tag_5\n      jumpi\n      dup1\n      0xa6b7fc5b\n      eq\n      tag_6\n      jumpi\n      dup1\n      0xaa257aa4\n      eq\n      tag_7\n      jumpi\n      dup1\n      0xac1bed58\n      eq\n      tag_8\n      jumpi\n    tag_2:\n      0x00\n      dup1\n      revert\n        /* \"contracts/StorageFactory.sol\":382:950  function addStudents(uint256 _rollNumber, string memory _name) public {... */\n    tag_3:\n      tag_9\n      0x04\n      dup1\n      calldatasize\n      sub\n      dup2\n      add\n      swap1\n      tag_10\n      swap2\n      swap1\n      tag_11\n      jump\t// in\n    tag_10:\n      tag_12\n      jump\t// in\n    tag_9:\n      stop\n        /* \"contracts/StorageFactory.sol\":173:195  string public fullName */\n    tag_4:\n      tag_13\n      tag_14\n      jump\t// in\n    tag_13:\n      mload(0x40)\n      tag_15\n      swap2\n      swap1\n      tag_16\n      jump\t// in\n    tag_15:\n      mload(0x40)\n      dup1\n      swap2\n      sub\n      swap1\n      return\n        /* \"contracts/StorageFactory.sol\":351:373  People[] public people */\n    tag_5:\n      tag_17\n      0x04\n      dup1\n      calldatasize\n      sub\n      dup2\n      add\n      swap1\n      tag_18\n      swap2\n      swap1\n      tag_19\n      jump\t// in\n    tag_18:\n      tag_20\n      jump\t// in\n    tag_17:\n      mload(0x40)\n      tag_21\n      swap3\n      swap2\n      swap1\n      tag_22\n      jump\t// in\n    tag_21:\n      mload(0x40)\n      dup1\n      swap2\n      sub\n      swap1\n      return\n        /* \"contracts/StorageFactory.sol\":958:1070  function retrive() public view returns (uint256, string memory) {... */\n    tag_6:\n      tag_23\n      tag_24\n      jump\t// in\n    tag_23:\n      mload(0x40)\n      tag_25\n      swap3\n      swap2\n      swap1\n      tag_22\n      jump\t// in\n    tag_25:\n      mload(0x40)\n      dup1\n      swap2\n      sub\n      swap1\n      return\n        /* \"contracts/StorageFactory.sol\":204:257  mapping (uint256 => string) public searchByRollNumber */\n    tag_7:\n      tag_26\n      0x04\n      dup1\n      calldatasize\n      sub\n      dup2\n      add\n      swap1\n      tag_27\n      swap2\n      swap1\n      tag_19\n      jump\t// in\n    tag_27:\n      tag_28\n      jump\t// in\n    tag_26:\n      mload(0x40)\n      tag_29\n      swap2\n      swap1\n      tag_16\n      jump\t// in\n    tag_29:\n      mload(0x40)\n      dup1\n      swap2\n      sub\n      swap1\n      return\n        /* \"contracts/StorageFactory.sol\":141:166  uint256 public rollNumber */\n    tag_8:\n      tag_30\n      tag_31\n      jump\t// in\n    tag_30:\n      mload(0x40)\n      tag_32\n      swap2\n      swap1\n      tag_33\n      jump\t// in\n    tag_32:\n      mload(0x40)\n      dup1\n      swap2\n      sub\n      swap1\n      return\n        /* \"contracts/StorageFactory.sol\":382:950  function addStudents(uint256 _rollNumber, string memory _name) public {... */\n    tag_12:\n        /* \"contracts/StorageFactory.sol\":653:664  _rollNumber */\n      dup2\n        /* \"contracts/StorageFactory.sol\":640:650  rollNumber */\n      0x00\n        /* \"contracts/StorageFactory.sol\":640:664  rollNumber = _rollNumber */\n      dup2\n      swap1\n      sstore\n      pop\n        /* \"contracts/StorageFactory.sol\":686:691  _name */\n      dup1\n        /* \"contracts/StorageFactory.sol\":675:683  fullName */\n      0x01\n        /* \"contracts/StorageFactory.sol\":675:691  fullName = _name */\n      swap1\n      dup2\n      tag_35\n      swap2\n      swap1\n      tag_36\n      jump\t// in\n    tag_35:\n      pop\n        /* \"contracts/StorageFactory.sol\":720:726  people */\n      0x03\n        /* \"contracts/StorageFactory.sol\":732:757  People(_rollNumber,_name) */\n      mload(0x40)\n      dup1\n      0x40\n      add\n      0x40\n      mstore\n      dup1\n        /* \"contracts/StorageFactory.sol\":739:750  _rollNumber */\n      dup5\n        /* \"contracts/StorageFactory.sol\":732:757  People(_rollNumber,_name) */\n      dup2\n      mstore\n      0x20\n      add\n        /* \"contracts/StorageFactory.sol\":751:756  _name */\n      dup4\n        /* \"contracts/StorageFactory.sol\":732:757  People(_rollNumber,_name) */\n      dup2\n      mstore\n      pop\n        /* \"contracts/StorageFactory.sol\":720:758  people.push(People(_rollNumber,_name)) */\n      swap1\n      dup1\n      0x01\n      dup2\n      sload\n      add\n      dup1\n      dup3\n      sstore\n      dup1\n      swap2\n      pop\n      pop\n      0x01\n      swap1\n      sub\n      swap1\n      0x00\n      mstore\n      keccak256(0x00, 0x20)\n      swap1\n      0x02\n      mul\n      add\n      0x00\n      swap1\n      swap2\n      swap1\n      swap2\n      swap1\n      swap2\n      pop\n      0x00\n      dup3\n      add\n      mload\n      dup2\n      0x00\n      add\n      sstore\n      0x20\n      dup3\n      add\n      mload\n      dup2\n      0x01\n      add\n      swap1\n      dup2\n      tag_38\n      swap2\n      swap1\n      tag_36\n      jump\t// in\n    tag_38:\n      pop\n      pop\n      pop\n        /* \"contracts/StorageFactory.sol\":935:940  _name */\n      dup1\n        /* \"contracts/StorageFactory.sol\":901:919  searchByRollNumber */\n      0x02\n        /* \"contracts/StorageFactory.sol\":901:932  searchByRollNumber[_rollNumber] */\n      0x00\n        /* \"contracts/StorageFactory.sol\":920:931  _rollNumber */\n      dup5\n        /* \"contracts/StorageFactory.sol\":901:932  searchByRollNumber[_rollNumber] */\n      dup2\n      mstore\n      0x20\n      add\n      swap1\n      dup2\n      mstore\n      0x20\n      add\n      0x00\n      keccak256\n        /* \"contracts/StorageFactory.sol\":901:940  searchByRollNumber[_rollNumber] = _name */\n      swap1\n      dup2\n      tag_39\n      swap2\n      swap1\n      tag_36\n      jump\t// in\n    tag_39:\n      pop\n        /* \"contracts/StorageFactory.sol\":382:950  function addStudents(uint256 _rollNumber, string memory _name) public {... */\n      pop\n      pop\n      jump\t// out\n        /* \"contracts/StorageFactory.sol\":173:195  string public fullName */\n    tag_14:\n      0x01\n      dup1\n      sload\n      tag_40\n      swap1\n      tag_41\n      jump\t// in\n    tag_40:\n      dup1\n      0x1f\n      add\n      0x20\n      dup1\n      swap2\n      div\n      mul\n      0x20\n      add\n      mload(0x40)\n      swap1\n      dup2\n      add\n      0x40\n      mstore\n      dup1\n      swap3\n      swap2\n      swap1\n      dup2\n      dup2\n      mstore\n      0x20\n      add\n      dup3\n      dup1\n      sload\n      tag_42\n      swap1\n      tag_41\n      jump\t// in\n    tag_42:\n      dup1\n      iszero\n      tag_43\n      jumpi\n      dup1\n      0x1f\n      lt\n      tag_44\n      jumpi\n      0x0100\n      dup1\n      dup4\n      sload\n      div\n      mul\n      dup4\n      mstore\n      swap2\n      0x20\n      add\n      swap2\n      jump(tag_43)\n    tag_44:\n      dup3\n      add\n      swap2\n      swap1\n      0x00\n      mstore\n      keccak256(0x00, 0x20)\n      swap1\n    tag_45:\n      dup2\n      sload\n      dup2\n      mstore\n      swap1\n      0x01\n      add\n      swap1\n      0x20\n      add\n      dup1\n      dup4\n      gt\n      tag_45\n      jumpi\n      dup3\n      swap1\n      sub\n      0x1f\n      and\n      dup3\n      add\n      swap2\n    tag_43:\n      pop\n      pop\n      pop\n      pop\n      pop\n      dup2\n      jump\t// out\n        /* \"contracts/StorageFactory.sol\":351:373  People[] public people */\n    tag_20:\n      0x03\n      dup2\n      dup2\n      sload\n      dup2\n      lt\n      tag_46\n      jumpi\n      0x00\n      dup1\n      revert\n    tag_46:\n      swap1\n      0x00\n      mstore\n      keccak256(0x00, 0x20)\n      swap1\n      0x02\n      mul\n      add\n      0x00\n      swap2\n      pop\n      swap1\n      pop\n      dup1\n      0x00\n      add\n      sload\n      swap1\n      dup1\n      0x01\n      add\n      dup1\n      sload\n      tag_48\n      swap1\n      tag_41\n      jump\t// in\n    tag_48:\n      dup1\n      0x1f\n      add\n      0x20\n      dup1\n      swap2\n      div\n      mul\n      0x20\n      add\n      mload(0x40)\n      swap1\n      dup2\n      add\n      0x40\n      mstore\n      dup1\n      swap3\n      swap2\n      swap1\n      dup2\n      dup2\n      mstore\n      0x20\n      add\n      dup3\n      dup1\n      sload\n      tag_49\n      swap1\n      tag_41\n      jump\t// in\n    tag_49:\n      dup1\n      iszero\n      tag_50\n      jumpi\n      dup1\n      0x1f\n      lt\n      tag_51\n      jumpi\n      0x0100\n      dup1\n      dup4\n      sload\n      div\n      mul\n      dup4\n      mstore\n      swap2\n      0x20\n      add\n      swap2\n      jump(tag_50)\n    tag_51:\n      dup3\n      add\n      swap2\n      swap1\n      0x00\n      mstore\n      keccak256(0x00, 0x20)\n      swap1\n    tag_52:\n      dup2\n      sload\n      dup2\n      mstore\n      swap1\n      0x01\n      add\n      swap1\n      0x20\n      add\n      dup1\n      dup4\n      gt\n      tag_52\n      jumpi\n      dup3\n      swap1\n      sub\n      0x1f\n      and\n      dup3\n      add\n      swap2\n    tag_50:\n      pop\n      pop\n      pop\n      pop\n      pop\n      swap1\n      pop\n      dup3\n      jump\t// out\n        /* \"contracts/StorageFactory.sol\":958:1070  function retrive() public view returns (uint256, string memory) {... */\n    tag_24:\n        /* \"contracts/StorageFactory.sol\":998:1005  uint256 */\n      0x00\n        /* \"contracts/StorageFactory.sol\":1007:1020  string memory */\n      0x60\n        /* \"contracts/StorageFactory.sol\":1041:1051  rollNumber */\n      sload(0x00)\n        /* \"contracts/StorageFactory.sol\":1053:1061  fullName */\n      0x01\n        /* \"contracts/StorageFactory.sol\":1033:1062  return (rollNumber, fullName) */\n      dup1\n      dup1\n      sload\n      tag_54\n      swap1\n      tag_41\n      jump\t// in\n    tag_54:\n      dup1\n      0x1f\n      add\n      0x20\n      dup1\n      swap2\n      div\n      mul\n      0x20\n      add\n      mload(0x40)\n      swap1\n      dup2\n      add\n      0x40\n      mstore\n      dup1\n      swap3\n      swap2\n      swap1\n      dup2\n      dup2\n      mstore\n      0x20\n      add\n      dup3\n      dup1\n      sload\n      tag_55\n      swap1\n      tag_41\n      jump\t// in\n    tag_55:\n      dup1\n      iszero\n      tag_56\n      jumpi\n      dup1\n      0x1f\n      lt\n      tag_57\n      jumpi\n      0x0100\n      dup1\n      dup4\n      sload\n      div\n      mul\n      dup4\n      mstore\n      swap2\n      0x20\n      add\n      swap2\n      jump(tag_56)\n    tag_57:\n      dup3\n      add\n      swap2\n      swap1\n      0x00\n      mstore\n      keccak256(0x00, 0x20)\n      swap1\n    tag_58:\n      dup2\n      sload\n      dup2\n      mstore\n      swap1\n      0x01\n      add\n      swap1\n      0x20\n      add\n      dup1\n      dup4\n      gt\n      tag_58\n      jumpi\n      dup3\n      swap1\n      sub\n      0x1f\n      and\n      dup3\n      add\n      swap2\n    tag_56:\n      pop\n      pop\n      pop\n      pop\n      pop\n      swap1\n      pop\n      swap2\n      pop\n      swap2\n      pop\n        /* \"contracts/StorageFactory.sol\":958:1070  function retrive() public view returns (uint256, string memory) {... */\n      swap1\n      swap2\n      jump\t// out\n        /* \"contracts/StorageFactory.sol\":204:257  mapping (uint256 => string) public searchByRollNumber */\n    tag_28:\n      mstore(0x20, 0x02)\n      dup1\n      0x00\n      mstore\n      keccak256(0x00, 0x40)\n      0x00\n      swap2\n      pop\n      swap1\n      pop\n      dup1\n      sload\n      tag_59\n      swap1\n      tag_41\n      jump\t// in\n    tag_59:\n      dup1\n      0x1f\n      add\n      0x20\n      dup1\n      swap2\n      div\n      mul\n      0x20\n      add\n      mload(0x40)\n      swap1\n      dup2\n      add\n      0x40\n      mstore\n      dup1\n      swap3\n      swap2\n      swap1\n      dup2\n      dup2\n      mstore\n      0x20\n      add\n      dup3\n      dup1\n      sload\n      tag_60\n      swap1\n      tag_41\n      jump\t// in\n    tag_60:\n      dup1\n      iszero\n      tag_61\n      jumpi\n      dup1\n      0x1f\n      lt\n      tag_62\n      jumpi\n      0x0100\n      dup1\n      dup4\n      sload\n      div\n      mul\n      dup4\n      mstore\n      swap2\n      0x20\n      add\n      swap2\n      jump(tag_61)\n    tag_62:\n      dup3\n      add\n      swap2\n      swap1\n      0x00\n      mstore\n      keccak256(0x00, 0x20)\n      swap1\n    tag_63:\n      dup2\n      sload\n      dup2\n      mstore\n      swap1\n      0x01\n      add\n      swap1\n      0x20\n      add\n      dup1\n      dup4\n      gt\n      tag_63\n      jumpi\n      dup3\n      swap1\n      sub\n      0x1f\n      and\n      dup3\n      add\n      swap2\n    tag_61:\n      pop\n      pop\n      pop\n      pop\n      pop\n      dup2\n      jump\t// out\n        /* \"contracts/StorageFactory.sol\":141:166  uint256 public rollNumber */\n    tag_31:\n      sload(0x00)\n      dup2\n      jump\t// out\n        /* \"#utility.yul\":7:82   */\n    tag_64:\n        /* \"#utility.yul\":40:46   */\n      0x00\n        /* \"#utility.yul\":73:75   */\n      0x40\n        /* \"#utility.yul\":67:76   */\n      mload\n        /* \"#utility.yul\":57:76   */\n      swap1\n      pop\n        /* \"#utility.yul\":7:82   */\n      swap1\n      jump\t// out\n        /* \"#utility.yul\":88:205   */\n    tag_65:\n        /* \"#utility.yul\":197:198   */\n      0x00\n        /* \"#utility.yul\":194:195   */\n      dup1\n        /* \"#utility.yul\":187:199   */\n      revert\n        /* \"#utility.yul\":211:328   */\n    tag_66:\n        /* \"#utility.yul\":320:321   */\n      0x00\n        /* \"#utility.yul\":317:318   */\n      dup1\n        /* \"#utility.yul\":310:322   */\n      revert\n        /* \"#utility.yul\":334:411   */\n    tag_67:\n        /* \"#utility.yul\":371:378   */\n      0x00\n        /* \"#utility.yul\":400:405   */\n      dup2\n        /* \"#utility.yul\":389:405   */\n      swap1\n      pop\n        /* \"#utility.yul\":334:411   */\n      swap2\n      swap1\n      pop\n      jump\t// out\n        /* \"#utility.yul\":417:539   */\n    tag_68:\n        /* \"#utility.yul\":490:514   */\n      tag_107\n        /* \"#utility.yul\":508:513   */\n      dup2\n        /* \"#utility.yul\":490:514   */\n      tag_67\n      jump\t// in\n    tag_107:\n        /* \"#utility.yul\":483:488   */\n      dup2\n        /* \"#utility.yul\":480:515   */\n      eq\n        /* \"#utility.yul\":470:533   */\n      tag_108\n      jumpi\n        /* \"#utility.yul\":529:530   */\n      0x00\n        /* \"#utility.yul\":526:527   */\n      dup1\n        /* \"#utility.yul\":519:531   */\n      revert\n        /* \"#utility.yul\":470:533   */\n    tag_108:\n        /* \"#utility.yul\":417:539   */\n      pop\n      jump\t// out\n        /* \"#utility.yul\":545:684   */\n    tag_69:\n        /* \"#utility.yul\":591:596   */\n      0x00\n        /* \"#utility.yul\":629:635   */\n      dup2\n        /* \"#utility.yul\":616:636   */\n      calldataload\n        /* \"#utility.yul\":607:636   */\n      swap1\n      pop\n        /* \"#utility.yul\":645:678   */\n      tag_110\n        /* \"#utility.yul\":672:677   */\n      dup2\n        /* \"#utility.yul\":645:678   */\n      tag_68\n      jump\t// in\n    tag_110:\n        /* \"#utility.yul\":545:684   */\n      swap3\n      swap2\n      pop\n      pop\n      jump\t// out\n        /* \"#utility.yul\":690:807   */\n    tag_70:\n        /* \"#utility.yul\":799:800   */\n      0x00\n        /* \"#utility.yul\":796:797   */\n      dup1\n        /* \"#utility.yul\":789:801   */\n      revert\n        /* \"#utility.yul\":813:930   */\n    tag_71:\n        /* \"#utility.yul\":922:923   */\n      0x00\n        /* \"#utility.yul\":919:920   */\n      dup1\n        /* \"#utility.yul\":912:924   */\n      revert\n        /* \"#utility.yul\":936:1038   */\n    tag_72:\n        /* \"#utility.yul\":977:983   */\n      0x00\n        /* \"#utility.yul\":1028:1030   */\n      0x1f\n        /* \"#utility.yul\":1024:1031   */\n      not\n        /* \"#utility.yul\":1019:1021   */\n      0x1f\n        /* \"#utility.yul\":1012:1017   */\n      dup4\n        /* \"#utility.yul\":1008:1022   */\n      add\n        /* \"#utility.yul\":1004:1032   */\n      and\n        /* \"#utility.yul\":994:1032   */\n      swap1\n      pop\n        /* \"#utility.yul\":936:1038   */\n      swap2\n      swap1\n      pop\n      jump\t// out\n        /* \"#utility.yul\":1044:1224   */\n    tag_73:\n        /* \"#utility.yul\":1092:1169   */\n      0x4e487b7100000000000000000000000000000000000000000000000000000000\n        /* \"#utility.yul\":1089:1090   */\n      0x00\n        /* \"#utility.yul\":1082:1170   */\n      mstore\n        /* \"#utility.yul\":1189:1193   */\n      0x41\n        /* \"#utility.yul\":1186:1187   */\n      0x04\n        /* \"#utility.yul\":1179:1194   */\n      mstore\n        /* \"#utility.yul\":1213:1217   */\n      0x24\n        /* \"#utility.yul\":1210:1211   */\n      0x00\n        /* \"#utility.yul\":1203:1218   */\n      revert\n        /* \"#utility.yul\":1230:1511   */\n    tag_74:\n        /* \"#utility.yul\":1313:1340   */\n      tag_116\n        /* \"#utility.yul\":1335:1339   */\n      dup3\n        /* \"#utility.yul\":1313:1340   */\n      tag_72\n      jump\t// in\n    tag_116:\n        /* \"#utility.yul\":1305:1311   */\n      dup2\n        /* \"#utility.yul\":1301:1341   */\n      add\n        /* \"#utility.yul\":1443:1449   */\n      dup2\n        /* \"#utility.yul\":1431:1441   */\n      dup2\n        /* \"#utility.yul\":1428:1450   */\n      lt\n        /* \"#utility.yul\":1407:1425   */\n      0xffffffffffffffff\n        /* \"#utility.yul\":1395:1405   */\n      dup3\n        /* \"#utility.yul\":1392:1426   */\n      gt\n        /* \"#utility.yul\":1389:1451   */\n      or\n        /* \"#utility.yul\":1386:1474   */\n      iszero\n      tag_117\n      jumpi\n        /* \"#utility.yul\":1454:1472   */\n      tag_118\n      tag_73\n      jump\t// in\n    tag_118:\n        /* \"#utility.yul\":1386:1474   */\n    tag_117:\n        /* \"#utility.yul\":1494:1504   */\n      dup1\n        /* \"#utility.yul\":1490:1492   */\n      0x40\n        /* \"#utility.yul\":1483:1505   */\n      mstore\n        /* \"#utility.yul\":1273:1511   */\n      pop\n        /* \"#utility.yul\":1230:1511   */\n      pop\n      pop\n      jump\t// out\n        /* \"#utility.yul\":1517:1646   */\n    tag_75:\n        /* \"#utility.yul\":1551:1557   */\n      0x00\n        /* \"#utility.yul\":1578:1598   */\n      tag_120\n      tag_64\n      jump\t// in\n    tag_120:\n        /* \"#utility.yul\":1568:1598   */\n      swap1\n      pop\n        /* \"#utility.yul\":1607:1640   */\n      tag_121\n        /* \"#utility.yul\":1635:1639   */\n      dup3\n        /* \"#utility.yul\":1627:1633   */\n      dup3\n        /* \"#utility.yul\":1607:1640   */\n      tag_74\n      jump\t// in\n    tag_121:\n        /* \"#utility.yul\":1517:1646   */\n      swap2\n      swap1\n      pop\n      jump\t// out\n        /* \"#utility.yul\":1652:1960   */\n    tag_76:\n        /* \"#utility.yul\":1714:1718   */\n      0x00\n        /* \"#utility.yul\":1804:1822   */\n      0xffffffffffffffff\n        /* \"#utility.yul\":1796:1802   */\n      dup3\n        /* \"#utility.yul\":1793:1823   */\n      gt\n        /* \"#utility.yul\":1790:1846   */\n      iszero\n      tag_123\n      jumpi\n        /* \"#utility.yul\":1826:1844   */\n      tag_124\n      tag_73\n      jump\t// in\n    tag_124:\n        /* \"#utility.yul\":1790:1846   */\n    tag_123:\n        /* \"#utility.yul\":1864:1893   */\n      tag_125\n        /* \"#utility.yul\":1886:1892   */\n      dup3\n        /* \"#utility.yul\":1864:1893   */\n      tag_72\n      jump\t// in\n    tag_125:\n        /* \"#utility.yul\":1856:1893   */\n      swap1\n      pop\n        /* \"#utility.yul\":1948:1952   */\n      0x20\n        /* \"#utility.yul\":1942:1946   */\n      dup2\n        /* \"#utility.yul\":1938:1953   */\n      add\n        /* \"#utility.yul\":1930:1953   */\n      swap1\n      pop\n        /* \"#utility.yul\":1652:1960   */\n      swap2\n      swap1\n      pop\n      jump\t// out\n        /* \"#utility.yul\":1966:2112   */\n    tag_77:\n        /* \"#utility.yul\":2063:2069   */\n      dup3\n        /* \"#utility.yul\":2058:2061   */\n      dup2\n        /* \"#utility.yul\":2053:2056   */\n      dup4\n        /* \"#utility.yul\":2040:2070   */\n      calldatacopy\n        /* \"#utility.yul\":2104:2105   */\n      0x00\n        /* \"#utility.yul\":2095:2101   */\n      dup4\n        /* \"#utility.yul\":2090:2093   */\n      dup4\n        /* \"#utility.yul\":2086:2102   */\n      add\n        /* \"#utility.yul\":2079:2106   */\n      mstore\n        /* \"#utility.yul\":1966:2112   */\n      pop\n      pop\n      pop\n      jump\t// out\n        /* \"#utility.yul\":2118:2543   */\n    tag_78:\n        /* \"#utility.yul\":2196:2201   */\n      0x00\n        /* \"#utility.yul\":2221:2287   */\n      tag_128\n        /* \"#utility.yul\":2237:2286   */\n      tag_129\n        /* \"#utility.yul\":2279:2285   */\n      dup5\n        /* \"#utility.yul\":2237:2286   */\n      tag_76\n      jump\t// in\n    tag_129:\n        /* \"#utility.yul\":2221:2287   */\n      tag_75\n      jump\t// in\n    tag_128:\n        /* \"#utility.yul\":2212:2287   */\n      swap1\n      pop\n        /* \"#utility.yul\":2310:2316   */\n      dup3\n        /* \"#utility.yul\":2303:2308   */\n      dup2\n        /* \"#utility.yul\":2296:2317   */\n      mstore\n        /* \"#utility.yul\":2348:2352   */\n      0x20\n        /* \"#utility.yul\":2341:2346   */\n      dup2\n        /* \"#utility.yul\":2337:2353   */\n      add\n        /* \"#utility.yul\":2386:2389   */\n      dup5\n        /* \"#utility.yul\":2377:2383   */\n      dup5\n        /* \"#utility.yul\":2372:2375   */\n      dup5\n        /* \"#utility.yul\":2368:2384   */\n      add\n        /* \"#utility.yul\":2365:2390   */\n      gt\n        /* \"#utility.yul\":2362:2474   */\n      iszero\n      tag_130\n      jumpi\n        /* \"#utility.yul\":2393:2472   */\n      tag_131\n      tag_71\n      jump\t// in\n    tag_131:\n        /* \"#utility.yul\":2362:2474   */\n    tag_130:\n        /* \"#utility.yul\":2483:2537   */\n      tag_132\n        /* \"#utility.yul\":2530:2536   */\n      dup5\n        /* \"#utility.yul\":2525:2528   */\n      dup3\n        /* \"#utility.yul\":2520:2523   */\n      dup6\n        /* \"#utility.yul\":2483:2537   */\n      tag_77\n      jump\t// in\n    tag_132:\n        /* \"#utility.yul\":2202:2543   */\n      pop\n        /* \"#utility.yul\":2118:2543   */\n      swap4\n      swap3\n      pop\n      pop\n      pop\n      jump\t// out\n        /* \"#utility.yul\":2563:2903   */\n    tag_79:\n        /* \"#utility.yul\":2619:2624   */\n      0x00\n        /* \"#utility.yul\":2668:2671   */\n      dup3\n        /* \"#utility.yul\":2661:2665   */\n      0x1f\n        /* \"#utility.yul\":2653:2659   */\n      dup4\n        /* \"#utility.yul\":2649:2666   */\n      add\n        /* \"#utility.yul\":2645:2672   */\n      slt\n        /* \"#utility.yul\":2635:2757   */\n      tag_134\n      jumpi\n        /* \"#utility.yul\":2676:2755   */\n      tag_135\n      tag_70\n      jump\t// in\n    tag_135:\n        /* \"#utility.yul\":2635:2757   */\n    tag_134:\n        /* \"#utility.yul\":2793:2799   */\n      dup2\n        /* \"#utility.yul\":2780:2800   */\n      calldataload\n        /* \"#utility.yul\":2818:2897   */\n      tag_136\n        /* \"#utility.yul\":2893:2896   */\n      dup5\n        /* \"#utility.yul\":2885:2891   */\n      dup3\n        /* \"#utility.yul\":2878:2882   */\n      0x20\n        /* \"#utility.yul\":2870:2876   */\n      dup7\n        /* \"#utility.yul\":2866:2883   */\n      add\n        /* \"#utility.yul\":2818:2897   */\n      tag_78\n      jump\t// in\n    tag_136:\n        /* \"#utility.yul\":2809:2897   */\n      swap2\n      pop\n        /* \"#utility.yul\":2625:2903   */\n      pop\n        /* \"#utility.yul\":2563:2903   */\n      swap3\n      swap2\n      pop\n      pop\n      jump\t// out\n        /* \"#utility.yul\":2909:3563   */\n    tag_11:\n        /* \"#utility.yul\":2987:2993   */\n      0x00\n        /* \"#utility.yul\":2995:3001   */\n      dup1\n        /* \"#utility.yul\":3044:3046   */\n      0x40\n        /* \"#utility.yul\":3032:3041   */\n      dup4\n        /* \"#utility.yul\":3023:3030   */\n      dup6\n        /* \"#utility.yul\":3019:3042   */\n      sub\n        /* \"#utility.yul\":3015:3047   */\n      slt\n        /* \"#utility.yul\":3012:3131   */\n      iszero\n      tag_138\n      jumpi\n        /* \"#utility.yul\":3050:3129   */\n      tag_139\n      tag_65\n      jump\t// in\n    tag_139:\n        /* \"#utility.yul\":3012:3131   */\n    tag_138:\n        /* \"#utility.yul\":3170:3171   */\n      0x00\n        /* \"#utility.yul\":3195:3248   */\n      tag_140\n        /* \"#utility.yul\":3240:3247   */\n      dup6\n        /* \"#utility.yul\":3231:3237   */\n      dup3\n        /* \"#utility.yul\":3220:3229   */\n      dup7\n        /* \"#utility.yul\":3216:3238   */\n      add\n        /* \"#utility.yul\":3195:3248   */\n      tag_69\n      jump\t// in\n    tag_140:\n        /* \"#utility.yul\":3185:3248   */\n      swap3\n      pop\n        /* \"#utility.yul\":3141:3258   */\n      pop\n        /* \"#utility.yul\":3325:3327   */\n      0x20\n        /* \"#utility.yul\":3314:3323   */\n      dup4\n        /* \"#utility.yul\":3310:3328   */\n      add\n        /* \"#utility.yul\":3297:3329   */\n      calldataload\n        /* \"#utility.yul\":3356:3374   */\n      0xffffffffffffffff\n        /* \"#utility.yul\":3348:3354   */\n      dup2\n        /* \"#utility.yul\":3345:3375   */\n      gt\n        /* \"#utility.yul\":3342:3459   */\n      iszero\n      tag_141\n      jumpi\n        /* \"#utility.yul\":3378:3457   */\n      tag_142\n      tag_66\n      jump\t// in\n    tag_142:\n        /* \"#utility.yul\":3342:3459   */\n    tag_141:\n        /* \"#utility.yul\":3483:3546   */\n      tag_143\n        /* \"#utility.yul\":3538:3545   */\n      dup6\n        /* \"#utility.yul\":3529:3535   */\n      dup3\n        /* \"#utility.yul\":3518:3527   */\n      dup7\n        /* \"#utility.yul\":3514:3536   */\n      add\n        /* \"#utility.yul\":3483:3546   */\n      tag_79\n      jump\t// in\n    tag_143:\n        /* \"#utility.yul\":3473:3546   */\n      swap2\n      pop\n        /* \"#utility.yul\":3268:3556   */\n      pop\n        /* \"#utility.yul\":2909:3563   */\n      swap3\n      pop\n      swap3\n      swap1\n      pop\n      jump\t// out\n        /* \"#utility.yul\":3569:3668   */\n    tag_80:\n        /* \"#utility.yul\":3621:3627   */\n      0x00\n        /* \"#utility.yul\":3655:3660   */\n      dup2\n        /* \"#utility.yul\":3649:3661   */\n      mload\n        /* \"#utility.yul\":3639:3661   */\n      swap1\n      pop\n        /* \"#utility.yul\":3569:3668   */\n      swap2\n      swap1\n      pop\n      jump\t// out\n        /* \"#utility.yul\":3674:3843   */\n    tag_81:\n        /* \"#utility.yul\":3758:3769   */\n      0x00\n        /* \"#utility.yul\":3792:3798   */\n      dup3\n        /* \"#utility.yul\":3787:3790   */\n      dup3\n        /* \"#utility.yul\":3780:3799   */\n      mstore\n        /* \"#utility.yul\":3832:3836   */\n      0x20\n        /* \"#utility.yul\":3827:3830   */\n      dup3\n        /* \"#utility.yul\":3823:3837   */\n      add\n        /* \"#utility.yul\":3808:3837   */\n      swap1\n      pop\n        /* \"#utility.yul\":3674:3843   */\n      swap3\n      swap2\n      pop\n      pop\n      jump\t// out\n        /* \"#utility.yul\":3849:4095   */\n    tag_82:\n        /* \"#utility.yul\":3930:3931   */\n      0x00\n        /* \"#utility.yul\":3940:4053   */\n    tag_147:\n        /* \"#utility.yul\":3954:3960   */\n      dup4\n        /* \"#utility.yul\":3951:3952   */\n      dup2\n        /* \"#utility.yul\":3948:3961   */\n      lt\n        /* \"#utility.yul\":3940:4053   */\n      iszero\n      tag_149\n      jumpi\n        /* \"#utility.yul\":4039:4040   */\n      dup1\n        /* \"#utility.yul\":4034:4037   */\n      dup3\n        /* \"#utility.yul\":4030:4041   */\n      add\n        /* \"#utility.yul\":4024:4042   */\n      mload\n        /* \"#utility.yul\":4020:4021   */\n      dup2\n        /* \"#utility.yul\":4015:4018   */\n      dup5\n        /* \"#utility.yul\":4011:4022   */\n      add\n        /* \"#utility.yul\":4004:4043   */\n      mstore\n        /* \"#utility.yul\":3976:3978   */\n      0x20\n        /* \"#utility.yul\":3973:3974   */\n      dup2\n        /* \"#utility.yul\":3969:3979   */\n      add\n        /* \"#utility.yul\":3964:3979   */\n      swap1\n      pop\n        /* \"#utility.yul\":3940:4053   */\n      jump(tag_147)\n    tag_149:\n        /* \"#utility.yul\":4087:4088   */\n      0x00\n        /* \"#utility.yul\":4078:4084   */\n      dup5\n        /* \"#utility.yul\":4073:4076   */\n      dup5\n        /* \"#utility.yul\":4069:4085   */\n      add\n        /* \"#utility.yul\":4062:4089   */\n      mstore\n        /* \"#utility.yul\":3911:4095   */\n      pop\n        /* \"#utility.yul\":3849:4095   */\n      pop\n      pop\n      pop\n      jump\t// out\n        /* \"#utility.yul\":4101:4478   */\n    tag_83:\n        /* \"#utility.yul\":4189:4192   */\n      0x00\n        /* \"#utility.yul\":4217:4256   */\n      tag_151\n        /* \"#utility.yul\":4250:4255   */\n      dup3\n        /* \"#utility.yul\":4217:4256   */\n      tag_80\n      jump\t// in\n    tag_151:\n        /* \"#utility.yul\":4272:4343   */\n      tag_152\n        /* \"#utility.yul\":4336:4342   */\n      dup2\n        /* \"#utility.yul\":4331:4334   */\n      dup6\n        /* \"#utility.yul\":4272:4343   */\n      tag_81\n      jump\t// in\n    tag_152:\n        /* \"#utility.yul\":4265:4343   */\n      swap4\n      pop\n        /* \"#utility.yul\":4352:4417   */\n      tag_153\n        /* \"#utility.yul\":4410:4416   */\n      dup2\n        /* \"#utility.yul\":4405:4408   */\n      dup6\n        /* \"#utility.yul\":4398:4402   */\n      0x20\n        /* \"#utility.yul\":4391:4396   */\n      dup7\n        /* \"#utility.yul\":4387:4403   */\n      add\n        /* \"#utility.yul\":4352:4417   */\n      tag_82\n      jump\t// in\n    tag_153:\n        /* \"#utility.yul\":4442:4471   */\n      tag_154\n        /* \"#utility.yul\":4464:4470   */\n      dup2\n        /* \"#utility.yul\":4442:4471   */\n      tag_72\n      jump\t// in\n    tag_154:\n        /* \"#utility.yul\":4437:4440   */\n      dup5\n        /* \"#utility.yul\":4433:4472   */\n      add\n        /* \"#utility.yul\":4426:4472   */\n      swap2\n      pop\n        /* \"#utility.yul\":4193:4478   */\n      pop\n        /* \"#utility.yul\":4101:4478   */\n      swap3\n      swap2\n      pop\n      pop\n      jump\t// out\n        /* \"#utility.yul\":4484:4797   */\n    tag_16:\n        /* \"#utility.yul\":4597:4601   */\n      0x00\n        /* \"#utility.yul\":4635:4637   */\n      0x20\n        /* \"#utility.yul\":4624:4633   */\n      dup3\n        /* \"#utility.yul\":4620:4638   */\n      add\n        /* \"#utility.yul\":4612:4638   */\n      swap1\n      pop\n        /* \"#utility.yul\":4684:4693   */\n      dup2\n        /* \"#utility.yul\":4678:4682   */\n      dup2\n        /* \"#utility.yul\":4674:4694   */\n      sub\n        /* \"#utility.yul\":4670:4671   */\n      0x00\n        /* \"#utility.yul\":4659:4668   */\n      dup4\n        /* \"#utility.yul\":4655:4672   */\n      add\n        /* \"#utility.yul\":4648:4695   */\n      mstore\n        /* \"#utility.yul\":4712:4790   */\n      tag_156\n        /* \"#utility.yul\":4785:4789   */\n      dup2\n        /* \"#utility.yul\":4776:4782   */\n      dup5\n        /* \"#utility.yul\":4712:4790   */\n      tag_83\n      jump\t// in\n    tag_156:\n        /* \"#utility.yul\":4704:4790   */\n      swap1\n      pop\n        /* \"#utility.yul\":4484:4797   */\n      swap3\n      swap2\n      pop\n      pop\n      jump\t// out\n        /* \"#utility.yul\":4803:5132   */\n    tag_19:\n        /* \"#utility.yul\":4862:4868   */\n      0x00\n        /* \"#utility.yul\":4911:4913   */\n      0x20\n        /* \"#utility.yul\":4899:4908   */\n      dup3\n        /* \"#utility.yul\":4890:4897   */\n      dup5\n        /* \"#utility.yul\":4886:4909   */\n      sub\n        /* \"#utility.yul\":4882:4914   */\n      slt\n        /* \"#utility.yul\":4879:4998   */\n      iszero\n      tag_158\n      jumpi\n        /* \"#utility.yul\":4917:4996   */\n      tag_159\n      tag_65\n      jump\t// in\n    tag_159:\n        /* \"#utility.yul\":4879:4998   */\n    tag_158:\n        /* \"#utility.yul\":5037:5038   */\n      0x00\n        /* \"#utility.yul\":5062:5115   */\n      tag_160\n        /* \"#utility.yul\":5107:5114   */\n      dup5\n        /* \"#utility.yul\":5098:5104   */\n      dup3\n        /* \"#utility.yul\":5087:5096   */\n      dup6\n        /* \"#utility.yul\":5083:5105   */\n      add\n        /* \"#utility.yul\":5062:5115   */\n      tag_69\n      jump\t// in\n    tag_160:\n        /* \"#utility.yul\":5052:5115   */\n      swap2\n      pop\n        /* \"#utility.yul\":5008:5125   */\n      pop\n        /* \"#utility.yul\":4803:5132   */\n      swap3\n      swap2\n      pop\n      pop\n      jump\t// out\n        /* \"#utility.yul\":5138:5256   */\n    tag_84:\n        /* \"#utility.yul\":5225:5249   */\n      tag_162\n        /* \"#utility.yul\":5243:5248   */\n      dup2\n        /* \"#utility.yul\":5225:5249   */\n      tag_67\n      jump\t// in\n    tag_162:\n        /* \"#utility.yul\":5220:5223   */\n      dup3\n        /* \"#utility.yul\":5213:5250   */\n      mstore\n        /* \"#utility.yul\":5138:5256   */\n      pop\n      pop\n      jump\t// out\n        /* \"#utility.yul\":5262:5685   */\n    tag_22:\n        /* \"#utility.yul\":5403:5407   */\n      0x00\n        /* \"#utility.yul\":5441:5443   */\n      0x40\n        /* \"#utility.yul\":5430:5439   */\n      dup3\n        /* \"#utility.yul\":5426:5444   */\n      add\n        /* \"#utility.yul\":5418:5444   */\n      swap1\n      pop\n        /* \"#utility.yul\":5454:5525   */\n      tag_164\n        /* \"#utility.yul\":5522:5523   */\n      0x00\n        /* \"#utility.yul\":5511:5520   */\n      dup4\n        /* \"#utility.yul\":5507:5524   */\n      add\n        /* \"#utility.yul\":5498:5504   */\n      dup6\n        /* \"#utility.yul\":5454:5525   */\n      tag_84\n      jump\t// in\n    tag_164:\n        /* \"#utility.yul\":5572:5581   */\n      dup2\n        /* \"#utility.yul\":5566:5570   */\n      dup2\n        /* \"#utility.yul\":5562:5582   */\n      sub\n        /* \"#utility.yul\":5557:5559   */\n      0x20\n        /* \"#utility.yul\":5546:5555   */\n      dup4\n        /* \"#utility.yul\":5542:5560   */\n      add\n        /* \"#utility.yul\":5535:5583   */\n      mstore\n        /* \"#utility.yul\":5600:5678   */\n      tag_165\n        /* \"#utility.yul\":5673:5677   */\n      dup2\n        /* \"#utility.yul\":5664:5670   */\n      dup5\n        /* \"#utility.yul\":5600:5678   */\n      tag_83\n      jump\t// in\n    tag_165:\n        /* \"#utility.yul\":5592:5678   */\n      swap1\n      pop\n        /* \"#utility.yul\":5262:5685   */\n      swap4\n      swap3\n      pop\n      pop\n      pop\n      jump\t// out\n        /* \"#utility.yul\":5691:5913   */\n    tag_33:\n        /* \"#utility.yul\":5784:5788   */\n      0x00\n        /* \"#utility.yul\":5822:5824   */\n      0x20\n        /* \"#utility.yul\":5811:5820   */\n      dup3\n        /* \"#utility.yul\":5807:5825   */\n      add\n        /* \"#utility.yul\":5799:5825   */\n      swap1\n      pop\n        /* \"#utility.yul\":5835:5906   */\n      tag_167\n        /* \"#utility.yul\":5903:5904   */\n      0x00\n        /* \"#utility.yul\":5892:5901   */\n      dup4\n        /* \"#utility.yul\":5888:5905   */\n      add\n        /* \"#utility.yul\":5879:5885   */\n      dup5\n        /* \"#utility.yul\":5835:5906   */\n      tag_84\n      jump\t// in\n    tag_167:\n        /* \"#utility.yul\":5691:5913   */\n      swap3\n      swap2\n      pop\n      pop\n      jump\t// out\n        /* \"#utility.yul\":5919:6099   */\n    tag_85:\n        /* \"#utility.yul\":5967:6044   */\n      0x4e487b7100000000000000000000000000000000000000000000000000000000\n        /* \"#utility.yul\":5964:5965   */\n      0x00\n        /* \"#utility.yul\":5957:6045   */\n      mstore\n        /* \"#utility.yul\":6064:6068   */\n      0x22\n        /* \"#utility.yul\":6061:6062   */\n      0x04\n        /* \"#utility.yul\":6054:6069   */\n      mstore\n        /* \"#utility.yul\":6088:6092   */\n      0x24\n        /* \"#utility.yul\":6085:6086   */\n      0x00\n        /* \"#utility.yul\":6078:6093   */\n      revert\n        /* \"#utility.yul\":6105:6425   */\n    tag_41:\n        /* \"#utility.yul\":6149:6155   */\n      0x00\n        /* \"#utility.yul\":6186:6187   */\n      0x02\n        /* \"#utility.yul\":6180:6184   */\n      dup3\n        /* \"#utility.yul\":6176:6188   */\n      div\n        /* \"#utility.yul\":6166:6188   */\n      swap1\n      pop\n        /* \"#utility.yul\":6233:6234   */\n      0x01\n        /* \"#utility.yul\":6227:6231   */\n      dup3\n        /* \"#utility.yul\":6223:6235   */\n      and\n        /* \"#utility.yul\":6254:6272   */\n      dup1\n        /* \"#utility.yul\":6244:6325   */\n      tag_170\n      jumpi\n        /* \"#utility.yul\":6310:6314   */\n      0x7f\n        /* \"#utility.yul\":6302:6308   */\n      dup3\n        /* \"#utility.yul\":6298:6315   */\n      and\n        /* \"#utility.yul\":6288:6315   */\n      swap2\n      pop\n        /* \"#utility.yul\":6244:6325   */\n    tag_170:\n        /* \"#utility.yul\":6372:6374   */\n      0x20\n        /* \"#utility.yul\":6364:6370   */\n      dup3\n        /* \"#utility.yul\":6361:6375   */\n      lt\n        /* \"#utility.yul\":6341:6359   */\n      dup2\n        /* \"#utility.yul\":6338:6376   */\n      sub\n        /* \"#utility.yul\":6335:6419   */\n      tag_171\n      jumpi\n        /* \"#utility.yul\":6391:6409   */\n      tag_172\n      tag_85\n      jump\t// in\n    tag_172:\n        /* \"#utility.yul\":6335:6419   */\n    tag_171:\n        /* \"#utility.yul\":6156:6425   */\n      pop\n        /* \"#utility.yul\":6105:6425   */\n      swap2\n      swap1\n      pop\n      jump\t// out\n        /* \"#utility.yul\":6431:6572   */\n    tag_86:\n        /* \"#utility.yul\":6480:6484   */\n      0x00\n        /* \"#utility.yul\":6503:6506   */\n      dup2\n        /* \"#utility.yul\":6495:6506   */\n      swap1\n      pop\n        /* \"#utility.yul\":6526:6529   */\n      dup2\n        /* \"#utility.yul\":6523:6524   */\n      0x00\n        /* \"#utility.yul\":6516:6530   */\n      mstore\n        /* \"#utility.yul\":6560:6564   */\n      0x20\n        /* \"#utility.yul\":6557:6558   */\n      0x00\n        /* \"#utility.yul\":6547:6565   */\n      keccak256\n        /* \"#utility.yul\":6539:6565   */\n      swap1\n      pop\n        /* \"#utility.yul\":6431:6572   */\n      swap2\n      swap1\n      pop\n      jump\t// out\n        /* \"#utility.yul\":6578:6671   */\n    tag_87:\n        /* \"#utility.yul\":6615:6621   */\n      0x00\n        /* \"#utility.yul\":6662:6664   */\n      0x20\n        /* \"#utility.yul\":6657:6659   */\n      0x1f\n        /* \"#utility.yul\":6650:6655   */\n      dup4\n        /* \"#utility.yul\":6646:6660   */\n      add\n        /* \"#utility.yul\":6642:6665   */\n      div\n        /* \"#utility.yul\":6632:6665   */\n      swap1\n      pop\n        /* \"#utility.yul\":6578:6671   */\n      swap2\n      swap1\n      pop\n      jump\t// out\n        /* \"#utility.yul\":6677:6784   */\n    tag_88:\n        /* \"#utility.yul\":6721:6729   */\n      0x00\n        /* \"#utility.yul\":6771:6776   */\n      dup3\n        /* \"#utility.yul\":6765:6769   */\n      dup3\n        /* \"#utility.yul\":6761:6777   */\n      shl\n        /* \"#utility.yul\":6740:6777   */\n      swap1\n      pop\n        /* \"#utility.yul\":6677:6784   */\n      swap3\n      swap2\n      pop\n      pop\n      jump\t// out\n        /* \"#utility.yul\":6790:7183   */\n    tag_89:\n        /* \"#utility.yul\":6859:6865   */\n      0x00\n        /* \"#utility.yul\":6909:6910   */\n      0x08\n        /* \"#utility.yul\":6897:6907   */\n      dup4\n        /* \"#utility.yul\":6893:6911   */\n      mul\n        /* \"#utility.yul\":6932:7029   */\n      tag_177\n        /* \"#utility.yul\":6962:7028   */\n      0xffffffffffffffffffffffffffffffffffffffffffffffffffffffffffffffff\n        /* \"#utility.yul\":6951:6960   */\n      dup3\n        /* \"#utility.yul\":6932:7029   */\n      tag_88\n      jump\t// in\n    tag_177:\n        /* \"#utility.yul\":7050:7089   */\n      tag_178\n        /* \"#utility.yul\":7080:7088   */\n      dup7\n        /* \"#utility.yul\":7069:7078   */\n      dup4\n        /* \"#utility.yul\":7050:7089   */\n      tag_88\n      jump\t// in\n    tag_178:\n        /* \"#utility.yul\":7038:7089   */\n      swap6\n      pop\n        /* \"#utility.yul\":7122:7126   */\n      dup1\n        /* \"#utility.yul\":7118:7127   */\n      not\n        /* \"#utility.yul\":7111:7116   */\n      dup5\n        /* \"#utility.yul\":7107:7128   */\n      and\n        /* \"#utility.yul\":7098:7128   */\n      swap4\n      pop\n        /* \"#utility.yul\":7171:7175   */\n      dup1\n        /* \"#utility.yul\":7161:7169   */\n      dup7\n        /* \"#utility.yul\":7157:7176   */\n      and\n        /* \"#utility.yul\":7150:7155   */\n      dup5\n        /* \"#utility.yul\":7147:7177   */\n      or\n        /* \"#utility.yul\":7137:7177   */\n      swap3\n      pop\n        /* \"#utility.yul\":6866:7183   */\n      pop\n      pop\n        /* \"#utility.yul\":6790:7183   */\n      swap4\n      swap3\n      pop\n      pop\n      pop\n      jump\t// out\n        /* \"#utility.yul\":7189:7249   */\n    tag_90:\n        /* \"#utility.yul\":7217:7220   */\n      0x00\n        /* \"#utility.yul\":7238:7243   */\n      dup2\n        /* \"#utility.yul\":7231:7243   */\n      swap1\n      pop\n        /* \"#utility.yul\":7189:7249   */\n      swap2\n      swap1\n      pop\n      jump\t// out\n        /* \"#utility.yul\":7255:7397   */\n    tag_91:\n        /* \"#utility.yul\":7305:7314   */\n      0x00\n        /* \"#utility.yul\":7338:7391   */\n      tag_181\n        /* \"#utility.yul\":7356:7390   */\n      tag_182\n        /* \"#utility.yul\":7365:7389   */\n      tag_183\n        /* \"#utility.yul\":7383:7388   */\n      dup5\n        /* \"#utility.yul\":7365:7389   */\n      tag_67\n      jump\t// in\n    tag_183:\n        /* \"#utility.yul\":7356:7390   */\n      tag_90\n      jump\t// in\n    tag_182:\n        /* \"#utility.yul\":7338:7391   */\n      tag_67\n      jump\t// in\n    tag_181:\n        /* \"#utility.yul\":7325:7391   */\n      swap1\n      pop\n        /* \"#utility.yul\":7255:7397   */\n      swap2\n      swap1\n      pop\n      jump\t// out\n        /* \"#utility.yul\":7403:7478   */\n    tag_92:\n        /* \"#utility.yul\":7446:7449   */\n      0x00\n        /* \"#utility.yul\":7467:7472   */\n      dup2\n        /* \"#utility.yul\":7460:7472   */\n      swap1\n      pop\n        /* \"#utility.yul\":7403:7478   */\n      swap2\n      swap1\n      pop\n      jump\t// out\n        /* \"#utility.yul\":7484:7753   */\n    tag_93:\n        /* \"#utility.yul\":7594:7633   */\n      tag_186\n        /* \"#utility.yul\":7625:7632   */\n      dup4\n        /* \"#utility.yul\":7594:7633   */\n      tag_91\n      jump\t// in\n    tag_186:\n        /* \"#utility.yul\":7655:7746   */\n      tag_187\n        /* \"#utility.yul\":7704:7745   */\n      tag_188\n        /* \"#utility.yul\":7728:7744   */\n      dup3\n        /* \"#utility.yul\":7704:7745   */\n      tag_92\n      jump\t// in\n    tag_188:\n        /* \"#utility.yul\":7696:7702   */\n      dup5\n        /* \"#utility.yul\":7689:7693   */\n      dup5\n        /* \"#utility.yul\":7683:7694   */\n      sload\n        /* \"#utility.yul\":7655:7746   */\n      tag_89\n      jump\t// in\n    tag_187:\n        /* \"#utility.yul\":7649:7653   */\n      dup3\n        /* \"#utility.yul\":7642:7747   */\n      sstore\n        /* \"#utility.yul\":7560:7753   */\n      pop\n        /* \"#utility.yul\":7484:7753   */\n      pop\n      pop\n      pop\n      jump\t// out\n        /* \"#utility.yul\":7759:7832   */\n    tag_94:\n        /* \"#utility.yul\":7804:7807   */\n      0x00\n        /* \"#utility.yul\":7759:7832   */\n      swap1\n      jump\t// out\n        /* \"#utility.yul\":7838:8027   */\n    tag_95:\n        /* \"#utility.yul\":7915:7947   */\n      tag_191\n      tag_94\n      jump\t// in\n    tag_191:\n        /* \"#utility.yul\":7956:8021   */\n      tag_192\n        /* \"#utility.yul\":8014:8020   */\n      dup2\n        /* \"#utility.yul\":8006:8012   */\n      dup5\n        /* \"#utility.yul\":8000:8004   */\n      dup5\n        /* \"#utility.yul\":7956:8021   */\n      tag_93\n      jump\t// in\n    tag_192:\n        /* \"#utility.yul\":7891:8027   */\n      pop\n        /* \"#utility.yul\":7838:8027   */\n      pop\n      pop\n      jump\t// out\n        /* \"#utility.yul\":8033:8219   */\n    tag_96:\n        /* \"#utility.yul\":8093:8213   */\n    tag_194:\n        /* \"#utility.yul\":8110:8113   */\n      dup2\n        /* \"#utility.yul\":8103:8108   */\n      dup2\n        /* \"#utility.yul\":8100:8114   */\n      lt\n        /* \"#utility.yul\":8093:8213   */\n      iszero\n      tag_196\n      jumpi\n        /* \"#utility.yul\":8164:8203   */\n      tag_197\n        /* \"#utility.yul\":8201:8202   */\n      0x00\n        /* \"#utility.yul\":8194:8199   */\n      dup3\n        /* \"#utility.yul\":8164:8203   */\n      tag_95\n      jump\t// in\n    tag_197:\n        /* \"#utility.yul\":8137:8138   */\n      0x01\n        /* \"#utility.yul\":8130:8135   */\n      dup2\n        /* \"#utility.yul\":8126:8139   */\n      add\n        /* \"#utility.yul\":8117:8139   */\n      swap1\n      pop\n        /* \"#utility.yul\":8093:8213   */\n      jump(tag_194)\n    tag_196:\n        /* \"#utility.yul\":8033:8219   */\n      pop\n      pop\n      jump\t// out\n        /* \"#utility.yul\":8225:8768   */\n    tag_97:\n        /* \"#utility.yul\":8326:8328   */\n      0x1f\n        /* \"#utility.yul\":8321:8324   */\n      dup3\n        /* \"#utility.yul\":8318:8329   */\n      gt\n        /* \"#utility.yul\":8315:8761   */\n      iszero\n      tag_199\n      jumpi\n        /* \"#utility.yul\":8360:8398   */\n      tag_200\n        /* \"#utility.yul\":8392:8397   */\n      dup2\n        /* \"#utility.yul\":8360:8398   */\n      tag_86\n      jump\t// in\n    tag_200:\n        /* \"#utility.yul\":8444:8473   */\n      tag_201\n        /* \"#utility.yul\":8462:8472   */\n      dup5\n        /* \"#utility.yul\":8444:8473   */\n      tag_87\n      jump\t// in\n    tag_201:\n        /* \"#utility.yul\":8434:8442   */\n      dup2\n        /* \"#utility.yul\":8430:8474   */\n      add\n        /* \"#utility.yul\":8627:8629   */\n      0x20\n        /* \"#utility.yul\":8615:8625   */\n      dup6\n        /* \"#utility.yul\":8612:8630   */\n      lt\n        /* \"#utility.yul\":8609:8658   */\n      iszero\n      tag_202\n      jumpi\n        /* \"#utility.yul\":8648:8656   */\n      dup2\n        /* \"#utility.yul\":8633:8656   */\n      swap1\n      pop\n        /* \"#utility.yul\":8609:8658   */\n    tag_202:\n        /* \"#utility.yul\":8671:8751   */\n      tag_203\n        /* \"#utility.yul\":8727:8749   */\n      tag_204\n        /* \"#utility.yul\":8745:8748   */\n      dup6\n        /* \"#utility.yul\":8727:8749   */\n      tag_87\n      jump\t// in\n    tag_204:\n        /* \"#utility.yul\":8717:8725   */\n      dup4\n        /* \"#utility.yul\":8713:8750   */\n      add\n        /* \"#utility.yul\":8700:8711   */\n      dup3\n        /* \"#utility.yul\":8671:8751   */\n      tag_96\n      jump\t// in\n    tag_203:\n        /* \"#utility.yul\":8330:8761   */\n      pop\n      pop\n        /* \"#utility.yul\":8315:8761   */\n    tag_199:\n        /* \"#utility.yul\":8225:8768   */\n      pop\n      pop\n      pop\n      jump\t// out\n        /* \"#utility.yul\":8774:8891   */\n    tag_98:\n        /* \"#utility.yul\":8828:8836   */\n      0x00\n        /* \"#utility.yul\":8878:8883   */\n      dup3\n        /* \"#utility.yul\":8872:8876   */\n      dup3\n        /* \"#utility.yul\":8868:8884   */\n      shr\n        /* \"#utility.yul\":8847:8884   */\n      swap1\n      pop\n        /* \"#utility.yul\":8774:8891   */\n      swap3\n      swap2\n      pop\n      pop\n      jump\t// out\n        /* \"#utility.yul\":8897:9066   */\n    tag_99:\n        /* \"#utility.yul\":8941:8947   */\n      0x00\n        /* \"#utility.yul\":8974:9025   */\n      tag_207\n        /* \"#utility.yul\":9022:9023   */\n      0x00\n        /* \"#utility.yul\":9018:9024   */\n      not\n        /* \"#utility.yul\":9010:9015   */\n      dup5\n        /* \"#utility.yul\":9007:9008   */\n      0x08\n        /* \"#utility.yul\":9003:9016   */\n      mul\n        /* \"#utility.yul\":8974:9025   */\n      tag_98\n      jump\t// in\n    tag_207:\n        /* \"#utility.yul\":8970:9026   */\n      not\n        /* \"#utility.yul\":9055:9059   */\n      dup1\n        /* \"#utility.yul\":9049:9053   */\n      dup4\n        /* \"#utility.yul\":9045:9060   */\n      and\n        /* \"#utility.yul\":9035:9060   */\n      swap2\n      pop\n        /* \"#utility.yul\":8948:9066   */\n      pop\n        /* \"#utility.yul\":8897:9066   */\n      swap3\n      swap2\n      pop\n      pop\n      jump\t// out\n        /* \"#utility.yul\":9071:9366   */\n    tag_100:\n        /* \"#utility.yul\":9147:9151   */\n      0x00\n        /* \"#utility.yul\":9293:9322   */\n      tag_209\n        /* \"#utility.yul\":9318:9321   */\n      dup4\n        /* \"#utility.yul\":9312:9316   */\n      dup4\n        /* \"#utility.yul\":9293:9322   */\n      tag_99\n      jump\t// in\n    tag_209:\n        /* \"#utility.yul\":9285:9322   */\n      swap2\n      pop\n        /* \"#utility.yul\":9355:9358   */\n      dup3\n        /* \"#utility.yul\":9352:9353   */\n      0x02\n        /* \"#utility.yul\":9348:9359   */\n      mul\n        /* \"#utility.yul\":9342:9346   */\n      dup3\n        /* \"#utility.yul\":9339:9360   */\n      or\n        /* \"#utility.yul\":9331:9360   */\n      swap1\n      pop\n        /* \"#utility.yul\":9071:9366   */\n      swap3\n      swap2\n      pop\n      pop\n      jump\t// out\n        /* \"#utility.yul\":9371:10766   */\n    tag_36:\n        /* \"#utility.yul\":9488:9525   */\n      tag_211\n        /* \"#utility.yul\":9521:9524   */\n      dup3\n        /* \"#utility.yul\":9488:9525   */\n      tag_80\n      jump\t// in\n    tag_211:\n        /* \"#utility.yul\":9590:9608   */\n      0xffffffffffffffff\n        /* \"#utility.yul\":9582:9588   */\n      dup2\n        /* \"#utility.yul\":9579:9609   */\n      gt\n        /* \"#utility.yul\":9576:9632   */\n      iszero\n      tag_212\n      jumpi\n        /* \"#utility.yul\":9612:9630   */\n      tag_213\n      tag_73\n      jump\t// in\n    tag_213:\n        /* \"#utility.yul\":9576:9632   */\n    tag_212:\n        /* \"#utility.yul\":9656:9694   */\n      tag_214\n        /* \"#utility.yul\":9688:9692   */\n      dup3\n        /* \"#utility.yul\":9682:9693   */\n      sload\n        /* \"#utility.yul\":9656:9694   */\n      tag_41\n      jump\t// in\n    tag_214:\n        /* \"#utility.yul\":9741:9808   */\n      tag_215\n        /* \"#utility.yul\":9801:9807   */\n      dup3\n        /* \"#utility.yul\":9793:9799   */\n      dup3\n        /* \"#utility.yul\":9787:9791   */\n      dup6\n        /* \"#utility.yul\":9741:9808   */\n      tag_97\n      jump\t// in\n    tag_215:\n        /* \"#utility.yul\":9835:9836   */\n      0x00\n        /* \"#utility.yul\":9859:9863   */\n      0x20\n        /* \"#utility.yul\":9846:9863   */\n      swap1\n      pop\n        /* \"#utility.yul\":9891:9893   */\n      0x1f\n        /* \"#utility.yul\":9883:9889   */\n      dup4\n        /* \"#utility.yul\":9880:9894   */\n      gt\n        /* \"#utility.yul\":9908:9909   */\n      0x01\n        /* \"#utility.yul\":9903:10521   */\n      dup2\n      eq\n      tag_217\n      jumpi\n        /* \"#utility.yul\":10565:10566   */\n      0x00\n        /* \"#utility.yul\":10582:10588   */\n      dup5\n        /* \"#utility.yul\":10579:10656   */\n      iszero\n      tag_218\n      jumpi\n        /* \"#utility.yul\":10631:10640   */\n      dup3\n        /* \"#utility.yul\":10626:10629   */\n      dup8\n        /* \"#utility.yul\":10622:10641   */\n      add\n        /* \"#utility.yul\":10616:10642   */\n      mload\n        /* \"#utility.yul\":10607:10642   */\n      swap1\n      pop\n        /* \"#utility.yul\":10579:10656   */\n    tag_218:\n        /* \"#utility.yul\":10682:10749   */\n      tag_219\n        /* \"#utility.yul\":10742:10748   */\n      dup6\n        /* \"#utility.yul\":10735:10740   */\n      dup3\n        /* \"#utility.yul\":10682:10749   */\n      tag_100\n      jump\t// in\n    tag_219:\n        /* \"#utility.yul\":10676:10680   */\n      dup7\n        /* \"#utility.yul\":10669:10750   */\n      sstore\n        /* \"#utility.yul\":10538:10760   */\n      pop\n        /* \"#utility.yul\":9873:10760   */\n      jump(tag_216)\n        /* \"#utility.yul\":9903:10521   */\n    tag_217:\n        /* \"#utility.yul\":9955:9959   */\n      0x1f\n        /* \"#utility.yul\":9951:9960   */\n      not\n        /* \"#utility.yul\":9943:9949   */\n      dup5\n        /* \"#utility.yul\":9939:9961   */\n      and\n        /* \"#utility.yul\":9989:10026   */\n      tag_220\n        /* \"#utility.yul\":10021:10025   */\n      dup7\n        /* \"#utility.yul\":9989:10026   */\n      tag_86\n      jump\t// in\n    tag_220:\n        /* \"#utility.yul\":10048:10049   */\n      0x00\n        /* \"#utility.yul\":10062:10270   */\n    tag_221:\n        /* \"#utility.yul\":10076:10083   */\n      dup3\n        /* \"#utility.yul\":10073:10074   */\n      dup2\n        /* \"#utility.yul\":10070:10084   */\n      lt\n        /* \"#utility.yul\":10062:10270   */\n      iszero\n      tag_223\n      jumpi\n        /* \"#utility.yul\":10155:10164   */\n      dup5\n        /* \"#utility.yul\":10150:10153   */\n      dup10\n        /* \"#utility.yul\":10146:10165   */\n      add\n        /* \"#utility.yul\":10140:10166   */\n      mload\n        /* \"#utility.yul\":10132:10138   */\n      dup3\n        /* \"#utility.yul\":10125:10167   */\n      sstore\n        /* \"#utility.yul\":10206:10207   */\n      0x01\n        /* \"#utility.yul\":10198:10204   */\n      dup3\n        /* \"#utility.yul\":10194:10208   */\n      add\n        /* \"#utility.yul\":10184:10208   */\n      swap2\n      pop\n        /* \"#utility.yul\":10253:10255   */\n      0x20\n        /* \"#utility.yul\":10242:10251   */\n      dup6\n        /* \"#utility.yul\":10238:10256   */\n      add\n        /* \"#utility.yul\":10225:10256   */\n      swap5\n      pop\n        /* \"#utility.yul\":10099:10103   */\n      0x20\n        /* \"#utility.yul\":10096:10097   */\n      dup2\n        /* \"#utility.yul\":10092:10104   */\n      add\n        /* \"#utility.yul\":10087:10104   */\n      swap1\n      pop\n        /* \"#utility.yul\":10062:10270   */\n      jump(tag_221)\n    tag_223:\n        /* \"#utility.yul\":10298:10304   */\n      dup7\n        /* \"#utility.yul\":10289:10296   */\n      dup4\n        /* \"#utility.yul\":10286:10305   */\n      lt\n        /* \"#utility.yul\":10283:10462   */\n      iszero\n      tag_224\n      jumpi\n        /* \"#utility.yul\":10356:10365   */\n      dup5\n        /* \"#utility.yul\":10351:10354   */\n      dup10\n        /* \"#utility.yul\":10347:10366   */\n      add\n        /* \"#utility.yul\":10341:10367   */\n      mload\n        /* \"#utility.yul\":10399:10447   */\n      tag_225\n        /* \"#utility.yul\":10441:10445   */\n      0x1f\n        /* \"#utility.yul\":10433:10439   */\n      dup10\n        /* \"#utility.yul\":10429:10446   */\n      and\n        /* \"#utility.yul\":10418:10427   */\n      dup3\n        /* \"#utility.yul\":10399:10447   */\n      tag_99\n      jump\t// in\n    tag_225:\n        /* \"#utility.yul\":10391:10397   */\n      dup4\n        /* \"#utility.yul\":10384:10448   */\n      sstore\n        /* \"#utility.yul\":10306:10462   */\n      pop\n        /* \"#utility.yul\":10283:10462   */\n    tag_224:\n        /* \"#utility.yul\":10508:10509   */\n      0x01\n        /* \"#utility.yul\":10504:10505   */\n      0x02\n        /* \"#utility.yul\":10496:10502   */\n      dup9\n        /* \"#utility.yul\":10492:10506   */\n      mul\n        /* \"#utility.yul\":10488:10510   */\n      add\n        /* \"#utility.yul\":10482:10486   */\n      dup9\n        /* \"#utility.yul\":10475:10511   */\n      sstore\n        /* \"#utility.yul\":9910:10521   */\n      pop\n      pop\n      pop\n        /* \"#utility.yul\":9873:10760   */\n    tag_216:\n      pop\n        /* \"#utility.yul\":9463:10766   */\n      pop\n      pop\n      pop\n        /* \"#utility.yul\":9371:10766   */\n      pop\n      pop\n      jump\t// out\n\n    auxdata: 0xa264697066735822122051229f4c7e90885c054b19be94913927564a30119ba52475a89c9643f5a494ed64736f6c63430008160033\n}\n",
				"bytecode": {
					"linkReferences": {},
					"object": "608060405234801561000f575f80fd5b50610a408061001d5f395ff3fe608060405234801561000f575f80fd5b5060043610610060575f3560e01c80637ac8224c1461006457806389b7ddf2146100805780639e7a13ad1461009e578063a6b7fc5b146100cf578063aa257aa4146100ee578063ac1bed581461011e575b5f80fd5b61007e600480360381019061007991906105cc565b61013c565b005b6100886101d2565b60405161009591906106a0565b60405180910390f35b6100b860048036038101906100b391906106c0565b61025e565b6040516100c69291906106fa565b60405180910390f35b6100d7610313565b6040516100e59291906106fa565b60405180910390f35b610108600480360381019061010391906106c0565b6103ac565b60405161011591906106a0565b60405180910390f35b610126610447565b6040516101339190610728565b60405180910390f35b815f819055508060019081610151919061093b565b506003604051806040016040528084815260200183815250908060018154018082558091505060019003905f5260205f2090600202015f909190919091505f820151815f015560208201518160010190816101ac919061093b565b5050508060025f8481526020019081526020015f2090816101cd919061093b565b505050565b600180546101df9061076e565b80601f016020809104026020016040519081016040528092919081815260200182805461020b9061076e565b80156102565780601f1061022d57610100808354040283529160200191610256565b820191905f5260205f20905b81548152906001019060200180831161023957829003601f168201915b505050505081565b6003818154811061026d575f80fd5b905f5260205f2090600202015f91509050805f0154908060010180546102929061076e565b80601f01602080910402602001604051908101604052809291908181526020018280546102be9061076e565b80156103095780601f106102e057610100808354040283529160200191610309565b820191905f5260205f20905b8154815290600101906020018083116102ec57829003601f168201915b5050505050905082565b5f60605f5460018080546103269061076e565b80601f01602080910402602001604051908101604052809291908181526020018280546103529061076e565b801561039d5780601f106103745761010080835404028352916020019161039d565b820191905f5260205f20905b81548152906001019060200180831161038057829003601f168201915b50505050509050915091509091565b6002602052805f5260405f205f9150905080546103c89061076e565b80601f01602080910402602001604051908101604052809291908181526020018280546103f49061076e565b801561043f5780601f106104165761010080835404028352916020019161043f565b820191905f5260205f20905b81548152906001019060200180831161042257829003601f168201915b505050505081565b5f5481565b5f604051905090565b5f80fd5b5f80fd5b5f819050919050565b61046f8161045d565b8114610479575f80fd5b50565b5f8135905061048a81610466565b92915050565b5f80fd5b5f80fd5b5f601f19601f8301169050919050565b7f4e487b71000000000000000000000000000000000000000000000000000000005f52604160045260245ffd5b6104de82610498565b810181811067ffffffffffffffff821117156104fd576104fc6104a8565b5b80604052505050565b5f61050f61044c565b905061051b82826104d5565b919050565b5f67ffffffffffffffff82111561053a576105396104a8565b5b61054382610498565b9050602081019050919050565b828183375f83830152505050565b5f61057061056b84610520565b610506565b90508281526020810184848401111561058c5761058b610494565b5b610597848285610550565b509392505050565b5f82601f8301126105b3576105b2610490565b5b81356105c384826020860161055e565b91505092915050565b5f80604083850312156105e2576105e1610455565b5b5f6105ef8582860161047c565b925050602083013567ffffffffffffffff8111156106105761060f610459565b5b61061c8582860161059f565b9150509250929050565b5f81519050919050565b5f82825260208201905092915050565b5f5b8381101561065d578082015181840152602081019050610642565b5f8484015250505050565b5f61067282610626565b61067c8185610630565b935061068c818560208601610640565b61069581610498565b840191505092915050565b5f6020820190508181035f8301526106b88184610668565b905092915050565b5f602082840312156106d5576106d4610455565b5b5f6106e28482850161047c565b91505092915050565b6106f48161045d565b82525050565b5f60408201905061070d5f8301856106eb565b818103602083015261071f8184610668565b90509392505050565b5f60208201905061073b5f8301846106eb565b92915050565b7f4e487b71000000000000000000000000000000000000000000000000000000005f52602260045260245ffd5b5f600282049050600182168061078557607f821691505b60208210810361079857610797610741565b5b50919050565b5f819050815f5260205f209050919050565b5f6020601f8301049050919050565b5f82821b905092915050565b5f600883026107fa7fffffffffffffffffffffffffffffffffffffffffffffffffffffffffffffffff826107bf565b61080486836107bf565b95508019841693508086168417925050509392505050565b5f819050919050565b5f61083f61083a6108358461045d565b61081c565b61045d565b9050919050565b5f819050919050565b61085883610825565b61086c61086482610846565b8484546107cb565b825550505050565b5f90565b610880610874565b61088b81848461084f565b505050565b5b818110156108ae576108a35f82610878565b600181019050610891565b5050565b601f8211156108f3576108c48161079e565b6108cd846107b0565b810160208510156108dc578190505b6108f06108e8856107b0565b830182610890565b50505b505050565b5f82821c905092915050565b5f6109135f19846008026108f8565b1980831691505092915050565b5f61092b8383610904565b9150826002028217905092915050565b61094482610626565b67ffffffffffffffff81111561095d5761095c6104a8565b5b610967825461076e565b6109728282856108b2565b5f60209050601f8311600181146109a3575f8415610991578287015190505b61099b8582610920565b865550610a02565b601f1984166109b18661079e565b5f5b828110156109d8578489015182556001820191506020850194506020810190506109b3565b868310156109f557848901516109f1601f891682610904565b8355505b6001600288020188555050505b50505050505056fea264697066735822122051229f4c7e90885c054b19be94913927564a30119ba52475a89c9643f5a494ed64736f6c63430008160033",
					"opcodes": "PUSH1 0x80 PUSH1 0x40 MSTORE CALLVALUE DUP1 ISZERO PUSH2 0xF JUMPI PUSH0 DUP1 REVERT JUMPDEST POP PUSH2 0xA40 DUP1 PUSH2 0x1D PUSH0 CODECOPY PUSH0 RETURN INVALID PUSH1 0x80 PUSH1 0x40 MSTORE CALLVALUE DUP1 ISZERO PUSH2 0xF JUMPI PUSH0 DUP1 REVERT JUMPDEST POP PUSH1 0x4 CALLDATASIZE LT PUSH2 0x60 JUMPI PUSH0 CALLDATALOAD PUSH1 0xE0 SHR DUP1 PUSH4 0x7AC8224C EQ PUSH2 0x64 JUMPI DUP1 PUSH4 0x89B7DDF2 EQ PUSH2 0x80 JUMPI DUP1 PUSH4 0x9E7A13AD EQ PUSH2 0x9E JUMPI DUP1 PUSH4 0xA6B7FC5B EQ PUSH2 0xCF JUMPI DUP1 PUSH4 0xAA257AA4 EQ PUSH2 0xEE JUMPI DUP1 PUSH4 0xAC1BED58 EQ PUSH2 0x11E JUMPI JUMPDEST PUSH0 DUP1 REVERT JUMPDEST PUSH2 0x7E PUSH1 0x4 DUP1 CALLDATASIZE SUB DUP2 ADD SWAP1 PUSH2 0x79 SWAP2 SWAP1 PUSH2 0x5CC JUMP JUMPDEST PUSH2 0x13C JUMP JUMPDEST STOP JUMPDEST PUSH2 0x88 PUSH2 0x1D2 JUMP JUMPDEST PUSH1 0x40 MLOAD PUSH2 0x95 SWAP2 SWAP1 PUSH2 0x6A0 JUMP JUMPDEST PUSH1 0x40 MLOAD DUP1 SWAP2 SUB SWAP1 RETURN JUMPDEST PUSH2 0xB8 PUSH1 0x4 DUP1 CALLDATASIZE SUB DUP2 ADD SWAP1 PUSH2 0xB3 SWAP2 SWAP1 PUSH2 0x6C0 JUMP JUMPDEST PUSH2 0x25E JUMP JUMPDEST PUSH1 0x40 MLOAD PUSH2 0xC6 SWAP3 SWAP2 SWAP1 PUSH2 0x6FA JUMP JUMPDEST PUSH1 0x40 MLOAD DUP1 SWAP2 SUB SWAP1 RETURN JUMPDEST PUSH2 0xD7 PUSH2 0x313 JUMP JUMPDEST PUSH1 0x40 MLOAD PUSH2 0xE5 SWAP3 SWAP2 SWAP1 PUSH2 0x6FA JUMP JUMPDEST PUSH1 0x40 MLOAD DUP1 SWAP2 SUB SWAP1 RETURN JUMPDEST PUSH2 0x108 PUSH1 0x4 DUP1 CALLDATASIZE SUB DUP2 ADD SWAP1 PUSH2 0x103 SWAP2 SWAP1 PUSH2 0x6C0 JUMP JUMPDEST PUSH2 0x3AC JUMP JUMPDEST PUSH1 0x40 MLOAD PUSH2 0x115 SWAP2 SWAP1 PUSH2 0x6A0 JUMP JUMPDEST PUSH1 0x40 MLOAD DUP1 SWAP2 SUB SWAP1 RETURN JUMPDEST PUSH2 0x126 PUSH2 0x447 JUMP JUMPDEST PUSH1 0x40 MLOAD PUSH2 0x133 SWAP2 SWAP1 PUSH2 0x728 JUMP JUMPDEST PUSH1 0x40 MLOAD DUP1 SWAP2 SUB SWAP1 RETURN JUMPDEST DUP2 PUSH0 DUP2 SWAP1 SSTORE POP DUP1 PUSH1 0x1 SWAP1 DUP2 PUSH2 0x151 SWAP2 SWAP1 PUSH2 0x93B JUMP JUMPDEST POP PUSH1 0x3 PUSH1 0x40 MLOAD DUP1 PUSH1 0x40 ADD PUSH1 0x40 MSTORE DUP1 DUP5 DUP2 MSTORE PUSH1 0x20 ADD DUP4 DUP2 MSTORE POP SWAP1 DUP1 PUSH1 0x1 DUP2 SLOAD ADD DUP1 DUP3 SSTORE DUP1 SWAP2 POP POP PUSH1 0x1 SWAP1 SUB SWAP1 PUSH0 MSTORE PUSH1 0x20 PUSH0 KECCAK256 SWAP1 PUSH1 0x2 MUL ADD PUSH0 SWAP1 SWAP2 SWAP1 SWAP2 SWAP1 SWAP2 POP PUSH0 DUP3 ADD MLOAD DUP2 PUSH0 ADD SSTORE PUSH1 0x20 DUP3 ADD MLOAD DUP2 PUSH1 0x1 ADD SWAP1 DUP2 PUSH2 0x1AC SWAP2 SWAP1 PUSH2 0x93B JUMP JUMPDEST POP POP POP DUP1 PUSH1 0x2 PUSH0 DUP5 DUP2 MSTORE PUSH1 0x20 ADD SWAP1 DUP2 MSTORE PUSH1 0x20 ADD PUSH0 KECCAK256 SWAP1 DUP2 PUSH2 0x1CD SWAP2 SWAP1 PUSH2 0x93B JUMP JUMPDEST POP POP POP JUMP JUMPDEST PUSH1 0x1 DUP1 SLOAD PUSH2 0x1DF SWAP1 PUSH2 0x76E JUMP JUMPDEST DUP1 PUSH1 0x1F ADD PUSH1 0x20 DUP1 SWAP2 DIV MUL PUSH1 0x20 ADD PUSH1 0x40 MLOAD SWAP1 DUP2 ADD PUSH1 0x40 MSTORE DUP1 SWAP3 SWAP2 SWAP1 DUP2 DUP2 MSTORE PUSH1 0x20 ADD DUP3 DUP1 SLOAD PUSH2 0x20B SWAP1 PUSH2 0x76E JUMP JUMPDEST DUP1 ISZERO PUSH2 0x256 JUMPI DUP1 PUSH1 0x1F LT PUSH2 0x22D JUMPI PUSH2 0x100 DUP1 DUP4 SLOAD DIV MUL DUP4 MSTORE SWAP2 PUSH1 0x20 ADD SWAP2 PUSH2 0x256 JUMP JUMPDEST DUP3 ADD SWAP2 SWAP1 PUSH0 MSTORE PUSH1 0x20 PUSH0 KECCAK256 SWAP1 JUMPDEST DUP2 SLOAD DUP2 MSTORE SWAP1 PUSH1 0x1 ADD SWAP1 PUSH1 0x20 ADD DUP1 DUP4 GT PUSH2 0x239 JUMPI DUP3 SWAP1 SUB PUSH1 0x1F AND DUP3 ADD SWAP2 JUMPDEST POP POP POP POP POP DUP2 JUMP JUMPDEST PUSH1 0x3 DUP2 DUP2 SLOAD DUP2 LT PUSH2 0x26D JUMPI PUSH0 DUP1 REVERT JUMPDEST SWAP1 PUSH0 MSTORE PUSH1 0x20 PUSH0 KECCAK256 SWAP1 PUSH1 0x2 MUL ADD PUSH0 SWAP2 POP SWAP1 POP DUP1 PUSH0 ADD SLOAD SWAP1 DUP1 PUSH1 0x1 ADD DUP1 SLOAD PUSH2 0x292 SWAP1 PUSH2 0x76E JUMP JUMPDEST DUP1 PUSH1 0x1F ADD PUSH1 0x20 DUP1 SWAP2 DIV MUL PUSH1 0x20 ADD PUSH1 0x40 MLOAD SWAP1 DUP2 ADD PUSH1 0x40 MSTORE DUP1 SWAP3 SWAP2 SWAP1 DUP2 DUP2 MSTORE PUSH1 0x20 ADD DUP3 DUP1 SLOAD PUSH2 0x2BE SWAP1 PUSH2 0x76E JUMP JUMPDEST DUP1 ISZERO PUSH2 0x309 JUMPI DUP1 PUSH1 0x1F LT PUSH2 0x2E0 JUMPI PUSH2 0x100 DUP1 DUP4 SLOAD DIV MUL DUP4 MSTORE SWAP2 PUSH1 0x20 ADD SWAP2 PUSH2 0x309 JUMP JUMPDEST DUP3 ADD SWAP2 SWAP1 PUSH0 MSTORE PUSH1 0x20 PUSH0 KECCAK256 SWAP1 JUMPDEST DUP2 SLOAD DUP2 MSTORE SWAP1 PUSH1 0x1 ADD SWAP1 PUSH1 0x20 ADD DUP1 DUP4 GT PUSH2 0x2EC JUMPI DUP3 SWAP1 SUB PUSH1 0x1F AND DUP3 ADD SWAP2 JUMPDEST POP POP POP POP POP SWAP1 POP DUP3 JUMP JUMPDEST PUSH0 PUSH1 0x60 PUSH0 SLOAD PUSH1 0x1 DUP1 DUP1 SLOAD PUSH2 0x326 SWAP1 PUSH2 0x76E JUMP JUMPDEST DUP1 PUSH1 0x1F ADD PUSH1 0x20 DUP1 SWAP2 DIV MUL PUSH1 0x20 ADD PUSH1 0x40 MLOAD SWAP1 DUP2 ADD PUSH1 0x40 MSTORE DUP1 SWAP3 SWAP2 SWAP1 DUP2 DUP2 MSTORE PUSH1 0x20 ADD DUP3 DUP1 SLOAD PUSH2 0x352 SWAP1 PUSH2 0x76E JUMP JUMPDEST DUP1 ISZERO PUSH2 0x39D JUMPI DUP1 PUSH1 0x1F LT PUSH2 0x374 JUMPI PUSH2 0x100 DUP1 DUP4 SLOAD DIV MUL DUP4 MSTORE SWAP2 PUSH1 0x20 ADD SWAP2 PUSH2 0x39D JUMP JUMPDEST DUP3 ADD SWAP2 SWAP1 PUSH0 MSTORE PUSH1 0x20 PUSH0 KECCAK256 SWAP1 JUMPDEST DUP2 SLOAD DUP2 MSTORE SWAP1 PUSH1 0x1 ADD SWAP1 PUSH1 0x20 ADD DUP1 DUP4 GT PUSH2 0x380 JUMPI DUP3 SWAP1 SUB PUSH1 0x1F AND DUP3 ADD SWAP2 JUMPDEST POP POP POP POP POP SWAP1 POP SWAP2 POP SWAP2 POP SWAP1 SWAP2 JUMP JUMPDEST PUSH1 0x2 PUSH1 0x20 MSTORE DUP1 PUSH0 MSTORE PUSH1 0x40 PUSH0 KECCAK256 PUSH0 SWAP2 POP SWAP1 POP DUP1 SLOAD PUSH2 0x3C8 SWAP1 PUSH2 0x76E JUMP JUMPDEST DUP1 PUSH1 0x1F ADD PUSH1 0x20 DUP1 SWAP2 DIV MUL PUSH1 0x20 ADD PUSH1 0x40 MLOAD SWAP1 DUP2 ADD PUSH1 0x40 MSTORE DUP1 SWAP3 SWAP2 SWAP1 DUP2 DUP2 MSTORE PUSH1 0x20 ADD DUP3 DUP1 SLOAD PUSH2 0x3F4 SWAP1 PUSH2 0x76E JUMP JUMPDEST DUP1 ISZERO PUSH2 0x43F JUMPI DUP1 PUSH1 0x1F LT PUSH2 0x416 JUMPI PUSH2 0x100 DUP1 DUP4 SLOAD DIV MUL DUP4 MSTORE SWAP2 PUSH1 0x20 ADD SWAP2 PUSH2 0x43F JUMP JUMPDEST DUP3 ADD SWAP2 SWAP1 PUSH0 MSTORE PUSH1 0x20 PUSH0 KECCAK256 SWAP1 JUMPDEST DUP2 SLOAD DUP2 MSTORE SWAP1 PUSH1 0x1 ADD SWAP1 PUSH1 0x20 ADD DUP1 DUP4 GT PUSH2 0x422 JUMPI DUP3 SWAP1 SUB PUSH1 0x1F AND DUP3 ADD SWAP2 JUMPDEST POP POP POP POP POP DUP2 JUMP JUMPDEST PUSH0 SLOAD DUP2 JUMP JUMPDEST PUSH0 PUSH1 0x40 MLOAD SWAP1 POP SWAP1 JUMP JUMPDEST PUSH0 DUP1 REVERT JUMPDEST PUSH0 DUP1 REVERT JUMPDEST PUSH0 DUP2 SWAP1 POP SWAP2 SWAP1 POP JUMP JUMPDEST PUSH2 0x46F DUP2 PUSH2 0x45D JUMP JUMPDEST DUP2 EQ PUSH2 0x479 JUMPI PUSH0 DUP1 REVERT JUMPDEST POP JUMP JUMPDEST PUSH0 DUP2 CALLDATALOAD SWAP1 POP PUSH2 0x48A DUP2 PUSH2 0x466 JUMP JUMPDEST SWAP3 SWAP2 POP POP JUMP JUMPDEST PUSH0 DUP1 REVERT JUMPDEST PUSH0 DUP1 REVERT JUMPDEST PUSH0 PUSH1 0x1F NOT PUSH1 0x1F DUP4 ADD AND SWAP1 POP SWAP2 SWAP1 POP JUMP JUMPDEST PUSH32 0x4E487B7100000000000000000000000000000000000000000000000000000000 PUSH0 MSTORE PUSH1 0x41 PUSH1 0x4 MSTORE PUSH1 0x24 PUSH0 REVERT JUMPDEST PUSH2 0x4DE DUP3 PUSH2 0x498 JUMP JUMPDEST DUP2 ADD DUP2 DUP2 LT PUSH8 0xFFFFFFFFFFFFFFFF DUP3 GT OR ISZERO PUSH2 0x4FD JUMPI PUSH2 0x4FC PUSH2 0x4A8 JUMP JUMPDEST JUMPDEST DUP1 PUSH1 0x40 MSTORE POP POP POP JUMP JUMPDEST PUSH0 PUSH2 0x50F PUSH2 0x44C JUMP JUMPDEST SWAP1 POP PUSH2 0x51B DUP3 DUP3 PUSH2 0x4D5 JUMP JUMPDEST SWAP2 SWAP1 POP JUMP JUMPDEST PUSH0 PUSH8 0xFFFFFFFFFFFFFFFF DUP3 GT ISZERO PUSH2 0x53A JUMPI PUSH2 0x539 PUSH2 0x4A8 JUMP JUMPDEST JUMPDEST PUSH2 0x543 DUP3 PUSH2 0x498 JUMP JUMPDEST SWAP1 POP PUSH1 0x20 DUP2 ADD SWAP1 POP SWAP2 SWAP1 POP JUMP JUMPDEST DUP3 DUP2 DUP4 CALLDATACOPY PUSH0 DUP4 DUP4 ADD MSTORE POP POP POP JUMP JUMPDEST PUSH0 PUSH2 0x570 PUSH2 0x56B DUP5 PUSH2 0x520 JUMP JUMPDEST PUSH2 0x506 JUMP JUMPDEST SWAP1 POP DUP3 DUP2 MSTORE PUSH1 0x20 DUP2 ADD DUP5 DUP5 DUP5 ADD GT ISZERO PUSH2 0x58C JUMPI PUSH2 0x58B PUSH2 0x494 JUMP JUMPDEST JUMPDEST PUSH2 0x597 DUP5 DUP3 DUP6 PUSH2 0x550 JUMP JUMPDEST POP SWAP4 SWAP3 POP POP POP JUMP JUMPDEST PUSH0 DUP3 PUSH1 0x1F DUP4 ADD SLT PUSH2 0x5B3 JUMPI PUSH2 0x5B2 PUSH2 0x490 JUMP JUMPDEST JUMPDEST DUP2 CALLDATALOAD PUSH2 0x5C3 DUP5 DUP3 PUSH1 0x20 DUP7 ADD PUSH2 0x55E JUMP JUMPDEST SWAP2 POP POP SWAP3 SWAP2 POP POP JUMP JUMPDEST PUSH0 DUP1 PUSH1 0x40 DUP4 DUP6 SUB SLT ISZERO PUSH2 0x5E2 JUMPI PUSH2 0x5E1 PUSH2 0x455 JUMP JUMPDEST JUMPDEST PUSH0 PUSH2 0x5EF DUP6 DUP3 DUP7 ADD PUSH2 0x47C JUMP JUMPDEST SWAP3 POP POP PUSH1 0x20 DUP4 ADD CALLDATALOAD PUSH8 0xFFFFFFFFFFFFFFFF DUP2 GT ISZERO PUSH2 0x610 JUMPI PUSH2 0x60F PUSH2 0x459 JUMP JUMPDEST JUMPDEST PUSH2 0x61C DUP6 DUP3 DUP7 ADD PUSH2 0x59F JUMP JUMPDEST SWAP2 POP POP SWAP3 POP SWAP3 SWAP1 POP JUMP JUMPDEST PUSH0 DUP2 MLOAD SWAP1 POP SWAP2 SWAP1 POP JUMP JUMPDEST PUSH0 DUP3 DUP3 MSTORE PUSH1 0x20 DUP3 ADD SWAP1 POP SWAP3 SWAP2 POP POP JUMP JUMPDEST PUSH0 JUMPDEST DUP4 DUP2 LT ISZERO PUSH2 0x65D JUMPI DUP1 DUP3 ADD MLOAD DUP2 DUP5 ADD MSTORE PUSH1 0x20 DUP2 ADD SWAP1 POP PUSH2 0x642 JUMP JUMPDEST PUSH0 DUP5 DUP5 ADD MSTORE POP POP POP POP JUMP JUMPDEST PUSH0 PUSH2 0x672 DUP3 PUSH2 0x626 JUMP JUMPDEST PUSH2 0x67C DUP2 DUP6 PUSH2 0x630 JUMP JUMPDEST SWAP4 POP PUSH2 0x68C DUP2 DUP6 PUSH1 0x20 DUP7 ADD PUSH2 0x640 JUMP JUMPDEST PUSH2 0x695 DUP2 PUSH2 0x498 JUMP JUMPDEST DUP5 ADD SWAP2 POP POP SWAP3 SWAP2 POP POP JUMP JUMPDEST PUSH0 PUSH1 0x20 DUP3 ADD SWAP1 POP DUP2 DUP2 SUB PUSH0 DUP4 ADD MSTORE PUSH2 0x6B8 DUP2 DUP5 PUSH2 0x668 JUMP JUMPDEST SWAP1 POP SWAP3 SWAP2 POP POP JUMP JUMPDEST PUSH0 PUSH1 0x20 DUP3 DUP5 SUB SLT ISZERO PUSH2 0x6D5 JUMPI PUSH2 0x6D4 PUSH2 0x455 JUMP JUMPDEST JUMPDEST PUSH0 PUSH2 0x6E2 DUP5 DUP3 DUP6 ADD PUSH2 0x47C JUMP JUMPDEST SWAP2 POP POP SWAP3 SWAP2 POP POP JUMP JUMPDEST PUSH2 0x6F4 DUP2 PUSH2 0x45D JUMP JUMPDEST DUP3 MSTORE POP POP JUMP JUMPDEST PUSH0 PUSH1 0x40 DUP3 ADD SWAP1 POP PUSH2 0x70D PUSH0 DUP4 ADD DUP6 PUSH2 0x6EB JUMP JUMPDEST DUP2 DUP2 SUB PUSH1 0x20 DUP4 ADD MSTORE PUSH2 0x71F DUP2 DUP5 PUSH2 0x668 JUMP JUMPDEST SWAP1 POP SWAP4 SWAP3 POP POP POP JUMP JUMPDEST PUSH0 PUSH1 0x20 DUP3 ADD SWAP1 POP PUSH2 0x73B PUSH0 DUP4 ADD DUP5 PUSH2 0x6EB JUMP JUMPDEST SWAP3 SWAP2 POP POP JUMP JUMPDEST PUSH32 0x4E487B7100000000000000000000000000000000000000000000000000000000 PUSH0 MSTORE PUSH1 0x22 PUSH1 0x4 MSTORE PUSH1 0x24 PUSH0 REVERT JUMPDEST PUSH0 PUSH1 0x2 DUP3 DIV SWAP1 POP PUSH1 0x1 DUP3 AND DUP1 PUSH2 0x785 JUMPI PUSH1 0x7F DUP3 AND SWAP2 POP JUMPDEST PUSH1 0x20 DUP3 LT DUP2 SUB PUSH2 0x798 JUMPI PUSH2 0x797 PUSH2 0x741 JUMP JUMPDEST JUMPDEST POP SWAP2 SWAP1 POP JUMP JUMPDEST PUSH0 DUP2 SWAP1 POP DUP2 PUSH0 MSTORE PUSH1 0x20 PUSH0 KECCAK256 SWAP1 POP SWAP2 SWAP1 POP JUMP JUMPDEST PUSH0 PUSH1 0x20 PUSH1 0x1F DUP4 ADD DIV SWAP1 POP SWAP2 SWAP1 POP JUMP JUMPDEST PUSH0 DUP3 DUP3 SHL SWAP1 POP SWAP3 SWAP2 POP POP JUMP JUMPDEST PUSH0 PUSH1 0x8 DUP4 MUL PUSH2 0x7FA PUSH32 0xFFFFFFFFFFFFFFFFFFFFFFFFFFFFFFFFFFFFFFFFFFFFFFFFFFFFFFFFFFFFFFFF DUP3 PUSH2 0x7BF JUMP JUMPDEST PUSH2 0x804 DUP7 DUP4 PUSH2 0x7BF JUMP JUMPDEST SWAP6 POP DUP1 NOT DUP5 AND SWAP4 POP DUP1 DUP7 AND DUP5 OR SWAP3 POP POP POP SWAP4 SWAP3 POP POP POP JUMP JUMPDEST PUSH0 DUP2 SWAP1 POP SWAP2 SWAP1 POP JUMP JUMPDEST PUSH0 PUSH2 0x83F PUSH2 0x83A PUSH2 0x835 DUP5 PUSH2 0x45D JUMP JUMPDEST PUSH2 0x81C JUMP JUMPDEST PUSH2 0x45D JUMP JUMPDEST SWAP1 POP SWAP2 SWAP1 POP JUMP JUMPDEST PUSH0 DUP2 SWAP1 POP SWAP2 SWAP1 POP JUMP JUMPDEST PUSH2 0x858 DUP4 PUSH2 0x825 JUMP JUMPDEST PUSH2 0x86C PUSH2 0x864 DUP3 PUSH2 0x846 JUMP JUMPDEST DUP5 DUP5 SLOAD PUSH2 0x7CB JUMP JUMPDEST DUP3 SSTORE POP POP POP POP JUMP JUMPDEST PUSH0 SWAP1 JUMP JUMPDEST PUSH2 0x880 PUSH2 0x874 JUMP JUMPDEST PUSH2 0x88B DUP2 DUP5 DUP5 PUSH2 0x84F JUMP JUMPDEST POP POP POP JUMP JUMPDEST JUMPDEST DUP2 DUP2 LT ISZERO PUSH2 0x8AE JUMPI PUSH2 0x8A3 PUSH0 DUP3 PUSH2 0x878 JUMP JUMPDEST PUSH1 0x1 DUP2 ADD SWAP1 POP PUSH2 0x891 JUMP JUMPDEST POP POP JUMP JUMPDEST PUSH1 0x1F DUP3 GT ISZERO PUSH2 0x8F3 JUMPI PUSH2 0x8C4 DUP2 PUSH2 0x79E JUMP JUMPDEST PUSH2 0x8CD DUP5 PUSH2 0x7B0 JUMP JUMPDEST DUP2 ADD PUSH1 0x20 DUP6 LT ISZERO PUSH2 0x8DC JUMPI DUP2 SWAP1 POP JUMPDEST PUSH2 0x8F0 PUSH2 0x8E8 DUP6 PUSH2 0x7B0 JUMP JUMPDEST DUP4 ADD DUP3 PUSH2 0x890 JUMP JUMPDEST POP POP JUMPDEST POP POP POP JUMP JUMPDEST PUSH0 DUP3 DUP3 SHR SWAP1 POP SWAP3 SWAP2 POP POP JUMP JUMPDEST PUSH0 PUSH2 0x913 PUSH0 NOT DUP5 PUSH1 0x8 MUL PUSH2 0x8F8 JUMP JUMPDEST NOT DUP1 DUP4 AND SWAP2 POP POP SWAP3 SWAP2 POP POP JUMP JUMPDEST PUSH0 PUSH2 0x92B DUP4 DUP4 PUSH2 0x904 JUMP JUMPDEST SWAP2 POP DUP3 PUSH1 0x2 MUL DUP3 OR SWAP1 POP SWAP3 SWAP2 POP POP JUMP JUMPDEST PUSH2 0x944 DUP3 PUSH2 0x626 JUMP JUMPDEST PUSH8 0xFFFFFFFFFFFFFFFF DUP2 GT ISZERO PUSH2 0x95D JUMPI PUSH2 0x95C PUSH2 0x4A8 JUMP JUMPDEST JUMPDEST PUSH2 0x967 DUP3 SLOAD PUSH2 0x76E JUMP JUMPDEST PUSH2 0x972 DUP3 DUP3 DUP6 PUSH2 0x8B2 JUMP JUMPDEST PUSH0 PUSH1 0x20 SWAP1 POP PUSH1 0x1F DUP4 GT PUSH1 0x1 DUP2 EQ PUSH2 0x9A3 JUMPI PUSH0 DUP5 ISZERO PUSH2 0x991 JUMPI DUP3 DUP8 ADD MLOAD SWAP1 POP JUMPDEST PUSH2 0x99B DUP6 DUP3 PUSH2 0x920 JUMP JUMPDEST DUP7 SSTORE POP PUSH2 0xA02 JUMP JUMPDEST PUSH1 0x1F NOT DUP5 AND PUSH2 0x9B1 DUP7 PUSH2 0x79E JUMP JUMPDEST PUSH0 JUMPDEST DUP3 DUP2 LT ISZERO PUSH2 0x9D8 JUMPI DUP5 DUP10 ADD MLOAD DUP3 SSTORE PUSH1 0x1 DUP3 ADD SWAP2 POP PUSH1 0x20 DUP6 ADD SWAP5 POP PUSH1 0x20 DUP2 ADD SWAP1 POP PUSH2 0x9B3 JUMP JUMPDEST DUP7 DUP4 LT ISZERO PUSH2 0x9F5 JUMPI DUP5 DUP10 ADD MLOAD PUSH2 0x9F1 PUSH1 0x1F DUP10 AND DUP3 PUSH2 0x904 JUMP JUMPDEST DUP4 SSTORE POP JUMPDEST PUSH1 0x1 PUSH1 0x2 DUP9 MUL ADD DUP9 SSTORE POP POP POP JUMPDEST POP POP POP POP POP POP JUMP INVALID LOG2 PUSH5 0x6970667358 0x22 SLT KECCAK256 MLOAD 0x22 SWAP16 0x4C PUSH31 0x90885C054B19BE94913927564A30119BA52475A89C9643F5A494ED64736F6C PUSH4 0x43000816 STOP CALLER "
				},
				"gasEstimates": {
					"creation": {
						"codeDepositCost": "524800",
						"executionCost": "554",
						"totalCost": "525354"
					},
					"external": {
						"addStudents(uint256,string)": "infinite",
						"fullName()": "infinite",
						"people(uint256)": "infinite",
						"retrive()": "infinite",
						"rollNumber()": "2512",
						"searchByRollNumber(uint256)": "infinite"
					}
				},
				"methodIdentifiers": {
					"addStudents(uint256,string)": "7ac8224c",
					"fullName()": "89b7ddf2",
					"people(uint256)": "9e7a13ad",
					"retrive()": "a6b7fc5b",
					"rollNumber()": "ac1bed58",
					"searchByRollNumber(uint256)": "aa257aa4"
				}
			},
			"storageLayout": {
				"storage": [
					{
						"astId": 3,
						"contract": "contracts/StorageFactory.sol:SimpleStorage",
						"label": "rollNumber",
						"offset": 0,
						"slot": "0",
						"type": "t_uint256"
					},
					{
						"astId": 5,
						"contract": "contracts/StorageFactory.sol:SimpleStorage",
						"label": "fullName",
						"offset": 0,
						"slot": "1",
						"type": "t_string_storage"
					},
					{
						"astId": 9,
						"contract": "contracts/StorageFactory.sol:SimpleStorage",
						"label": "searchByRollNumber",
						"offset": 0,
						"slot": "2",
						"type": "t_mapping(t_uint256,t_string_storage)"
					},
					{
						"astId": 18,
						"contract": "contracts/StorageFactory.sol:SimpleStorage",
						"label": "people",
						"offset": 0,
						"slot": "3",
						"type": "t_array(t_struct(People)14_storage)dyn_storage"
					}
				],
				"types": {
					"t_array(t_struct(People)14_storage)dyn_storage": {
						"base": "t_struct(People)14_storage",
						"encoding": "dynamic_array",
						"label": "struct SimpleStorage.People[]",
						"numberOfBytes": "32"
					},
					"t_mapping(t_uint256,t_string_storage)": {
						"encoding": "mapping",
						"key": "t_uint256",
						"label": "mapping(uint256 => string)",
						"numberOfBytes": "32",
						"value": "t_string_storage"
					},
					"t_string_storage": {
						"encoding": "bytes",
						"label": "string",
						"numberOfBytes": "32"
					},
					"t_struct(People)14_storage": {
						"encoding": "inplace",
						"label": "struct SimpleStorage.People",
						"members": [
							{
								"astId": 11,
								"contract": "contracts/StorageFactory.sol:SimpleStorage",
								"label": "rollNumber",
								"offset": 0,
								"slot": "0",
								"type": "t_uint256"
							},
							{
								"astId": 13,
								"contract": "contracts/StorageFactory.sol:SimpleStorage",
								"label": "fullName",
								"offset": 0,
								"slot": "1",
								"type": "t_string_storage"
							}
						],
						"numberOfBytes": "64"
					},
					"t_uint256": {
						"encoding": "inplace",
						"label": "uint256",
						"numberOfBytes": "32"
					}
				}
			},
			"userdoc": {
				"kind": "user",
				"methods": {},
				"version": 1
			}
		}
	}
}